{
  "address": "0x10a72f356c8f2B6d8CEa25B555b0FdE81917d048",
  "abi": [
    {
      "inputs": [],
      "stateMutability": "nonpayable",
      "type": "constructor"
    },
    {
      "anonymous": false,
      "inputs": [
        {
          "indexed": true,
          "internalType": "uint256",
          "name": "from",
          "type": "uint256"
        },
        {
          "indexed": true,
          "internalType": "uint256",
          "name": "to",
          "type": "uint256"
        },
        {
          "indexed": false,
          "internalType": "uint256",
          "name": "amount",
          "type": "uint256"
        }
      ],
      "name": "Approval",
      "type": "event"
    },
    {
      "anonymous": false,
      "inputs": [
        {
          "indexed": true,
          "internalType": "uint256",
          "name": "from",
          "type": "uint256"
        },
        {
          "indexed": true,
          "internalType": "uint256",
          "name": "to",
          "type": "uint256"
        },
        {
          "indexed": false,
          "internalType": "uint256",
          "name": "amount",
          "type": "uint256"
        }
      ],
      "name": "Burn",
      "type": "event"
    },
    {
      "anonymous": false,
      "inputs": [
        {
          "indexed": true,
          "internalType": "uint256",
          "name": "from",
          "type": "uint256"
        },
        {
          "indexed": true,
          "internalType": "address",
          "name": "to",
          "type": "address"
        },
        {
          "indexed": false,
          "internalType": "uint256",
          "name": "amount",
          "type": "uint256"
        }
      ],
      "name": "BurnApproval",
      "type": "event"
    },
    {
      "anonymous": false,
      "inputs": [
        {
          "indexed": true,
          "internalType": "uint256",
          "name": "from",
          "type": "uint256"
        },
        {
          "indexed": true,
          "internalType": "uint256",
          "name": "to",
          "type": "uint256"
        },
        {
          "indexed": false,
          "internalType": "uint256",
          "name": "amount",
          "type": "uint256"
        }
      ],
      "name": "Mint",
      "type": "event"
    },
    {
      "anonymous": false,
      "inputs": [
        {
          "indexed": true,
          "internalType": "uint256",
          "name": "from",
          "type": "uint256"
        },
        {
          "indexed": true,
          "internalType": "uint256",
          "name": "to",
          "type": "uint256"
        },
        {
          "indexed": false,
          "internalType": "uint256",
          "name": "amount",
          "type": "uint256"
        }
      ],
      "name": "Transfer",
      "type": "event"
    },
    {
      "inputs": [
        {
          "internalType": "uint256",
          "name": "",
          "type": "uint256"
        }
      ],
      "name": "_abilityDecreasers",
      "outputs": [
        {
          "internalType": "uint8",
          "name": "",
          "type": "uint8"
        }
      ],
      "stateMutability": "view",
      "type": "function"
    },
    {
      "inputs": [
        {
          "internalType": "uint256",
          "name": "",
          "type": "uint256"
        }
      ],
      "name": "_abilityIncreasers",
      "outputs": [
        {
          "internalType": "uint8",
          "name": "",
          "type": "uint8"
        }
      ],
      "stateMutability": "view",
      "type": "function"
    },
    {
      "inputs": [
        {
          "internalType": "uint256",
          "name": "",
          "type": "uint256"
        }
      ],
      "name": "_balanceOf",
      "outputs": [
        {
          "internalType": "uint256",
          "name": "",
          "type": "uint256"
        }
      ],
      "stateMutability": "view",
      "type": "function"
    },
    {
      "inputs": [],
      "name": "_decimals",
      "outputs": [
        {
          "internalType": "uint8",
          "name": "",
          "type": "uint8"
        }
      ],
      "stateMutability": "view",
      "type": "function"
    },
    {
      "inputs": [
        {
          "internalType": "uint256",
          "name": "",
          "type": "uint256"
        }
      ],
      "name": "_pointDecreasers",
      "outputs": [
        {
          "internalType": "uint8",
          "name": "",
          "type": "uint8"
        }
      ],
      "stateMutability": "view",
      "type": "function"
    },
    {
      "inputs": [
        {
          "internalType": "uint256",
          "name": "",
          "type": "uint256"
        }
      ],
      "name": "_pointIncreasers",
      "outputs": [
        {
          "internalType": "uint8",
          "name": "",
          "type": "uint8"
        }
      ],
      "stateMutability": "view",
      "type": "function"
    },
    {
      "inputs": [],
      "name": "_totalSupply",
      "outputs": [
        {
          "internalType": "uint256",
          "name": "",
          "type": "uint256"
        }
      ],
      "stateMutability": "view",
      "type": "function"
    },
    {
      "inputs": [
        {
          "internalType": "uint256",
          "name": "",
          "type": "uint256"
        },
        {
          "internalType": "uint256",
          "name": "",
          "type": "uint256"
        }
      ],
      "name": "_transferAllowance",
      "outputs": [
        {
          "internalType": "uint256",
          "name": "",
          "type": "uint256"
        }
      ],
      "stateMutability": "view",
      "type": "function"
    },
    {
      "inputs": [
        {
          "internalType": "address",
          "name": "minter",
          "type": "address"
        }
      ],
      "name": "addMinter",
      "outputs": [],
      "stateMutability": "nonpayable",
      "type": "function"
    },
    {
      "inputs": [
        {
          "internalType": "uint256",
          "name": "owner",
          "type": "uint256"
        },
        {
          "internalType": "uint256",
          "name": "spender",
          "type": "uint256"
        }
      ],
      "name": "allowance",
      "outputs": [
        {
          "internalType": "uint256",
          "name": "",
          "type": "uint256"
        }
      ],
      "stateMutability": "view",
      "type": "function"
    },
    {
      "inputs": [
        {
          "internalType": "uint256",
          "name": "from",
          "type": "uint256"
        },
        {
          "internalType": "uint256",
          "name": "spender",
          "type": "uint256"
        },
        {
          "internalType": "uint256",
          "name": "amount",
          "type": "uint256"
        }
      ],
      "name": "approve",
      "outputs": [
        {
          "internalType": "bool",
          "name": "",
          "type": "bool"
        }
      ],
      "stateMutability": "nonpayable",
      "type": "function"
    },
    {
      "inputs": [
        {
          "internalType": "uint256",
          "name": "owner",
          "type": "uint256"
        }
      ],
      "name": "balanceOf",
      "outputs": [
        {
          "internalType": "uint256",
          "name": "",
          "type": "uint256"
        }
      ],
      "stateMutability": "view",
      "type": "function"
    },
    {
      "inputs": [
        {
          "internalType": "uint256",
          "name": "summoner",
          "type": "uint256"
        },
        {
          "internalType": "uint256",
          "name": "amount",
          "type": "uint256"
        }
      ],
      "name": "burn",
      "outputs": [],
      "stateMutability": "nonpayable",
      "type": "function"
    },
    {
      "inputs": [
        {
          "internalType": "address",
          "name": "",
          "type": "address"
        },
        {
          "internalType": "uint256",
          "name": "",
          "type": "uint256"
        }
      ],
      "name": "burnAllowance",
      "outputs": [
        {
          "internalType": "uint256",
          "name": "",
          "type": "uint256"
        }
      ],
      "stateMutability": "view",
      "type": "function"
    },
    {
      "inputs": [
        {
          "internalType": "uint256",
          "name": "summoner",
          "type": "uint256"
        },
        {
          "internalType": "address",
          "name": "burner",
          "type": "address"
        },
        {
          "internalType": "uint256",
          "name": "amount",
          "type": "uint256"
        }
      ],
      "name": "burnApprove",
      "outputs": [],
      "stateMutability": "nonpayable",
      "type": "function"
    },
    {
      "inputs": [
        {
          "internalType": "uint256",
          "name": "summoner",
          "type": "uint256"
        },
        {
          "internalType": "uint256",
          "name": "amount",
          "type": "uint256"
        }
      ],
      "name": "burnFrom",
      "outputs": [],
      "stateMutability": "nonpayable",
      "type": "function"
    },
    {
      "inputs": [],
      "name": "decimals",
      "outputs": [
        {
          "internalType": "uint8",
          "name": "",
          "type": "uint8"
        }
      ],
      "stateMutability": "view",
      "type": "function"
    },
    {
      "inputs": [],
      "name": "getAbilityDecreasers",
      "outputs": [
        {
          "internalType": "uint8[6]",
          "name": "",
          "type": "uint8[6]"
        }
      ],
      "stateMutability": "view",
      "type": "function"
    },
    {
      "inputs": [],
      "name": "getAbilityIncreasers",
      "outputs": [
        {
          "internalType": "uint8[6]",
          "name": "",
          "type": "uint8[6]"
        }
      ],
      "stateMutability": "view",
      "type": "function"
    },
    {
      "inputs": [],
      "name": "getPointDecreasers",
      "outputs": [
        {
          "internalType": "uint8[3]",
          "name": "",
          "type": "uint8[3]"
        }
      ],
      "stateMutability": "view",
      "type": "function"
    },
    {
      "inputs": [],
      "name": "getPointIncreasers",
      "outputs": [
        {
          "internalType": "uint8[3]",
          "name": "",
          "type": "uint8[3]"
        }
      ],
      "stateMutability": "view",
      "type": "function"
    },
    {
      "inputs": [],
      "name": "lock",
      "outputs": [],
      "stateMutability": "nonpayable",
      "type": "function"
    },
    {
      "inputs": [],
      "name": "locked",
      "outputs": [
        {
          "internalType": "bool",
          "name": "",
          "type": "bool"
        }
      ],
      "stateMutability": "view",
      "type": "function"
    },
    {
      "inputs": [
        {
          "internalType": "uint256",
          "name": "summoner",
          "type": "uint256"
        },
        {
          "internalType": "uint256",
          "name": "amount",
          "type": "uint256"
        }
      ],
      "name": "mint",
      "outputs": [],
      "stateMutability": "nonpayable",
      "type": "function"
    },
    {
      "inputs": [
        {
          "internalType": "address",
          "name": "",
          "type": "address"
        }
      ],
      "name": "minters",
      "outputs": [
        {
          "internalType": "bool",
          "name": "",
          "type": "bool"
        }
      ],
      "stateMutability": "view",
      "type": "function"
    },
    {
      "inputs": [],
      "name": "name",
      "outputs": [
        {
          "internalType": "string",
          "name": "",
          "type": "string"
        }
      ],
      "stateMutability": "view",
      "type": "function"
    },
    {
      "inputs": [],
      "name": "owner",
      "outputs": [
        {
          "internalType": "address",
          "name": "",
          "type": "address"
        }
      ],
      "stateMutability": "view",
      "type": "function"
    },
    {
      "inputs": [],
      "name": "pause",
      "outputs": [
        {
          "internalType": "bool",
          "name": "",
          "type": "bool"
        }
      ],
      "stateMutability": "nonpayable",
      "type": "function"
    },
    {
      "inputs": [],
      "name": "paused",
      "outputs": [
        {
          "internalType": "bool",
          "name": "",
          "type": "bool"
        }
      ],
      "stateMutability": "view",
      "type": "function"
    },
    {
      "inputs": [
        {
          "internalType": "address",
          "name": "",
          "type": "address"
        }
      ],
      "name": "pausers",
      "outputs": [
        {
          "internalType": "bool",
          "name": "",
          "type": "bool"
        }
      ],
      "stateMutability": "view",
      "type": "function"
    },
    {
      "inputs": [
        {
          "internalType": "address",
          "name": "minter",
          "type": "address"
        }
      ],
      "name": "removeMinter",
      "outputs": [],
      "stateMutability": "nonpayable",
      "type": "function"
    },
    {
      "inputs": [
        {
          "internalType": "uint8",
          "name": "str",
          "type": "uint8"
        },
        {
          "internalType": "uint8",
          "name": "dex",
          "type": "uint8"
        },
        {
          "internalType": "uint8",
          "name": "con",
          "type": "uint8"
        },
        {
          "internalType": "uint8",
          "name": "inte",
          "type": "uint8"
        },
        {
          "internalType": "uint8",
          "name": "wis",
          "type": "uint8"
        },
        {
          "internalType": "uint8",
          "name": "char",
          "type": "uint8"
        }
      ],
      "name": "setAbilityDecreasers",
      "outputs": [],
      "stateMutability": "nonpayable",
      "type": "function"
    },
    {
      "inputs": [
        {
          "internalType": "uint8",
          "name": "str",
          "type": "uint8"
        },
        {
          "internalType": "uint8",
          "name": "dex",
          "type": "uint8"
        },
        {
          "internalType": "uint8",
          "name": "con",
          "type": "uint8"
        },
        {
          "internalType": "uint8",
          "name": "inte",
          "type": "uint8"
        },
        {
          "internalType": "uint8",
          "name": "wis",
          "type": "uint8"
        },
        {
          "internalType": "uint8",
          "name": "char",
          "type": "uint8"
        }
      ],
      "name": "setAbilityIncreasers",
      "outputs": [],
      "stateMutability": "nonpayable",
      "type": "function"
    },
    {
      "inputs": [
        {
          "internalType": "address",
          "name": "_owner",
          "type": "address"
        }
      ],
      "name": "setOwner",
      "outputs": [
        {
          "internalType": "bool",
          "name": "",
          "type": "bool"
        }
      ],
      "stateMutability": "nonpayable",
      "type": "function"
    },
    {
      "inputs": [
        {
          "internalType": "uint8",
          "name": "hp",
          "type": "uint8"
        },
        {
          "internalType": "uint8",
          "name": "mp",
          "type": "uint8"
        },
        {
          "internalType": "uint8",
          "name": "stamina",
          "type": "uint8"
        }
      ],
      "name": "setPointDecreasers",
      "outputs": [],
      "stateMutability": "nonpayable",
      "type": "function"
    },
    {
      "inputs": [
        {
          "internalType": "uint8",
          "name": "hp",
          "type": "uint8"
        },
        {
          "internalType": "uint8",
          "name": "mp",
          "type": "uint8"
        },
        {
          "internalType": "uint8",
          "name": "stamina",
          "type": "uint8"
        }
      ],
      "name": "setPointIncreasers",
      "outputs": [],
      "stateMutability": "nonpayable",
      "type": "function"
    },
    {
      "inputs": [
        {
          "internalType": "uint8",
          "name": "_weight",
          "type": "uint8"
        }
      ],
      "name": "setWeight",
      "outputs": [],
      "stateMutability": "nonpayable",
      "type": "function"
    },
    {
      "inputs": [],
      "name": "symbol",
      "outputs": [
        {
          "internalType": "string",
          "name": "",
          "type": "string"
        }
      ],
      "stateMutability": "view",
      "type": "function"
    },
    {
      "inputs": [],
      "name": "totalSupply",
      "outputs": [
        {
          "internalType": "uint256",
          "name": "",
          "type": "uint256"
        }
      ],
      "stateMutability": "view",
      "type": "function"
    },
    {
      "inputs": [
        {
          "internalType": "uint256",
          "name": "from",
          "type": "uint256"
        },
        {
          "internalType": "uint256",
          "name": "to",
          "type": "uint256"
        },
        {
          "internalType": "uint256",
          "name": "amount",
          "type": "uint256"
        }
      ],
      "name": "transfer",
      "outputs": [
        {
          "internalType": "bool",
          "name": "",
          "type": "bool"
        }
      ],
      "stateMutability": "nonpayable",
      "type": "function"
    },
    {
      "inputs": [
        {
          "internalType": "uint256",
          "name": "executor",
          "type": "uint256"
        },
        {
          "internalType": "uint256",
          "name": "from",
          "type": "uint256"
        },
        {
          "internalType": "uint256",
          "name": "to",
          "type": "uint256"
        },
        {
          "internalType": "uint256",
          "name": "amount",
          "type": "uint256"
        }
      ],
      "name": "transferFrom",
      "outputs": [
        {
          "internalType": "bool",
          "name": "",
          "type": "bool"
        }
      ],
      "stateMutability": "nonpayable",
      "type": "function"
    },
    {
      "inputs": [],
      "name": "unpause",
      "outputs": [
        {
          "internalType": "bool",
          "name": "",
          "type": "bool"
        }
      ],
      "stateMutability": "nonpayable",
      "type": "function"
    },
    {
      "inputs": [],
      "name": "weight",
      "outputs": [
        {
          "internalType": "uint8",
          "name": "",
          "type": "uint8"
        }
      ],
      "stateMutability": "view",
      "type": "function"
    }
  ],
  "transactionHash": "0x5f84ea511a60d2326d2e2a73c2d525da7229b773f4cdef15d0780eb61aef9f8c",
  "args": [],
  "solcInputHash": "a1e61727f01215772bafeadfb01553ce",
  "bytecode": "0x608060405260006004556000600960006101000a81548160ff0219169083151502179055506040518060c00160405280600060ff168152602001600060ff168152602001600060ff168152602001600060ff168152602001600060ff168152602001600060ff16815250600a9060066200007b929190620002c7565b506040518060c00160405280600060ff168152602001600060ff168152602001600060ff168152602001600060ff168152602001600060ff168152602001600060ff16815250600b906006620000d3929190620002c7565b506040518060600160405280600060ff168152602001600060ff168152602001600060ff16815250600c9060036200010d92919062000368565b506040518060600160405280600060ff168152602001600060ff168152602001600060ff16815250600d9060036200014792919062000368565b503480156200015557600080fd5b506005336000806101000a81548173ffffffffffffffffffffffffffffffffffffffff021916908373ffffffffffffffffffffffffffffffffffffffff16021790555060008060146101000a81548160ff02191690831515021790555060018060003373ffffffffffffffffffffffffffffffffffffffff1673ffffffffffffffffffffffffffffffffffffffff16815260200190815260200160002060006101000a81548160ff02191690831515021790555080600e60006101000a81548160ff021916908360ff160217905550506040518060400160405280600f81526020017f5261726974794661726d732d4f696c0000000000000000000000000000000000815250600290805190602001906200027292919062000409565b506040518060400160405280600381526020017f4f494c000000000000000000000000000000000000000000000000000000000081525060039080519060200190620002c092919062000409565b506200051e565b826006601f01602090048101928215620003555791602002820160005b838211156200032457835183826101000a81548160ff021916908360ff1602179055509260200192600101602081600001049283019260010302620002e4565b8015620003535782816101000a81549060ff021916905560010160208160000104928301926001030262000324565b505b5090506200036491906200049a565b5090565b826003601f01602090048101928215620003f65791602002820160005b83821115620003c557835183826101000a81548160ff021916908360ff160217905550926020019260010160208160000104928301926001030262000385565b8015620003f45782816101000a81549060ff0219169055600101602081600001049283019260010302620003c5565b505b5090506200040591906200049a565b5090565b8280546200041790620004b9565b90600052602060002090601f0160209004810192826200043b576000855562000487565b82601f106200045657805160ff191683800117855562000487565b8280016001018555821562000487579182015b828111156200048657825182559160200191906001019062000469565b5b5090506200049691906200049a565b5090565b5b80821115620004b55760008160009055506001016200049b565b5090565b60006002820490506001821680620004d257607f821691505b60208210811415620004e957620004e8620004ef565b5b50919050565b7f4e487b7100000000000000000000000000000000000000000000000000000000600052602260045260246000fd5b61310c806200052e6000396000f3fe608060405234801561001057600080fd5b50600436106102695760003560e01c80638456cb5911610151578063b390c0ab116100c3578063cf30901211610087578063cf3090121461079a578063e0c331e1146107b8578063e8a2e827146107d4578063e99583a4146107f2578063f46eccc414610822578063f83d08ba1461085257610269565b8063b390c0ab146106d2578063b866c8a4146106ee578063c0d655bf1461071e578063c67257571461073a578063cca16fa81461076a57610269565b806393fd56781161011557806393fd56781461061057806395d89b411461062e578063983b2d561461064c5780639cc7f70814610668578063a1aab33f14610698578063af946adc146106b657610269565b80638456cb59146105585780638769fd41146105765780638856f779146105925780638da5cb5b146105c257806390dd2627146105e057610269565b80633eaaf86b116101ea57806366720804116101ae578063667208041461044a5780636a0d343a1461047a5780637392e963146104aa5780637ae4841f146104da5780637c83abe0146104f857806380f51c121461052857610269565b80633eaaf86b146103b65780633f4ba83a146103d457806345ba83e3146103f25780634a2edb081461040e5780635c975abb1461042c57610269565b80631b2ef1ca116102315780631b2ef1ca146103265780632c983a29146103425780633092afd51461035e578063313ce5671461037a57806332424aa31461039857610269565b806306fdde031461026e5780630c68efe31461028c5780630d99bd6c146102a857806313af4035146102d857806318160ddd14610308575b600080fd5b61027661085c565b6040516102839190612b17565b60405180910390f35b6102a660048036038101906102a191906125a3565b6108ee565b005b6102c260048036038101906102bd9190612509565b61098f565b6040516102cf9190612c59565b60405180910390f35b6102f260048036038101906102ed91906124af565b6109b4565b6040516102ff9190612afc565b60405180910390f35b610310610a11565b60405161031d9190612c59565b60405180910390f35b610340600480360381019061033b91906125f6565b610a1b565b005b61035c600480360381019061035791906126f0565b610b04565b005b610378600480360381019061037391906124af565b610bb2565b005b610382610c4c565b60405161038f9190612c74565b60405180910390f35b6103a0610c55565b6040516103ad9190612c74565b60405180910390f35b6103be610c5a565b6040516103cb9190612c59565b60405180910390f35b6103dc610c60565b6040516103e99190612afc565b60405180910390f35b61040c60048036038101906104079190612770565b610cfd565b005b610416610da3565b6040516104239190612ac6565b60405180910390f35b610434610e14565b6040516104419190612afc565b60405180910390f35b610464600480360381019061045f9190612576565b610e27565b6040516104719190612c74565b60405180910390f35b610494600480360381019061048f91906125f6565b610e51565b6040516104a19190612c59565b60405180910390f35b6104c460048036038101906104bf9190612576565b610e76565b6040516104d19190612c74565b60405180910390f35b6104e2610ea0565b6040516104ef9190612ae1565b60405180910390f35b610512600480360381019061050d9190612576565b610f11565b60405161051f9190612c74565b60405180910390f35b610542600480360381019061053d91906124af565b610f3b565b60405161054f9190612afc565b60405180910390f35b610560610f5b565b60405161056d9190612afc565b60405180910390f35b610590600480360381019061058b91906125f6565b610ff8565b005b6105ac60048036038101906105a79190612689565b611147565b6040516105b99190612afc565b60405180910390f35b6105ca611297565b6040516105d79190612a82565b60405180910390f35b6105fa60048036038101906105f59190612636565b6112bb565b6040516106079190612afc565b60405180910390f35b610618611363565b6040516106259190612ac6565b60405180910390f35b6106366113d4565b6040516106439190612b17565b60405180910390f35b610666600480360381019061066191906124af565b611466565b005b610682600480360381019061067d9190612576565b611500565b60405161068f9190612c59565b60405180910390f35b6106a061151d565b6040516106ad9190612c74565b60405180910390f35b6106d060048036038101906106cb919061271d565b611530565b005b6106ec60048036038101906106e791906125f6565b6115d0565b005b61070860048036038101906107039190612636565b61166e565b6040516107159190612afc565b60405180910390f35b6107386004803603810190610733919061271d565b611725565b005b610754600480360381019061074f9190612576565b6117c5565b6040516107619190612c74565b60405180910390f35b610784600480360381019061077f91906125f6565b6117ef565b6040516107919190612c59565b60405180910390f35b6107a261181e565b6040516107af9190612afc565b60405180910390f35b6107d260048036038101906107cd9190612770565b611831565b005b6107dc6118d7565b6040516107e99190612ae1565b60405180910390f35b61080c60048036038101906108079190612576565b611948565b6040516108199190612c59565b60405180910390f35b61083c600480360381019061083791906124af565b611960565b6040516108499190612afc565b60405180910390f35b61085a611980565b005b60606002805461086b90612e17565b80601f016020809104026020016040519081016040528092919081815260200182805461089790612e17565b80156108e45780601f106108b9576101008083540402835291602001916108e4565b820191906000526020600020905b8154815290600101906020018083116108c757829003601f168201915b5050505050905090565b6108f66119e5565b15610936576040517f08c379a000000000000000000000000000000000000000000000000000000000815260040161092d90612c19565b60405180910390fd5b61093f83611a03565b61097e576040517f08c379a000000000000000000000000000000000000000000000000000000000815260040161097590612bb9565b60405180910390fd5b610989838383611ad7565b50505050565b6007602052816000526040600020602052806000526040600020600091509150505481565b60006109bf33611b88565b6109fe576040517f08c379a00000000000000000000000000000000000000000000000000000000081526004016109f590612bb9565b60405180910390fd5b610a0782611be0565b5060019050919050565b6000600454905090565b610a236119e5565b15610a63576040517f08c379a0000000000000000000000000000000000000000000000000000000008152600401610a5a90612c19565b60405180910390fd5b60011515600860003373ffffffffffffffffffffffffffffffffffffffff1673ffffffffffffffffffffffffffffffffffffffff16815260200190815260200160002060009054906101000a900460ff16151514610af6576040517f08c379a0000000000000000000000000000000000000000000000000000000008152600401610aed90612b99565b60405180910390fd5b610b008282611c2b565b5050565b610b0c611cab565b15610b4c576040517f08c379a0000000000000000000000000000000000000000000000000000000008152600401610b4390612b59565b60405180910390fd5b610b5533611b88565b610b94576040517f08c379a0000000000000000000000000000000000000000000000000000000008152600401610b8b90612bb9565b60405180910390fd5b80600e60006101000a81548160ff021916908360ff16021790555050565b60008054906101000a900473ffffffffffffffffffffffffffffffffffffffff1673ffffffffffffffffffffffffffffffffffffffff163373ffffffffffffffffffffffffffffffffffffffff1614610c40576040517f08c379a0000000000000000000000000000000000000000000000000000000008152600401610c3790612bb9565b60405180910390fd5b610c4981611cc9565b50565b60006012905090565b601281565b60045481565b6000600160003373ffffffffffffffffffffffffffffffffffffffff1673ffffffffffffffffffffffffffffffffffffffff16815260200190815260200160002060009054906101000a900460ff16610cee576040517f08c379a0000000000000000000000000000000000000000000000000000000008152600401610ce590612c39565b60405180910390fd5b610cf6611d24565b6001905090565b610d05611cab565b15610d45576040517f08c379a0000000000000000000000000000000000000000000000000000000008152600401610d3c90612b59565b60405180910390fd5b610d4e33611b88565b610d8d576040517f08c379a0000000000000000000000000000000000000000000000000000000008152600401610d8490612bb9565b60405180910390fd5b610d9b868686868686611d40565b505050505050565b610dab6122b1565b600d600380602002604051908101604052809291908260038015610e0a576020028201916000905b82829054906101000a900460ff1660ff1681526020019060010190602082600001049283019260010382029150808411610dd35790505b5050505050905090565b600060149054906101000a900460ff1681565b600b8160068110610e3757600080fd5b60209182820401919006915054906101000a900460ff1681565b6006602052816000526040600020602052806000526040600020600091509150505481565b600d8160038110610e8657600080fd5b60209182820401919006915054906101000a900460ff1681565b610ea86122d3565b600a600680602002604051908101604052809291908260068015610f07576020028201916000905b82829054906101000a900460ff1660ff1681526020019060010190602082600001049283019260010382029150808411610ed05790505b5050505050905090565b600c8160038110610f2157600080fd5b60209182820401919006915054906101000a900460ff1681565b60016020528060005260406000206000915054906101000a900460ff1681565b6000600160003373ffffffffffffffffffffffffffffffffffffffff1673ffffffffffffffffffffffffffffffffffffffff16815260200190815260200160002060009054906101000a900460ff16610fe9576040517f08c379a0000000000000000000000000000000000000000000000000000000008152600401610fe090612b79565b60405180910390fd5b610ff1611daa565b6001905090565b6110006119e5565b15611040576040517f08c379a000000000000000000000000000000000000000000000000000000000815260040161103790612c19565b60405180910390fd5b6000600760003373ffffffffffffffffffffffffffffffffffffffff1673ffffffffffffffffffffffffffffffffffffffff1681526020019081526020016000206000848152602001908152602001600020549050808211156110d8576040517f08c379a00000000000000000000000000000000000000000000000000000000081526004016110cf90612bd9565b60405180910390fd5b6110e28383611dc7565b81816110ee9190612d5b565b600760003373ffffffffffffffffffffffffffffffffffffffff1673ffffffffffffffffffffffffffffffffffffffff168152602001908152602001600020600085815260200190815260200160002081905550505050565b60006111516119e5565b15611191576040517f08c379a000000000000000000000000000000000000000000000000000000000815260040161118890612c19565b60405180910390fd5b61119a85611e9c565b6111d9576040517f08c379a00000000000000000000000000000000000000000000000000000000081526004016111d090612bb9565b60405180910390fd5b600085905060006006600087815260200190815260200160002060008381526020019081526020016000205490508084111561124a576040517f08c379a000000000000000000000000000000000000000000000000000000000815260040161124190612bf9565b60405180910390fd5b611255868686611ebe565b83816112619190612d5b565b60066000888152602001908152602001600020600084815260200190815260200160002081905550600192505050949350505050565b60008054906101000a900473ffffffffffffffffffffffffffffffffffffffff1681565b60006112c56119e5565b15611305576040517f08c379a00000000000000000000000000000000000000000000000000000000081526004016112fc90612c19565b60405180910390fd5b61130e84611e9c565b61134d576040517f08c379a000000000000000000000000000000000000000000000000000000000815260040161134490612bb9565b60405180910390fd5b611358848484611ebe565b600190509392505050565b61136b6122b1565b600c6003806020026040519081016040528092919082600380156113ca576020028201916000905b82829054906101000a900460ff1660ff16815260200190600101906020826000010492830192600103820291508084116113935790505b5050505050905090565b6060600380546113e390612e17565b80601f016020809104026020016040519081016040528092919081815260200182805461140f90612e17565b801561145c5780601f106114315761010080835404028352916020019161145c565b820191906000526020600020905b81548152906001019060200180831161143f57829003601f168201915b5050505050905090565b60008054906101000a900473ffffffffffffffffffffffffffffffffffffffff1673ffffffffffffffffffffffffffffffffffffffff163373ffffffffffffffffffffffffffffffffffffffff16146114f4576040517f08c379a00000000000000000000000000000000000000000000000000000000081526004016114eb90612bb9565b60405180910390fd5b6114fd81611f50565b50565b600060056000838152602001908152602001600020549050919050565b600e60009054906101000a900460ff1681565b611538611cab565b15611578576040517f08c379a000000000000000000000000000000000000000000000000000000000815260040161156f90612b59565b60405180910390fd5b61158133611b88565b6115c0576040517f08c379a00000000000000000000000000000000000000000000000000000000081526004016115b790612bb9565b60405180910390fd5b6115cb838383611fab565b505050565b6115d86119e5565b15611618576040517f08c379a000000000000000000000000000000000000000000000000000000000815260040161160f90612c19565b60405180910390fd5b61162182611a03565b611660576040517f08c379a000000000000000000000000000000000000000000000000000000000815260040161165790612bb9565b60405180910390fd5b61166a8282611dc7565b5050565b600061167984611e9c565b6116b8576040517f08c379a00000000000000000000000000000000000000000000000000000000081526004016116af90612bb9565b60405180910390fd5b816006600086815260200190815260200160002060008581526020019081526020016000208190555082847f08aaf4f7dd1adfa5bfe7067dea5b4ebd7e119d43257438a9189f37d7044eb09a846040516117129190612c59565b60405180910390a3600190509392505050565b61172d611cab565b1561176d576040517f08c379a000000000000000000000000000000000000000000000000000000000815260040161176490612b59565b60405180910390fd5b61177633611b88565b6117b5576040517f08c379a00000000000000000000000000000000000000000000000000000000081526004016117ac90612bb9565b60405180910390fd5b6117c0838383611fee565b505050565b600a81600681106117d557600080fd5b60209182820401919006915054906101000a900460ff1681565b600060066000848152602001908152602001600020600083815260200190815260200160002054905092915050565b600960009054906101000a900460ff1681565b611839611cab565b15611879576040517f08c379a000000000000000000000000000000000000000000000000000000000815260040161187090612b59565b60405180910390fd5b61188233611b88565b6118c1576040517f08c379a00000000000000000000000000000000000000000000000000000000081526004016118b890612bb9565b60405180910390fd5b6118cf868686868686612031565b505050505050565b6118df6122d3565b600b60068060200260405190810160405280929190826006801561193e576020028201916000905b82829054906101000a900460ff1660ff16815260200190600101906020826000010492830192600103820291508084116119075790505b5050505050905090565b60056020528060005260406000206000915090505481565b60086020528060005260406000206000915054906101000a900460ff1681565b61198933611b88565b6119c8576040517f08c379a00000000000000000000000000000000000000000000000000000000081526004016119bf90612bb9565b60405180910390fd5b6001600960006101000a81548160ff021916908315150217905550565b600060011515600060149054906101000a900460ff16151514905090565b60003373ffffffffffffffffffffffffffffffffffffffff1673ce761d788df608bd21bdd59d6f4b54b2e27f25bb73ffffffffffffffffffffffffffffffffffffffff16636352211e846040518263ffffffff1660e01b8152600401611a699190612c59565b60206040518083038186803b158015611a8157600080fd5b505afa158015611a95573d6000803e3d6000fd5b505050506040513d601f19601f82011682018060405250810190611ab991906124dc565b73ffffffffffffffffffffffffffffffffffffffff16149050919050565b600081600760008573ffffffffffffffffffffffffffffffffffffffff1673ffffffffffffffffffffffffffffffffffffffff1681526020019081526020016000206000868152602001908152602001600020819055508273ffffffffffffffffffffffffffffffffffffffff16847f25513def906e48f9e4a3b482e5ff228d356d8dda4744112c24c666c2d270fbeb84604051611b759190612c59565b60405180910390a3600190509392505050565b60008173ffffffffffffffffffffffffffffffffffffffff1660008054906101000a900473ffffffffffffffffffffffffffffffffffffffff1673ffffffffffffffffffffffffffffffffffffffff16149050919050565b6000816000806101000a81548173ffffffffffffffffffffffffffffffffffffffff021916908373ffffffffffffffffffffffffffffffffffffffff16021790555060019050919050565b8060046000828254611c3d9190612d05565b9250508190555080600560008481526020019081526020016000206000828254611c679190612d05565b9250508190555081827f070aa035fe0a09f0d9305bdc2d7a5d93cd4733db3b1ff869b4a7033c9501909a83604051611c9f9190612c59565b60405180910390a35050565b600060011515600960009054906101000a900460ff16151514905090565b6000600860008373ffffffffffffffffffffffffffffffffffffffff1673ffffffffffffffffffffffffffffffffffffffff16815260200190815260200160002060006101000a81548160ff02191690831515021790555050565b60008060146101000a81548160ff021916908315150217905550565b6040518060c001604052808760ff1660ff1681526020018660ff1660ff1681526020018560ff1660ff1681526020018460ff1660ff1681526020018360ff1660ff1681526020018260ff1660ff16815250600a906006611da19291906122f5565b50505050505050565b6001600060146101000a81548160ff021916908315150217905550565b60006005600084815260200190815260200160002054905081811015611e22576040517f08c379a0000000000000000000000000000000000000000000000000000000008152600401611e1990612b39565b60405180910390fd5b8160046000828254611e349190612d5b565b925050819055508181611e479190612d5b565b600560008581526020019081526020016000208190555082837f5af801e983cfd842de8b0797a2d6077db3ac2dea16571e0c7f5080291ca1b93484604051611e8f9190612c59565b60405180910390a3505050565b6000611ea78261209b565b80611eb75750611eb682611a03565b5b9050919050565b80600560008581526020019081526020016000206000828254611ee19190612d5b565b9250508190555080600560008481526020019081526020016000206000828254611f0b9190612d05565b9250508190555081837faf6151f5085accf2d57e1e7bf7601d3b3982e0de7e9a90f032f8554de9c104f683604051611f439190612c59565b60405180910390a3505050565b6001600860008373ffffffffffffffffffffffffffffffffffffffff1673ffffffffffffffffffffffffffffffffffffffff16815260200190815260200160002060006101000a81548160ff02191690831515021790555050565b60405180606001604052808460ff1660ff1681526020018360ff1660ff1681526020018260ff1660ff16815250600d906003611fe892919061238f565b50505050565b60405180606001604052808460ff1660ff1681526020018360ff1660ff1681526020018260ff1660ff16815250600c90600361202b92919061238f565b50505050565b6040518060c001604052808760ff1660ff1681526020018660ff1660ff1681526020018560ff1660ff1681526020018460ff1660ff1681526020018360ff1660ff1681526020018260ff1660ff16815250600b9060066120929291906122f5565b50505050505050565b60003373ffffffffffffffffffffffffffffffffffffffff1673ce761d788df608bd21bdd59d6f4b54b2e27f25bb73ffffffffffffffffffffffffffffffffffffffff1663081812fc846040518263ffffffff1660e01b81526004016121019190612c59565b60206040518083038186803b15801561211957600080fd5b505afa15801561212d573d6000803e3d6000fd5b505050506040513d601f19601f8201168201806040525081019061215191906124dc565b73ffffffffffffffffffffffffffffffffffffffff1614806122aa575073ce761d788df608bd21bdd59d6f4b54b2e27f25bb73ffffffffffffffffffffffffffffffffffffffff1663e985e9c573ce761d788df608bd21bdd59d6f4b54b2e27f25bb73ffffffffffffffffffffffffffffffffffffffff16636352211e856040518263ffffffff1660e01b81526004016121eb9190612c59565b60206040518083038186803b15801561220357600080fd5b505afa158015612217573d6000803e3d6000fd5b505050506040513d601f19601f8201168201806040525081019061223b91906124dc565b336040518363ffffffff1660e01b8152600401612259929190612a9d565b60206040518083038186803b15801561227157600080fd5b505afa158015612285573d6000803e3d6000fd5b505050506040513d601f19601f820116820180604052508101906122a99190612549565b5b9050919050565b6040518060600160405280600390602082028036833780820191505090505090565b6040518060c00160405280600690602082028036833780820191505090505090565b826006601f0160209004810192821561237e5791602002820160005b8382111561234f57835183826101000a81548160ff021916908360ff1602179055509260200192600101602081600001049283019260010302612311565b801561237c5782816101000a81549060ff021916905560010160208160000104928301926001030261234f565b505b50905061238b9190612429565b5090565b826003601f016020900481019282156124185791602002820160005b838211156123e957835183826101000a81548160ff021916908360ff16021790555092602001926001016020816000010492830192600103026123ab565b80156124165782816101000a81549060ff02191690556001016020816000010492830192600103026123e9565b505b5090506124259190612429565b5090565b5b8082111561244257600081600090555060010161242a565b5090565b6000813590506124558161307a565b92915050565b60008151905061246a8161307a565b92915050565b60008151905061247f81613091565b92915050565b600081359050612494816130a8565b92915050565b6000813590506124a9816130bf565b92915050565b6000602082840312156124c5576124c4612ea7565b5b60006124d384828501612446565b91505092915050565b6000602082840312156124f2576124f1612ea7565b5b60006125008482850161245b565b91505092915050565b600080604083850312156125205761251f612ea7565b5b600061252e85828601612446565b925050602061253f85828601612485565b9150509250929050565b60006020828403121561255f5761255e612ea7565b5b600061256d84828501612470565b91505092915050565b60006020828403121561258c5761258b612ea7565b5b600061259a84828501612485565b91505092915050565b6000806000606084860312156125bc576125bb612ea7565b5b60006125ca86828701612485565b93505060206125db86828701612446565b92505060406125ec86828701612485565b9150509250925092565b6000806040838503121561260d5761260c612ea7565b5b600061261b85828601612485565b925050602061262c85828601612485565b9150509250929050565b60008060006060848603121561264f5761264e612ea7565b5b600061265d86828701612485565b935050602061266e86828701612485565b925050604061267f86828701612485565b9150509250925092565b600080600080608085870312156126a3576126a2612ea7565b5b60006126b187828801612485565b94505060206126c287828801612485565b93505060406126d387828801612485565b92505060606126e487828801612485565b91505092959194509250565b60006020828403121561270657612705612ea7565b5b60006127148482850161249a565b91505092915050565b60008060006060848603121561273657612735612ea7565b5b60006127448682870161249a565b93505060206127558682870161249a565b92505060406127668682870161249a565b9150509250925092565b60008060008060008060c0878903121561278d5761278c612ea7565b5b600061279b89828a0161249a565b96505060206127ac89828a0161249a565b95505060406127bd89828a0161249a565b94505060606127ce89828a0161249a565b93505060806127df89828a0161249a565b92505060a06127f089828a0161249a565b9150509295509295509295565b60006128098383612a64565b60208301905092915050565b61281e81612d8f565b82525050565b61282d81612ca3565b6128378184612cde565b925061284282612c8f565b8060005b8381101561287357815161285a87826127fd565b965061286583612cc4565b925050600181019050612846565b505050505050565b61288481612cae565b61288e8184612ce9565b925061289982612c99565b8060005b838110156128ca5781516128b187826127fd565b96506128bc83612cd1565b92505060018101905061289d565b505050505050565b6128db81612da1565b82525050565b60006128ec82612cb9565b6128f68185612cf4565b9350612906818560208601612de4565b61290f81612eac565b840191505092915050565b6000612927600f83612cf4565b915061293282612ebd565b602082019050919050565b600061294a600f83612cf4565b915061295582612ee6565b602082019050919050565b600061296d600c83612cf4565b915061297882612f0f565b602082019050919050565b6000612990601283612cf4565b915061299b82612f38565b602082019050919050565b60006129b3600d83612cf4565b91506129be82612f61565b602082019050919050565b60006129d6602483612cf4565b91506129e182612f8a565b604082019050919050565b60006129f9602583612cf4565b9150612a0482612fd9565b604082019050919050565b6000612a1c601283612cf4565b9150612a2782613028565b602082019050919050565b6000612a3f600e83612cf4565b9150612a4a82613051565b602082019050919050565b612a5e81612dcd565b82525050565b612a6d81612dd7565b82525050565b612a7c81612dd7565b82525050565b6000602082019050612a976000830184612815565b92915050565b6000604082019050612ab26000830185612815565b612abf6020830184612815565b9392505050565b6000606082019050612adb6000830184612824565b92915050565b600060c082019050612af6600083018461287b565b92915050565b6000602082019050612b1160008301846128d2565b92915050565b60006020820190508181036000830152612b3181846128e1565b905092915050565b60006020820190508181036000830152612b528161291a565b9050919050565b60006020820190508181036000830152612b728161293d565b9050919050565b60006020820190508181036000830152612b9281612960565b9050919050565b60006020820190508181036000830152612bb281612983565b9050919050565b60006020820190508181036000830152612bd2816129a6565b9050919050565b60006020820190508181036000830152612bf2816129c9565b9050919050565b60006020820190508181036000830152612c12816129ec565b9050919050565b60006020820190508181036000830152612c3281612a0f565b9050919050565b60006020820190508181036000830152612c5281612a32565b9050919050565b6000602082019050612c6e6000830184612a55565b92915050565b6000602082019050612c896000830184612a73565b92915050565b6000819050919050565b6000819050919050565b600060039050919050565b600060069050919050565b600081519050919050565b6000602082019050919050565b6000602082019050919050565b600081905092915050565b600081905092915050565b600082825260208201905092915050565b6000612d1082612dcd565b9150612d1b83612dcd565b9250827fffffffffffffffffffffffffffffffffffffffffffffffffffffffffffffffff03821115612d5057612d4f612e49565b5b828201905092915050565b6000612d6682612dcd565b9150612d7183612dcd565b925082821015612d8457612d83612e49565b5b828203905092915050565b6000612d9a82612dad565b9050919050565b60008115159050919050565b600073ffffffffffffffffffffffffffffffffffffffff82169050919050565b6000819050919050565b600060ff82169050919050565b60005b83811015612e02578082015181840152602081019050612de7565b83811115612e11576000848401525b50505050565b60006002820490506001821680612e2f57607f821691505b60208210811415612e4357612e42612e78565b5b50919050565b7f4e487b7100000000000000000000000000000000000000000000000000000000600052601160045260246000fd5b7f4e487b7100000000000000000000000000000000000000000000000000000000600052602260045260246000fd5b600080fd5b6000601f19601f8301169050919050565b7f42616c616e636520746f6f206c6f770000000000000000000000000000000000600082015250565b7f5265736f75726365204c6f636b65640000000000000000000000000000000000600082015250565b7f50617573652064656e6965640000000000000000000000000000000000000000600082015250565b7f4d696e74204163636573732044656e6965640000000000000000000000000000600082015250565b7f4d757374206265206f776e657200000000000000000000000000000000000000600082015250565b7f526571756573746564204275726e2067726561746572207468616e206170707260008201527f6f76616c00000000000000000000000000000000000000000000000000000000602082015250565b7f5472616e7366657220616d6f756e742067726561746572207468616e2061707060008201527f726f76616c000000000000000000000000000000000000000000000000000000602082015250565b7f436f6e7472616374206973207061757365640000000000000000000000000000600082015250565b7f556e70617573652064656e696564000000000000000000000000000000000000600082015250565b61308381612d8f565b811461308e57600080fd5b50565b61309a81612da1565b81146130a557600080fd5b50565b6130b181612dcd565b81146130bc57600080fd5b50565b6130c881612dd7565b81146130d357600080fd5b5056fea2646970667358221220fbadd0b62c2a20a5dc726d4031f76ba8cdc1d089d0d9e4fbd0fa3db674a505c064736f6c63430008070033",
  "devdoc": {
    "kind": "dev",
    "methods": {},
    "version": 1
  },
  "userdoc": {
    "kind": "user",
    "methods": {},
    "version": 1
  },
  "storageLayout": {
    "storage": [
      {
        "astId": 277,
        "contract": "contracts/mill/Oil.sol:Oil",
        "label": "owner",
        "offset": 0,
        "slot": "0",
        "type": "t_address"
      },
      {
        "astId": 317,
        "contract": "contracts/mill/Oil.sol:Oil",
        "label": "paused",
        "offset": 20,
        "slot": "0",
        "type": "t_bool"
      },
      {
        "astId": 321,
        "contract": "contracts/mill/Oil.sol:Oil",
        "label": "pausers",
        "offset": 0,
        "slot": "1",
        "type": "t_mapping(t_address,t_bool)"
      },
      {
        "astId": 609,
        "contract": "contracts/mill/Oil.sol:Oil",
        "label": "_name",
        "offset": 0,
        "slot": "2",
        "type": "t_string_storage"
      },
      {
        "astId": 611,
        "contract": "contracts/mill/Oil.sol:Oil",
        "label": "_symbol",
        "offset": 0,
        "slot": "3",
        "type": "t_string_storage"
      },
      {
        "astId": 614,
        "contract": "contracts/mill/Oil.sol:Oil",
        "label": "_totalSupply",
        "offset": 0,
        "slot": "4",
        "type": "t_uint256"
      },
      {
        "astId": 621,
        "contract": "contracts/mill/Oil.sol:Oil",
        "label": "_balanceOf",
        "offset": 0,
        "slot": "5",
        "type": "t_mapping(t_uint256,t_uint256)"
      },
      {
        "astId": 627,
        "contract": "contracts/mill/Oil.sol:Oil",
        "label": "_transferAllowance",
        "offset": 0,
        "slot": "6",
        "type": "t_mapping(t_uint256,t_mapping(t_uint256,t_uint256))"
      },
      {
        "astId": 107,
        "contract": "contracts/mill/Oil.sol:Oil",
        "label": "burnAllowance",
        "offset": 0,
        "slot": "7",
        "type": "t_mapping(t_address,t_mapping(t_uint256,t_uint256))"
      },
      {
        "astId": 216,
        "contract": "contracts/mill/Oil.sol:Oil",
        "label": "minters",
        "offset": 0,
        "slot": "8",
        "type": "t_mapping(t_address,t_bool)"
      },
      {
        "astId": 196,
        "contract": "contracts/mill/Oil.sol:Oil",
        "label": "locked",
        "offset": 0,
        "slot": "9",
        "type": "t_bool"
      },
      {
        "astId": 12,
        "contract": "contracts/mill/Oil.sol:Oil",
        "label": "_abilityIncreasers",
        "offset": 0,
        "slot": "10",
        "type": "t_array(t_uint8)6_storage"
      },
      {
        "astId": 23,
        "contract": "contracts/mill/Oil.sol:Oil",
        "label": "_abilityDecreasers",
        "offset": 0,
        "slot": "11",
        "type": "t_array(t_uint8)6_storage"
      },
      {
        "astId": 443,
        "contract": "contracts/mill/Oil.sol:Oil",
        "label": "_pointIncreasers",
        "offset": 0,
        "slot": "12",
        "type": "t_array(t_uint8)3_storage"
      },
      {
        "astId": 451,
        "contract": "contracts/mill/Oil.sol:Oil",
        "label": "_pointDecreasers",
        "offset": 0,
        "slot": "13",
        "type": "t_array(t_uint8)3_storage"
      },
      {
        "astId": 1178,
        "contract": "contracts/mill/Oil.sol:Oil",
        "label": "weight",
        "offset": 0,
        "slot": "14",
        "type": "t_uint8"
      }
    ],
    "types": {
      "t_address": {
        "encoding": "inplace",
        "label": "address",
        "numberOfBytes": "20"
      },
      "t_array(t_uint8)3_storage": {
        "base": "t_uint8",
        "encoding": "inplace",
        "label": "uint8[3]",
        "numberOfBytes": "32"
      },
      "t_array(t_uint8)6_storage": {
        "base": "t_uint8",
        "encoding": "inplace",
        "label": "uint8[6]",
        "numberOfBytes": "32"
      },
      "t_bool": {
        "encoding": "inplace",
        "label": "bool",
        "numberOfBytes": "1"
      },
      "t_mapping(t_address,t_bool)": {
        "encoding": "mapping",
        "key": "t_address",
        "label": "mapping(address => bool)",
        "numberOfBytes": "32",
        "value": "t_bool"
      },
      "t_mapping(t_address,t_mapping(t_uint256,t_uint256))": {
        "encoding": "mapping",
        "key": "t_address",
        "label": "mapping(address => mapping(uint256 => uint256))",
        "numberOfBytes": "32",
        "value": "t_mapping(t_uint256,t_uint256)"
      },
      "t_mapping(t_uint256,t_mapping(t_uint256,t_uint256))": {
        "encoding": "mapping",
        "key": "t_uint256",
        "label": "mapping(uint256 => mapping(uint256 => uint256))",
        "numberOfBytes": "32",
        "value": "t_mapping(t_uint256,t_uint256)"
      },
      "t_mapping(t_uint256,t_uint256)": {
        "encoding": "mapping",
        "key": "t_uint256",
        "label": "mapping(uint256 => uint256)",
        "numberOfBytes": "32",
        "value": "t_uint256"
      },
      "t_string_storage": {
        "encoding": "bytes",
        "label": "string",
        "numberOfBytes": "32"
      },
      "t_uint256": {
        "encoding": "inplace",
        "label": "uint256",
        "numberOfBytes": "32"
      },
      "t_uint8": {
        "encoding": "inplace",
        "label": "uint8",
        "numberOfBytes": "1"
      }
    }
  }
}