{
  "address": "0xfbC22278A96299D91d41C453234d97b4F5Eb9B2d",
  "abi": [
    {
      "inputs": [
        {
          "internalType": "contract IResource",
          "name": "_resource",
          "type": "address"
        },
        {
          "internalType": "uint256",
          "name": "_start",
          "type": "uint256"
        },
        {
          "internalType": "uint256",
          "name": "_end",
          "type": "uint256"
        }
      ],
      "stateMutability": "nonpayable",
      "type": "constructor"
    },
    {
      "anonymous": false,
      "inputs": [
        {
          "indexed": true,
          "internalType": "uint256",
          "name": "_summoner",
          "type": "uint256"
        },
        {
          "indexed": false,
          "internalType": "address",
          "name": "claimer",
          "type": "address"
        },
        {
          "indexed": false,
          "internalType": "uint256",
          "name": "amount",
          "type": "uint256"
        }
      ],
      "name": "Claim",
      "type": "event"
    },
    {
      "anonymous": false,
      "inputs": [
        {
          "indexed": true,
          "internalType": "uint256",
          "name": "_summoner",
          "type": "uint256"
        },
        {
          "indexed": false,
          "internalType": "uint256",
          "name": "_roll",
          "type": "uint256"
        },
        {
          "indexed": false,
          "internalType": "uint256",
          "name": "_amount",
          "type": "uint256"
        }
      ],
      "name": "Score",
      "type": "event"
    },
    {
      "anonymous": false,
      "inputs": [
        {
          "indexed": false,
          "internalType": "address",
          "name": "claimer",
          "type": "address"
        },
        {
          "indexed": false,
          "internalType": "uint256",
          "name": "amount",
          "type": "uint256"
        }
      ],
      "name": "Withdrawl",
      "type": "event"
    },
    {
      "inputs": [
        {
          "internalType": "uint256",
          "name": "_summoner",
          "type": "uint256"
        }
      ],
      "name": "claim",
      "outputs": [],
      "stateMutability": "payable",
      "type": "function"
    },
    {
      "inputs": [],
      "name": "endDate",
      "outputs": [
        {
          "internalType": "uint256",
          "name": "",
          "type": "uint256"
        }
      ],
      "stateMutability": "view",
      "type": "function"
    },
    {
      "inputs": [],
      "name": "getSummoners",
      "outputs": [
        {
          "internalType": "uint256[]",
          "name": "",
          "type": "uint256[]"
        }
      ],
      "stateMutability": "view",
      "type": "function"
    },
    {
      "inputs": [],
      "name": "owner",
      "outputs": [
        {
          "internalType": "address",
          "name": "",
          "type": "address"
        }
      ],
      "stateMutability": "view",
      "type": "function"
    },
    {
      "inputs": [],
      "name": "resource",
      "outputs": [
        {
          "internalType": "contract IResource",
          "name": "",
          "type": "address"
        }
      ],
      "stateMutability": "view",
      "type": "function"
    },
    {
      "inputs": [
        {
          "internalType": "uint256",
          "name": "_summoner",
          "type": "uint256"
        },
        {
          "internalType": "uint256",
          "name": "amount",
          "type": "uint256"
        }
      ],
      "name": "score",
      "outputs": [],
      "stateMutability": "nonpayable",
      "type": "function"
    },
    {
      "inputs": [
        {
          "internalType": "uint256",
          "name": "",
          "type": "uint256"
        }
      ],
      "name": "scores",
      "outputs": [
        {
          "internalType": "uint256",
          "name": "",
          "type": "uint256"
        }
      ],
      "stateMutability": "view",
      "type": "function"
    },
    {
      "inputs": [],
      "name": "startDate",
      "outputs": [
        {
          "internalType": "uint256",
          "name": "",
          "type": "uint256"
        }
      ],
      "stateMutability": "view",
      "type": "function"
    },
    {
      "inputs": [
        {
          "internalType": "uint256",
          "name": "",
          "type": "uint256"
        }
      ],
      "name": "summoners",
      "outputs": [
        {
          "internalType": "uint256",
          "name": "",
          "type": "uint256"
        }
      ],
      "stateMutability": "view",
      "type": "function"
    },
    {
      "inputs": [],
      "name": "withdrawl",
      "outputs": [],
      "stateMutability": "payable",
      "type": "function"
    },
    {
      "stateMutability": "payable",
      "type": "receive"
    }
  ],
  "transactionHash": "0xcaba682838db2a1cbeea913da13cca10779ccb26986d6d09899c5d0ef9a32f86",
  "args": [
    "0x1429859428C0aBc9C2C47C8Ee9FBaf82cFA0F20f",
    1635084121,
    1635688921
  ],
  "solcInputHash": "b35d71b0dce9f90775b108ba8e912e1c",
  "bytecode": "0x60806040523480156200001157600080fd5b506040516200142b3803806200142b833981810160405281019062000037919062000103565b82828282600560006101000a81548173ffffffffffffffffffffffffffffffffffffffff021916908373ffffffffffffffffffffffffffffffffffffffff1602179055508160018190555080600281905550336000806101000a81548173ffffffffffffffffffffffffffffffffffffffff021916908373ffffffffffffffffffffffffffffffffffffffff160217905550505050505050620001ea565b600081519050620000e681620001b6565b92915050565b600081519050620000fd81620001d0565b92915050565b6000806000606084860312156200011f576200011e620001b1565b5b60006200012f86828701620000d5565b93505060206200014286828701620000ec565b92505060406200015586828701620000ec565b9150509250925092565b60006200016c8262000187565b9050919050565b600062000180826200015f565b9050919050565b600073ffffffffffffffffffffffffffffffffffffffff82169050919050565b6000819050919050565b600080fd5b620001c18162000173565b8114620001cd57600080fd5b50565b620001db81620001a7565b8114620001e757600080fd5b50565b61123180620001fa6000396000f3fe6080604052600436106100955760003560e01c8063568d4f9911610059578063568d4f991461015a5780638da5cb5b14610185578063b445e7a1146101b0578063c24a0f8b146101d9578063d38b576d146102045761009c565b80630b97bc86146100a15780632ee691a3146100cc578063379607f5146101095780633a63d886146101255780633aedfb8b146101505761009c565b3661009c57005b600080fd5b3480156100ad57600080fd5b506100b6610241565b6040516100c39190610e52565b60405180910390f35b3480156100d857600080fd5b506100f360048036038101906100ee9190610ab0565b610247565b6040516101009190610e52565b60405180910390f35b610123600480360381019061011e9190610ab0565b61025f565b005b34801561013157600080fd5b5061013a61045e565b6040516101479190610d57565b60405180910390f35b610158610484565b005b34801561016657600080fd5b5061016f6105fe565b60405161017c9190610d35565b60405180910390f35b34801561019157600080fd5b5061019a610656565b6040516101a79190610cf1565b60405180910390f35b3480156101bc57600080fd5b506101d760048036038101906101d29190610b0a565b61067a565b005b3480156101e557600080fd5b506101ee610946565b6040516101fb9190610e52565b60405180910390f35b34801561021057600080fd5b5061022b60048036038101906102269190610ab0565b61094c565b6040516102389190610e52565b60405180910390f35b60015481565b60036020528060005260406000206000915090505481565b60025442116102a3576040517f08c379a000000000000000000000000000000000000000000000000000000000815260040161029a90610e12565b60405180910390fd5b6102ac81610970565b6102eb576040517f08c379a00000000000000000000000000000000000000000000000000000000081526004016102e290610d92565b60405180910390fd5b600080600480549050905060005b818110156103825782600360006004848154811061031a5761031961107a565b5b9060005260206000200154815260200190815260200160002054111561036f5760036000600483815481106103525761035161107a565b5b906000526020600020015481526020019081526020016000205492505b808061037a90611002565b9150506102f9565b50816003600085815260200190815260200160002054146103d8576040517f08c379a00000000000000000000000000000000000000000000000000000000081526004016103cf90610dd2565b60405180910390fd5b3373ffffffffffffffffffffffffffffffffffffffff166108fc479081150290604051600060405180830381858888f1935050505015801561041e573d6000803e3d6000fd5b50827f3ed1528b0fdc7c5207c1bf935e34a667e13656b9ed165260c522be0bc544f3033347604051610451929190610d0c565b60405180910390a2505050565b600560009054906101000a900473ffffffffffffffffffffffffffffffffffffffff1681565b3373ffffffffffffffffffffffffffffffffffffffff1660008054906101000a900473ffffffffffffffffffffffffffffffffffffffff1673ffffffffffffffffffffffffffffffffffffffff1614610512576040517f08c379a000000000000000000000000000000000000000000000000000000000815260040161050990610df2565b60405180910390fd5b60015442108061053d575062015180600761052d9190610f36565b60025461053a9190610ee0565b42115b61057c576040517f08c379a000000000000000000000000000000000000000000000000000000000815260040161057390610d72565b60405180910390fd5b3373ffffffffffffffffffffffffffffffffffffffff166108fc479081150290604051600060405180830381858888f193505050501580156105c2573d6000803e3d6000fd5b507f65ac0d8bb8cbc0e989ebd02ddc5161d7c499f7c21792e43fcf170314fe6bcc3f33476040516105f4929190610d0c565b60405180910390a1565b6060600480548060200260200160405190810160405280929190818152602001828054801561064c57602002820191906000526020600020905b815481526020019060010190808311610638575b5050505050905090565b60008054906101000a900473ffffffffffffffffffffffffffffffffffffffff1681565b60015442116106be576040517f08c379a00000000000000000000000000000000000000000000000000000000081526004016106b590610e32565b60405180910390fd5b6002544210610702576040517f08c379a00000000000000000000000000000000000000000000000000000000081526004016106f990610db2565b60405180910390fd5b61070b82610970565b61074a576040517f08c379a000000000000000000000000000000000000000000000000000000000815260040161074190610d92565b60405180910390fd5b600060036000848152602001908152602001600020549050600560009054906101000a900473ffffffffffffffffffffffffffffffffffffffff1673ffffffffffffffffffffffffffffffffffffffff16638769fd4184846040518363ffffffff1660e01b81526004016107bf929190610e6d565b600060405180830381600087803b1580156107d957600080fd5b505af11580156107ed573d6000803e3d6000fd5b5050505060018110156108245760048390806001815401808255809150506001900390600052602060002001600090919091909150555b60006001737426dbe5207c2b5dac57d8e55f0959fcd99661d473ffffffffffffffffffffffffffffffffffffffff1663438303bf866040518263ffffffff1660e01b81526004016108759190610e52565b60206040518083038186803b15801561088d57600080fd5b505afa1580156108a1573d6000803e3d6000fd5b505050506040513d601f19601f820116820180604052508101906108c59190610add565b6108cf9190610ee0565b905082816108dd9190610f36565b6003600086815260200190815260200160002060008282546108ff9190610ee0565b92505081905550837f977b8591878a497644c794f505417723d30b4828c110e7c1ded89fad068df25b8285604051610938929190610e6d565b60405180910390a250505050565b60025481565b6004818154811061095c57600080fd5b906000526020600020016000915090505481565b60003373ffffffffffffffffffffffffffffffffffffffff1673ce761d788df608bd21bdd59d6f4b54b2e27f25bb73ffffffffffffffffffffffffffffffffffffffff16636352211e846040518263ffffffff1660e01b81526004016109d69190610e52565b60206040518083038186803b1580156109ee57600080fd5b505afa158015610a02573d6000803e3d6000fd5b505050506040513d601f19601f82011682018060405250810190610a269190610a83565b73ffffffffffffffffffffffffffffffffffffffff16149050919050565b600081519050610a53816111cd565b92915050565b600081359050610a68816111e4565b92915050565b600081519050610a7d816111e4565b92915050565b600060208284031215610a9957610a986110a9565b5b6000610aa784828501610a44565b91505092915050565b600060208284031215610ac657610ac56110a9565b5b6000610ad484828501610a59565b91505092915050565b600060208284031215610af357610af26110a9565b5b6000610b0184828501610a6e565b91505092915050565b60008060408385031215610b2157610b206110a9565b5b6000610b2f85828601610a59565b9250506020610b4085828601610a59565b9150509250929050565b6000610b568383610cd3565b60208301905092915050565b610b6b81610f90565b82525050565b6000610b7c82610ea6565b610b868185610ebe565b9350610b9183610e96565b8060005b83811015610bc2578151610ba98882610b4a565b9750610bb483610eb1565b925050600181019050610b95565b5085935050505092915050565b610bd881610fcc565b82525050565b6000610beb601083610ecf565b9150610bf6826110ae565b602082019050919050565b6000610c0e600c83610ecf565b9150610c19826110d7565b602082019050919050565b6000610c31601283610ecf565b9150610c3c82611100565b602082019050919050565b6000610c54600e83610ecf565b9150610c5f82611129565b602082019050919050565b6000610c77600d83610ecf565b9150610c8282611152565b602082019050919050565b6000610c9a601483610ecf565b9150610ca58261117b565b602082019050919050565b6000610cbd601783610ecf565b9150610cc8826111a4565b602082019050919050565b610cdc81610fc2565b82525050565b610ceb81610fc2565b82525050565b6000602082019050610d066000830184610b62565b92915050565b6000604082019050610d216000830185610b62565b610d2e6020830184610ce2565b9392505050565b60006020820190508181036000830152610d4f8184610b71565b905092915050565b6000602082019050610d6c6000830184610bcf565b92915050565b60006020820190508181036000830152610d8b81610bde565b9050919050565b60006020820190508181036000830152610dab81610c01565b9050919050565b60006020820190508181036000830152610dcb81610c24565b9050919050565b60006020820190508181036000830152610deb81610c47565b9050919050565b60006020820190508181036000830152610e0b81610c6a565b9050919050565b60006020820190508181036000830152610e2b81610c8d565b9050919050565b60006020820190508181036000830152610e4b81610cb0565b9050919050565b6000602082019050610e676000830184610ce2565b92915050565b6000604082019050610e826000830185610ce2565b610e8f6020830184610ce2565b9392505050565b6000819050602082019050919050565b600081519050919050565b6000602082019050919050565b600082825260208201905092915050565b600082825260208201905092915050565b6000610eeb82610fc2565b9150610ef683610fc2565b9250827fffffffffffffffffffffffffffffffffffffffffffffffffffffffffffffffff03821115610f2b57610f2a61104b565b5b828201905092915050565b6000610f4182610fc2565b9150610f4c83610fc2565b9250817fffffffffffffffffffffffffffffffffffffffffffffffffffffffffffffffff0483118215151615610f8557610f8461104b565b5b828202905092915050565b6000610f9b82610fa2565b9050919050565b600073ffffffffffffffffffffffffffffffffffffffff82169050919050565b6000819050919050565b6000610fd782610fde565b9050919050565b6000610fe982610ff0565b9050919050565b6000610ffb82610fa2565b9050919050565b600061100d82610fc2565b91507fffffffffffffffffffffffffffffffffffffffffffffffffffffffffffffffff8214156110405761103f61104b565b5b600182019050919050565b7f4e487b7100000000000000000000000000000000000000000000000000000000600052601160045260246000fd5b7f4e487b7100000000000000000000000000000000000000000000000000000000600052603260045260246000fd5b600080fd5b7f43616e6e6f742077697468647261776c00000000000000000000000000000000600082015250565b7f4d757374206f776e204e46540000000000000000000000000000000000000000600082015250565b7f436f6d7065746974696f6e20636c6f7365640000000000000000000000000000600082015250565b7f4e6f74207468652077696e6e6572000000000000000000000000000000000000600082015250565b7f4d757374206265206f776e657200000000000000000000000000000000000000600082015250565b7f436f6d7065746974696f6e206e6f74206f766572000000000000000000000000600082015250565b7f436f6d7065746974696f6e206e6f742073746172746564000000000000000000600082015250565b6111d681610f90565b81146111e157600080fd5b50565b6111ed81610fc2565b81146111f857600080fd5b5056fea2646970667358221220cbc3ffa339be24b108bc713347060789644c31ede5a186b2671f255e000b071864736f6c63430008070033",
  "devdoc": {
    "kind": "dev",
    "methods": {},
    "version": 1
  },
  "userdoc": {
    "kind": "user",
    "methods": {},
    "version": 1
  },
  "storageLayout": {
    "storage": [
      {
        "astId": 27,
        "contract": "contracts/competitions/Subsidy.sol:Subsidy",
        "label": "owner",
        "offset": 0,
        "slot": "0",
        "type": "t_address"
      },
      {
        "astId": 44,
        "contract": "contracts/competitions/Subsidy.sol:Subsidy",
        "label": "startDate",
        "offset": 0,
        "slot": "1",
        "type": "t_uint256"
      },
      {
        "astId": 46,
        "contract": "contracts/competitions/Subsidy.sol:Subsidy",
        "label": "endDate",
        "offset": 0,
        "slot": "2",
        "type": "t_uint256"
      },
      {
        "astId": 50,
        "contract": "contracts/competitions/Subsidy.sol:Subsidy",
        "label": "scores",
        "offset": 0,
        "slot": "3",
        "type": "t_mapping(t_uint256,t_uint256)"
      },
      {
        "astId": 53,
        "contract": "contracts/competitions/Subsidy.sol:Subsidy",
        "label": "summoners",
        "offset": 0,
        "slot": "4",
        "type": "t_array(t_uint256)dyn_storage"
      },
      {
        "astId": 56,
        "contract": "contracts/competitions/Subsidy.sol:Subsidy",
        "label": "resource",
        "offset": 0,
        "slot": "5",
        "type": "t_contract(IResource)25"
      }
    ],
    "types": {
      "t_address": {
        "encoding": "inplace",
        "label": "address",
        "numberOfBytes": "20"
      },
      "t_array(t_uint256)dyn_storage": {
        "base": "t_uint256",
        "encoding": "dynamic_array",
        "label": "uint256[]",
        "numberOfBytes": "32"
      },
      "t_contract(IResource)25": {
        "encoding": "inplace",
        "label": "contract IResource",
        "numberOfBytes": "20"
      },
      "t_mapping(t_uint256,t_uint256)": {
        "encoding": "mapping",
        "key": "t_uint256",
        "label": "mapping(uint256 => uint256)",
        "numberOfBytes": "32",
        "value": "t_uint256"
      },
      "t_uint256": {
        "encoding": "inplace",
        "label": "uint256",
        "numberOfBytes": "32"
      }
    }
  }
}