{
  "address": "0xfbC22278A96299D91d41C453234d97b4F5Eb9B2d",
  "abi": [
    {
      "inputs": [
        {
          "internalType": "contract IResource",
          "name": "_resource",
          "type": "address"
        },
        {
          "internalType": "uint256",
          "name": "_start",
          "type": "uint256"
        },
        {
          "internalType": "uint256",
          "name": "_end",
          "type": "uint256"
        }
      ],
      "stateMutability": "nonpayable",
      "type": "constructor"
    },
    {
      "anonymous": false,
      "inputs": [
        {
          "indexed": true,
          "internalType": "uint256",
          "name": "_summoner",
          "type": "uint256"
        },
        {
          "indexed": false,
          "internalType": "address",
          "name": "claimer",
          "type": "address"
        },
        {
          "indexed": false,
          "internalType": "uint256",
          "name": "amount",
          "type": "uint256"
        }
      ],
      "name": "Claim",
      "type": "event"
    },
    {
      "anonymous": false,
      "inputs": [
        {
          "indexed": true,
          "internalType": "uint256",
          "name": "_summoner",
          "type": "uint256"
        },
        {
          "indexed": false,
          "internalType": "uint256",
          "name": "_roll",
          "type": "uint256"
        },
        {
          "indexed": false,
          "internalType": "uint256",
          "name": "_amount",
          "type": "uint256"
        }
      ],
      "name": "Score",
      "type": "event"
    },
    {
      "anonymous": false,
      "inputs": [
        {
          "indexed": false,
          "internalType": "address",
          "name": "claimer",
          "type": "address"
        },
        {
          "indexed": false,
          "internalType": "uint256",
          "name": "amount",
          "type": "uint256"
        }
      ],
      "name": "Withdrawl",
      "type": "event"
    },
    {
      "inputs": [
        {
          "internalType": "uint256",
          "name": "_summoner",
          "type": "uint256"
        }
      ],
      "name": "claim",
      "outputs": [],
      "stateMutability": "payable",
      "type": "function"
    },
    {
      "inputs": [],
      "name": "claimed",
      "outputs": [
        {
          "internalType": "bool",
          "name": "",
          "type": "bool"
        }
      ],
      "stateMutability": "view",
      "type": "function"
    },
    {
      "inputs": [],
      "name": "endDate",
      "outputs": [
        {
          "internalType": "uint256",
          "name": "",
          "type": "uint256"
        }
      ],
      "stateMutability": "view",
      "type": "function"
    },
    {
      "inputs": [],
      "name": "getSummoners",
      "outputs": [
        {
          "internalType": "uint256[]",
          "name": "",
          "type": "uint256[]"
        }
      ],
      "stateMutability": "view",
      "type": "function"
    },
    {
      "inputs": [],
      "name": "owner",
      "outputs": [
        {
          "internalType": "address",
          "name": "",
          "type": "address"
        }
      ],
      "stateMutability": "view",
      "type": "function"
    },
    {
      "inputs": [],
      "name": "resource",
      "outputs": [
        {
          "internalType": "contract IResource",
          "name": "",
          "type": "address"
        }
      ],
      "stateMutability": "view",
      "type": "function"
    },
    {
      "inputs": [
        {
          "internalType": "uint256",
          "name": "_summoner",
          "type": "uint256"
        },
        {
          "internalType": "uint256",
          "name": "amount",
          "type": "uint256"
        }
      ],
      "name": "score",
      "outputs": [],
      "stateMutability": "nonpayable",
      "type": "function"
    },
    {
      "inputs": [
        {
          "internalType": "uint256",
          "name": "",
          "type": "uint256"
        }
      ],
      "name": "scores",
      "outputs": [
        {
          "internalType": "uint256",
          "name": "",
          "type": "uint256"
        }
      ],
      "stateMutability": "view",
      "type": "function"
    },
    {
      "inputs": [],
      "name": "startDate",
      "outputs": [
        {
          "internalType": "uint256",
          "name": "",
          "type": "uint256"
        }
      ],
      "stateMutability": "view",
      "type": "function"
    },
    {
      "inputs": [
        {
          "internalType": "uint256",
          "name": "",
          "type": "uint256"
        }
      ],
      "name": "summoners",
      "outputs": [
        {
          "internalType": "uint256",
          "name": "",
          "type": "uint256"
        }
      ],
      "stateMutability": "view",
      "type": "function"
    },
    {
      "inputs": [],
      "name": "totalBurned",
      "outputs": [
        {
          "internalType": "uint256",
          "name": "",
          "type": "uint256"
        }
      ],
      "stateMutability": "view",
      "type": "function"
    },
    {
      "inputs": [],
      "name": "withdrawl",
      "outputs": [],
      "stateMutability": "payable",
      "type": "function"
    },
    {
      "stateMutability": "payable",
      "type": "receive"
    }
  ],
  "transactionHash": "0xb972bdf33c6f949c17f365c602301200c1dfa7eb4a47770af827d664657840ad",
  "args": [
    "0x1429859428C0aBc9C2C47C8Ee9FBaf82cFA0F20f",
    1635384834,
    1635989634
  ],
  "solcInputHash": "9aef454a2b8ead5a81e2923bea91ee15",
  "bytecode": "0x608060405260008060006101000a81548160ff0219169083151502179055503480156200002b57600080fd5b506040516200160a3803806200160a83398181016040528101906200005191906200011e565b82828282600660006101000a81548173ffffffffffffffffffffffffffffffffffffffff021916908373ffffffffffffffffffffffffffffffffffffffff160217905550816001819055508060028190555033600060016101000a81548173ffffffffffffffffffffffffffffffffffffffff021916908373ffffffffffffffffffffffffffffffffffffffff16021790555050505050505062000205565b6000815190506200010181620001d1565b92915050565b6000815190506200011881620001eb565b92915050565b6000806000606084860312156200013a5762000139620001cc565b5b60006200014a86828701620000f0565b93505060206200015d8682870162000107565b9250506040620001708682870162000107565b9150509250925092565b60006200018782620001a2565b9050919050565b60006200019b826200017a565b9050919050565b600073ffffffffffffffffffffffffffffffffffffffff82169050919050565b6000819050919050565b600080fd5b620001dc816200018e565b8114620001e857600080fd5b50565b620001f681620001c2565b81146200020257600080fd5b50565b6113f580620002156000396000f3fe6080604052600436106100ab5760003560e01c80638da5cb5b116100645780638da5cb5b1461019b578063b445e7a1146101c6578063c24a0f8b146101ef578063d38b576d1461021a578063d89135cd14610257578063e834a83414610282576100b2565b80630b97bc86146100b75780632ee691a3146100e2578063379607f51461011f5780633a63d8861461013b5780633aedfb8b14610166578063568d4f9914610170576100b2565b366100b257005b600080fd5b3480156100c357600080fd5b506100cc6102ad565b6040516100d99190610fe1565b60405180910390f35b3480156100ee57600080fd5b5061010960048036038101906101049190610bd2565b6102b3565b6040516101169190610fe1565b60405180910390f35b61013960048036038101906101349190610bd2565b6102cb565b005b34801561014757600080fd5b50610150610532565b60405161015d9190610ec6565b60405180910390f35b61016e610558565b005b34801561017c57600080fd5b506101856106ee565b6040516101929190610e89565b60405180910390f35b3480156101a757600080fd5b506101b0610746565b6040516101bd9190610e45565b60405180910390f35b3480156101d257600080fd5b506101ed60048036038101906101e89190610c2c565b61076c565b005b3480156101fb57600080fd5b50610204610a51565b6040516102119190610fe1565b60405180910390f35b34801561022657600080fd5b50610241600480360381019061023c9190610bd2565b610a57565b60405161024e9190610fe1565b60405180910390f35b34801561026357600080fd5b5061026c610a7b565b6040516102799190610fe1565b60405180910390f35b34801561028e57600080fd5b50610297610a81565b6040516102a49190610eab565b60405180910390f35b60015481565b60046020528060005260406000206000915090505481565b600254421161030f576040517f08c379a000000000000000000000000000000000000000000000000000000000815260040161030690610fa1565b60405180910390fd5b61031881610a92565b610357576040517f08c379a000000000000000000000000000000000000000000000000000000000815260040161034e90610f01565b60405180910390fd5b60008054906101000a900460ff16156103a5576040517f08c379a000000000000000000000000000000000000000000000000000000000815260040161039c90610f81565b60405180910390fd5b600080600580549050905060005b8181101561043c578260046000600584815481106103d4576103d3611215565b5b9060005260206000200154815260200190815260200160002054111561042957600460006005838154811061040c5761040b611215565b5b906000526020600020015481526020019081526020016000205492505b80806104349061119d565b9150506103b3565b5081600460008581526020019081526020016000205414610492576040517f08c379a000000000000000000000000000000000000000000000000000000000815260040161048990610f41565b60405180910390fd5b3373ffffffffffffffffffffffffffffffffffffffff166108fc479081150290604051600060405180830381858888f193505050501580156104d8573d6000803e3d6000fd5b5060016000806101000a81548160ff021916908315150217905550827f3ed1528b0fdc7c5207c1bf935e34a667e13656b9ed165260c522be0bc544f3033347604051610525929190610e60565b60405180910390a2505050565b600660009054906101000a900473ffffffffffffffffffffffffffffffffffffffff1681565b3373ffffffffffffffffffffffffffffffffffffffff16600060019054906101000a900473ffffffffffffffffffffffffffffffffffffffff1673ffffffffffffffffffffffffffffffffffffffff16146105e8576040517f08c379a00000000000000000000000000000000000000000000000000000000081526004016105df90610f61565b60405180910390fd5b600154421080610613575062015180600761060391906110c5565b600254610610919061106f565b42115b610652576040517f08c379a000000000000000000000000000000000000000000000000000000000815260040161064990610ee1565b60405180910390fd5b3373ffffffffffffffffffffffffffffffffffffffff166108fc479081150290604051600060405180830381858888f19350505050158015610698573d6000803e3d6000fd5b5060016000806101000a81548160ff0219169083151502179055507f65ac0d8bb8cbc0e989ebd02ddc5161d7c499f7c21792e43fcf170314fe6bcc3f33476040516106e4929190610e60565b60405180910390a1565b6060600580548060200260200160405190810160405280929190818152602001828054801561073c57602002820191906000526020600020905b815481526020019060010190808311610728575b5050505050905090565b600060019054906101000a900473ffffffffffffffffffffffffffffffffffffffff1681565b60015442116107b0576040517f08c379a00000000000000000000000000000000000000000000000000000000081526004016107a790610fc1565b60405180910390fd5b60025442106107f4576040517f08c379a00000000000000000000000000000000000000000000000000000000081526004016107eb90610f21565b60405180910390fd5b6107fd82610a92565b61083c576040517f08c379a000000000000000000000000000000000000000000000000000000000815260040161083390610f01565b60405180910390fd5b600060046000848152602001908152602001600020549050600660009054906101000a900473ffffffffffffffffffffffffffffffffffffffff1673ffffffffffffffffffffffffffffffffffffffff16638769fd4184846040518363ffffffff1660e01b81526004016108b1929190610ffc565b600060405180830381600087803b1580156108cb57600080fd5b505af11580156108df573d6000803e3d6000fd5b5050505060018110156109165760058390806001815401808255809150506001900390600052602060002001600090919091909150555b60006001737426dbe5207c2b5dac57d8e55f0959fcd99661d473ffffffffffffffffffffffffffffffffffffffff1663438303bf866040518263ffffffff1660e01b81526004016109679190610fe1565b60206040518083038186803b15801561097f57600080fd5b505afa158015610993573d6000803e3d6000fd5b505050506040513d601f19601f820116820180604052508101906109b79190610bff565b6109c1919061106f565b905082816109cf91906110c5565b6004600086815260200190815260200160002060008282546109f1919061106f565b925050819055508260036000828254610a0a919061106f565b92505081905550837f977b8591878a497644c794f505417723d30b4828c110e7c1ded89fad068df25b8285604051610a43929190610ffc565b60405180910390a250505050565b60025481565b60058181548110610a6757600080fd5b906000526020600020016000915090505481565b60035481565b60008054906101000a900460ff1681565b60003373ffffffffffffffffffffffffffffffffffffffff1673ce761d788df608bd21bdd59d6f4b54b2e27f25bb73ffffffffffffffffffffffffffffffffffffffff16636352211e846040518263ffffffff1660e01b8152600401610af89190610fe1565b60206040518083038186803b158015610b1057600080fd5b505afa158015610b24573d6000803e3d6000fd5b505050506040513d601f19601f82011682018060405250810190610b489190610ba5565b73ffffffffffffffffffffffffffffffffffffffff16149050919050565b600081519050610b7581611391565b92915050565b600081359050610b8a816113a8565b92915050565b600081519050610b9f816113a8565b92915050565b600060208284031215610bbb57610bba611244565b5b6000610bc984828501610b66565b91505092915050565b600060208284031215610be857610be7611244565b5b6000610bf684828501610b7b565b91505092915050565b600060208284031215610c1557610c14611244565b5b6000610c2384828501610b90565b91505092915050565b60008060408385031215610c4357610c42611244565b5b6000610c5185828601610b7b565b9250506020610c6285828601610b7b565b9150509250929050565b6000610c788383610e27565b60208301905092915050565b610c8d8161111f565b82525050565b6000610c9e82611035565b610ca8818561104d565b9350610cb383611025565b8060005b83811015610ce4578151610ccb8882610c6c565b9750610cd683611040565b925050600181019050610cb7565b5085935050505092915050565b610cfa81611131565b82525050565b610d0981611167565b82525050565b6000610d1c60108361105e565b9150610d2782611249565b602082019050919050565b6000610d3f600c8361105e565b9150610d4a82611272565b602082019050919050565b6000610d6260128361105e565b9150610d6d8261129b565b602082019050919050565b6000610d85600e8361105e565b9150610d90826112c4565b602082019050919050565b6000610da8600d8361105e565b9150610db3826112ed565b602082019050919050565b6000610dcb600f8361105e565b9150610dd682611316565b602082019050919050565b6000610dee60148361105e565b9150610df98261133f565b602082019050919050565b6000610e1160178361105e565b9150610e1c82611368565b602082019050919050565b610e308161115d565b82525050565b610e3f8161115d565b82525050565b6000602082019050610e5a6000830184610c84565b92915050565b6000604082019050610e756000830185610c84565b610e826020830184610e36565b9392505050565b60006020820190508181036000830152610ea38184610c93565b905092915050565b6000602082019050610ec06000830184610cf1565b92915050565b6000602082019050610edb6000830184610d00565b92915050565b60006020820190508181036000830152610efa81610d0f565b9050919050565b60006020820190508181036000830152610f1a81610d32565b9050919050565b60006020820190508181036000830152610f3a81610d55565b9050919050565b60006020820190508181036000830152610f5a81610d78565b9050919050565b60006020820190508181036000830152610f7a81610d9b565b9050919050565b60006020820190508181036000830152610f9a81610dbe565b9050919050565b60006020820190508181036000830152610fba81610de1565b9050919050565b60006020820190508181036000830152610fda81610e04565b9050919050565b6000602082019050610ff66000830184610e36565b92915050565b60006040820190506110116000830185610e36565b61101e6020830184610e36565b9392505050565b6000819050602082019050919050565b600081519050919050565b6000602082019050919050565b600082825260208201905092915050565b600082825260208201905092915050565b600061107a8261115d565b91506110858361115d565b9250827fffffffffffffffffffffffffffffffffffffffffffffffffffffffffffffffff038211156110ba576110b96111e6565b5b828201905092915050565b60006110d08261115d565b91506110db8361115d565b9250817fffffffffffffffffffffffffffffffffffffffffffffffffffffffffffffffff0483118215151615611114576111136111e6565b5b828202905092915050565b600061112a8261113d565b9050919050565b60008115159050919050565b600073ffffffffffffffffffffffffffffffffffffffff82169050919050565b6000819050919050565b600061117282611179565b9050919050565b60006111848261118b565b9050919050565b60006111968261113d565b9050919050565b60006111a88261115d565b91507fffffffffffffffffffffffffffffffffffffffffffffffffffffffffffffffff8214156111db576111da6111e6565b5b600182019050919050565b7f4e487b7100000000000000000000000000000000000000000000000000000000600052601160045260246000fd5b7f4e487b7100000000000000000000000000000000000000000000000000000000600052603260045260246000fd5b600080fd5b7f43616e6e6f742077697468647261776c00000000000000000000000000000000600082015250565b7f4d757374206f776e204e46540000000000000000000000000000000000000000600082015250565b7f436f6d7065746974696f6e20636c6f7365640000000000000000000000000000600082015250565b7f4e6f74207468652077696e6e6572000000000000000000000000000000000000600082015250565b7f4d757374206265206f776e657200000000000000000000000000000000000000600082015250565b7f416c726561647920436c61696d65640000000000000000000000000000000000600082015250565b7f436f6d7065746974696f6e206e6f74206f766572000000000000000000000000600082015250565b7f436f6d7065746974696f6e206e6f742073746172746564000000000000000000600082015250565b61139a8161111f565b81146113a557600080fd5b50565b6113b18161115d565b81146113bc57600080fd5b5056fea2646970667358221220e554fa52e70c66b17555978b01ff31f6dd12516a3e97bf6cfa7129b94470eede64736f6c63430008070033",
  "devdoc": {
    "kind": "dev",
    "methods": {},
    "version": 1
  },
  "userdoc": {
    "kind": "user",
    "methods": {},
    "version": 1
  },
  "storageLayout": {
    "storage": [
      {
        "astId": 28,
        "contract": "contracts/competitions/Subsidy.sol:Subsidy",
        "label": "claimed",
        "offset": 0,
        "slot": "0",
        "type": "t_bool"
      },
      {
        "astId": 30,
        "contract": "contracts/competitions/Subsidy.sol:Subsidy",
        "label": "owner",
        "offset": 1,
        "slot": "0",
        "type": "t_address"
      },
      {
        "astId": 47,
        "contract": "contracts/competitions/Subsidy.sol:Subsidy",
        "label": "startDate",
        "offset": 0,
        "slot": "1",
        "type": "t_uint256"
      },
      {
        "astId": 49,
        "contract": "contracts/competitions/Subsidy.sol:Subsidy",
        "label": "endDate",
        "offset": 0,
        "slot": "2",
        "type": "t_uint256"
      },
      {
        "astId": 51,
        "contract": "contracts/competitions/Subsidy.sol:Subsidy",
        "label": "totalBurned",
        "offset": 0,
        "slot": "3",
        "type": "t_uint256"
      },
      {
        "astId": 55,
        "contract": "contracts/competitions/Subsidy.sol:Subsidy",
        "label": "scores",
        "offset": 0,
        "slot": "4",
        "type": "t_mapping(t_uint256,t_uint256)"
      },
      {
        "astId": 58,
        "contract": "contracts/competitions/Subsidy.sol:Subsidy",
        "label": "summoners",
        "offset": 0,
        "slot": "5",
        "type": "t_array(t_uint256)dyn_storage"
      },
      {
        "astId": 61,
        "contract": "contracts/competitions/Subsidy.sol:Subsidy",
        "label": "resource",
        "offset": 0,
        "slot": "6",
        "type": "t_contract(IResource)25"
      }
    ],
    "types": {
      "t_address": {
        "encoding": "inplace",
        "label": "address",
        "numberOfBytes": "20"
      },
      "t_array(t_uint256)dyn_storage": {
        "base": "t_uint256",
        "encoding": "dynamic_array",
        "label": "uint256[]",
        "numberOfBytes": "32"
      },
      "t_bool": {
        "encoding": "inplace",
        "label": "bool",
        "numberOfBytes": "1"
      },
      "t_contract(IResource)25": {
        "encoding": "inplace",
        "label": "contract IResource",
        "numberOfBytes": "20"
      },
      "t_mapping(t_uint256,t_uint256)": {
        "encoding": "mapping",
        "key": "t_uint256",
        "label": "mapping(uint256 => uint256)",
        "numberOfBytes": "32",
        "value": "t_uint256"
      },
      "t_uint256": {
        "encoding": "inplace",
        "label": "uint256",
        "numberOfBytes": "32"
      }
    }
  }
}