{
  "address": "0xdbC43Ba45381e02825b14322cDdd15eC4B3164E6",
  "abi": [
    {
      "inputs": [],
      "stateMutability": "nonpayable",
      "type": "constructor"
    },
    {
      "anonymous": false,
      "inputs": [
        {
          "indexed": true,
          "internalType": "uint256",
          "name": "from",
          "type": "uint256"
        },
        {
          "indexed": true,
          "internalType": "uint256",
          "name": "to",
          "type": "uint256"
        },
        {
          "indexed": false,
          "internalType": "uint256",
          "name": "amount",
          "type": "uint256"
        }
      ],
      "name": "Approval",
      "type": "event"
    },
    {
      "anonymous": false,
      "inputs": [
        {
          "indexed": true,
          "internalType": "uint256",
          "name": "from",
          "type": "uint256"
        },
        {
          "indexed": true,
          "internalType": "uint256",
          "name": "to",
          "type": "uint256"
        },
        {
          "indexed": false,
          "internalType": "uint256",
          "name": "amount",
          "type": "uint256"
        }
      ],
      "name": "Burn",
      "type": "event"
    },
    {
      "anonymous": false,
      "inputs": [
        {
          "indexed": true,
          "internalType": "uint256",
          "name": "from",
          "type": "uint256"
        },
        {
          "indexed": true,
          "internalType": "address",
          "name": "to",
          "type": "address"
        },
        {
          "indexed": false,
          "internalType": "uint256",
          "name": "amount",
          "type": "uint256"
        }
      ],
      "name": "BurnApproval",
      "type": "event"
    },
    {
      "anonymous": false,
      "inputs": [
        {
          "indexed": true,
          "internalType": "address",
          "name": "from",
          "type": "address"
        },
        {
          "indexed": true,
          "internalType": "uint256",
          "name": "to",
          "type": "uint256"
        },
        {
          "indexed": false,
          "internalType": "uint256",
          "name": "amount",
          "type": "uint256"
        }
      ],
      "name": "Mint",
      "type": "event"
    },
    {
      "anonymous": false,
      "inputs": [
        {
          "indexed": true,
          "internalType": "uint256",
          "name": "from",
          "type": "uint256"
        },
        {
          "indexed": true,
          "internalType": "uint256",
          "name": "to",
          "type": "uint256"
        },
        {
          "indexed": false,
          "internalType": "uint256",
          "name": "amount",
          "type": "uint256"
        }
      ],
      "name": "Transfer",
      "type": "event"
    },
    {
      "inputs": [
        {
          "internalType": "uint256",
          "name": "",
          "type": "uint256"
        }
      ],
      "name": "_balanceOf",
      "outputs": [
        {
          "internalType": "uint256",
          "name": "",
          "type": "uint256"
        }
      ],
      "stateMutability": "view",
      "type": "function"
    },
    {
      "inputs": [],
      "name": "_decimals",
      "outputs": [
        {
          "internalType": "uint8",
          "name": "",
          "type": "uint8"
        }
      ],
      "stateMutability": "view",
      "type": "function"
    },
    {
      "inputs": [],
      "name": "_totalSupply",
      "outputs": [
        {
          "internalType": "uint256",
          "name": "",
          "type": "uint256"
        }
      ],
      "stateMutability": "view",
      "type": "function"
    },
    {
      "inputs": [
        {
          "internalType": "uint256",
          "name": "",
          "type": "uint256"
        },
        {
          "internalType": "uint256",
          "name": "",
          "type": "uint256"
        }
      ],
      "name": "_transferAllowance",
      "outputs": [
        {
          "internalType": "uint256",
          "name": "",
          "type": "uint256"
        }
      ],
      "stateMutability": "view",
      "type": "function"
    },
    {
      "inputs": [
        {
          "internalType": "address",
          "name": "minter",
          "type": "address"
        }
      ],
      "name": "addMinter",
      "outputs": [],
      "stateMutability": "nonpayable",
      "type": "function"
    },
    {
      "inputs": [
        {
          "internalType": "uint256",
          "name": "owner",
          "type": "uint256"
        },
        {
          "internalType": "uint256",
          "name": "spender",
          "type": "uint256"
        }
      ],
      "name": "allowance",
      "outputs": [
        {
          "internalType": "uint256",
          "name": "",
          "type": "uint256"
        }
      ],
      "stateMutability": "view",
      "type": "function"
    },
    {
      "inputs": [
        {
          "internalType": "uint256",
          "name": "from",
          "type": "uint256"
        },
        {
          "internalType": "uint256",
          "name": "spender",
          "type": "uint256"
        },
        {
          "internalType": "uint256",
          "name": "amount",
          "type": "uint256"
        }
      ],
      "name": "approve",
      "outputs": [
        {
          "internalType": "bool",
          "name": "",
          "type": "bool"
        }
      ],
      "stateMutability": "nonpayable",
      "type": "function"
    },
    {
      "inputs": [],
      "name": "attributes",
      "outputs": [
        {
          "internalType": "bool",
          "name": "locked",
          "type": "bool"
        },
        {
          "internalType": "bool",
          "name": "paused",
          "type": "bool"
        },
        {
          "internalType": "uint8",
          "name": "weight",
          "type": "uint8"
        },
        {
          "internalType": "address",
          "name": "owner",
          "type": "address"
        }
      ],
      "stateMutability": "view",
      "type": "function"
    },
    {
      "inputs": [
        {
          "internalType": "uint256",
          "name": "owner",
          "type": "uint256"
        }
      ],
      "name": "balanceOf",
      "outputs": [
        {
          "internalType": "uint256",
          "name": "",
          "type": "uint256"
        }
      ],
      "stateMutability": "view",
      "type": "function"
    },
    {
      "inputs": [
        {
          "internalType": "uint256",
          "name": "summoner",
          "type": "uint256"
        },
        {
          "internalType": "uint256",
          "name": "amount",
          "type": "uint256"
        }
      ],
      "name": "burn",
      "outputs": [],
      "stateMutability": "nonpayable",
      "type": "function"
    },
    {
      "inputs": [
        {
          "internalType": "address",
          "name": "",
          "type": "address"
        },
        {
          "internalType": "uint256",
          "name": "",
          "type": "uint256"
        }
      ],
      "name": "burnAllowance",
      "outputs": [
        {
          "internalType": "uint256",
          "name": "",
          "type": "uint256"
        }
      ],
      "stateMutability": "view",
      "type": "function"
    },
    {
      "inputs": [
        {
          "internalType": "uint256",
          "name": "summoner",
          "type": "uint256"
        },
        {
          "internalType": "address",
          "name": "burner",
          "type": "address"
        },
        {
          "internalType": "uint256",
          "name": "amount",
          "type": "uint256"
        }
      ],
      "name": "burnApprove",
      "outputs": [],
      "stateMutability": "nonpayable",
      "type": "function"
    },
    {
      "inputs": [
        {
          "internalType": "uint256",
          "name": "summoner",
          "type": "uint256"
        },
        {
          "internalType": "uint256",
          "name": "amount",
          "type": "uint256"
        }
      ],
      "name": "burnFrom",
      "outputs": [],
      "stateMutability": "nonpayable",
      "type": "function"
    },
    {
      "inputs": [],
      "name": "decimals",
      "outputs": [
        {
          "internalType": "uint8",
          "name": "",
          "type": "uint8"
        }
      ],
      "stateMutability": "pure",
      "type": "function"
    },
    {
      "inputs": [],
      "name": "getAbilityDecreasers",
      "outputs": [
        {
          "internalType": "uint8[6]",
          "name": "",
          "type": "uint8[6]"
        }
      ],
      "stateMutability": "view",
      "type": "function"
    },
    {
      "inputs": [],
      "name": "getAbilityIncreasers",
      "outputs": [
        {
          "internalType": "uint8[6]",
          "name": "",
          "type": "uint8[6]"
        }
      ],
      "stateMutability": "view",
      "type": "function"
    },
    {
      "inputs": [],
      "name": "getOwner",
      "outputs": [
        {
          "internalType": "address",
          "name": "",
          "type": "address"
        }
      ],
      "stateMutability": "view",
      "type": "function"
    },
    {
      "inputs": [],
      "name": "getPointDecreasers",
      "outputs": [
        {
          "internalType": "uint8[3]",
          "name": "",
          "type": "uint8[3]"
        }
      ],
      "stateMutability": "view",
      "type": "function"
    },
    {
      "inputs": [],
      "name": "getPointIncreasers",
      "outputs": [
        {
          "internalType": "uint8[3]",
          "name": "",
          "type": "uint8[3]"
        }
      ],
      "stateMutability": "view",
      "type": "function"
    },
    {
      "inputs": [],
      "name": "getWeight",
      "outputs": [
        {
          "internalType": "uint8",
          "name": "",
          "type": "uint8"
        }
      ],
      "stateMutability": "view",
      "type": "function"
    },
    {
      "inputs": [],
      "name": "isLocked",
      "outputs": [
        {
          "internalType": "bool",
          "name": "",
          "type": "bool"
        }
      ],
      "stateMutability": "view",
      "type": "function"
    },
    {
      "inputs": [],
      "name": "isPaused",
      "outputs": [
        {
          "internalType": "bool",
          "name": "",
          "type": "bool"
        }
      ],
      "stateMutability": "view",
      "type": "function"
    },
    {
      "inputs": [],
      "name": "lock",
      "outputs": [],
      "stateMutability": "nonpayable",
      "type": "function"
    },
    {
      "inputs": [
        {
          "internalType": "uint256",
          "name": "summoner",
          "type": "uint256"
        },
        {
          "internalType": "uint256",
          "name": "amount",
          "type": "uint256"
        }
      ],
      "name": "mint",
      "outputs": [],
      "stateMutability": "nonpayable",
      "type": "function"
    },
    {
      "inputs": [
        {
          "internalType": "address",
          "name": "",
          "type": "address"
        }
      ],
      "name": "minters",
      "outputs": [
        {
          "internalType": "bool",
          "name": "",
          "type": "bool"
        }
      ],
      "stateMutability": "view",
      "type": "function"
    },
    {
      "inputs": [],
      "name": "name",
      "outputs": [
        {
          "internalType": "string",
          "name": "",
          "type": "string"
        }
      ],
      "stateMutability": "view",
      "type": "function"
    },
    {
      "inputs": [],
      "name": "pause",
      "outputs": [],
      "stateMutability": "nonpayable",
      "type": "function"
    },
    {
      "inputs": [
        {
          "internalType": "address",
          "name": "minter",
          "type": "address"
        }
      ],
      "name": "removeMinter",
      "outputs": [],
      "stateMutability": "nonpayable",
      "type": "function"
    },
    {
      "inputs": [
        {
          "internalType": "uint8",
          "name": "str",
          "type": "uint8"
        },
        {
          "internalType": "uint8",
          "name": "dex",
          "type": "uint8"
        },
        {
          "internalType": "uint8",
          "name": "con",
          "type": "uint8"
        },
        {
          "internalType": "uint8",
          "name": "inte",
          "type": "uint8"
        },
        {
          "internalType": "uint8",
          "name": "wis",
          "type": "uint8"
        },
        {
          "internalType": "uint8",
          "name": "char",
          "type": "uint8"
        }
      ],
      "name": "setAbilityDecreasers",
      "outputs": [],
      "stateMutability": "nonpayable",
      "type": "function"
    },
    {
      "inputs": [
        {
          "internalType": "uint8",
          "name": "str",
          "type": "uint8"
        },
        {
          "internalType": "uint8",
          "name": "dex",
          "type": "uint8"
        },
        {
          "internalType": "uint8",
          "name": "con",
          "type": "uint8"
        },
        {
          "internalType": "uint8",
          "name": "inte",
          "type": "uint8"
        },
        {
          "internalType": "uint8",
          "name": "wis",
          "type": "uint8"
        },
        {
          "internalType": "uint8",
          "name": "char",
          "type": "uint8"
        }
      ],
      "name": "setAbilityIncreasers",
      "outputs": [],
      "stateMutability": "nonpayable",
      "type": "function"
    },
    {
      "inputs": [
        {
          "internalType": "address",
          "name": "_owner",
          "type": "address"
        }
      ],
      "name": "setOwner",
      "outputs": [],
      "stateMutability": "nonpayable",
      "type": "function"
    },
    {
      "inputs": [
        {
          "internalType": "uint8",
          "name": "hp",
          "type": "uint8"
        },
        {
          "internalType": "uint8",
          "name": "mp",
          "type": "uint8"
        },
        {
          "internalType": "uint8",
          "name": "stamina",
          "type": "uint8"
        }
      ],
      "name": "setPointDecreasers",
      "outputs": [],
      "stateMutability": "nonpayable",
      "type": "function"
    },
    {
      "inputs": [
        {
          "internalType": "uint8",
          "name": "hp",
          "type": "uint8"
        },
        {
          "internalType": "uint8",
          "name": "mp",
          "type": "uint8"
        },
        {
          "internalType": "uint8",
          "name": "stamina",
          "type": "uint8"
        }
      ],
      "name": "setPointIncreasers",
      "outputs": [],
      "stateMutability": "nonpayable",
      "type": "function"
    },
    {
      "inputs": [
        {
          "internalType": "uint8",
          "name": "_weight",
          "type": "uint8"
        }
      ],
      "name": "setWeight",
      "outputs": [],
      "stateMutability": "nonpayable",
      "type": "function"
    },
    {
      "inputs": [],
      "name": "symbol",
      "outputs": [
        {
          "internalType": "string",
          "name": "",
          "type": "string"
        }
      ],
      "stateMutability": "view",
      "type": "function"
    },
    {
      "inputs": [],
      "name": "totalSupply",
      "outputs": [
        {
          "internalType": "uint256",
          "name": "",
          "type": "uint256"
        }
      ],
      "stateMutability": "view",
      "type": "function"
    },
    {
      "inputs": [
        {
          "internalType": "uint256",
          "name": "from",
          "type": "uint256"
        },
        {
          "internalType": "uint256",
          "name": "to",
          "type": "uint256"
        },
        {
          "internalType": "uint256",
          "name": "amount",
          "type": "uint256"
        }
      ],
      "name": "transfer",
      "outputs": [
        {
          "internalType": "bool",
          "name": "",
          "type": "bool"
        }
      ],
      "stateMutability": "nonpayable",
      "type": "function"
    },
    {
      "inputs": [
        {
          "internalType": "uint256",
          "name": "executor",
          "type": "uint256"
        },
        {
          "internalType": "uint256",
          "name": "from",
          "type": "uint256"
        },
        {
          "internalType": "uint256",
          "name": "to",
          "type": "uint256"
        },
        {
          "internalType": "uint256",
          "name": "amount",
          "type": "uint256"
        }
      ],
      "name": "transferFrom",
      "outputs": [
        {
          "internalType": "bool",
          "name": "",
          "type": "bool"
        }
      ],
      "stateMutability": "nonpayable",
      "type": "function"
    },
    {
      "inputs": [],
      "name": "unpause",
      "outputs": [],
      "stateMutability": "nonpayable",
      "type": "function"
    }
  ],
  "transactionHash": "0xa0c0a458c1d3c362dd9a9f92f203c6cfcd9f87be3c5790e45f785e01612374f0",
  "args": [],
  "solcInputHash": "0e30e78228d3eb9fc61099ed59ace291",
  "bytecode": "0x608060405273ce761d788df608bd21bdd59d6f4b54b2e27f25bb600860006101000a81548173ffffffffffffffffffffffffffffffffffffffff021916908373ffffffffffffffffffffffffffffffffffffffff1602179055503480156200006657600080fd5b5033600360000160036101000a81548173ffffffffffffffffffffffffffffffffffffffff021916908373ffffffffffffffffffffffffffffffffffffffff1602179055506000600360000160016101000a81548160ff0219169083151502179055506000600360000160006101000a81548160ff0219169083151502179055506040518060400160405280600681526020017f42616e616e6100000000000000000000000000000000000000000000000000008152506000908051906020019062000134929190620001e5565b506040518060400160405280600681526020017f42414e414e4100000000000000000000000000000000000000000000000000008152506001908051906020019062000182929190620001e5565b506007600360000160026101000a81548160ff021916908360ff1602179055506040518060600160405280600060ff168152602001600060ff168152602001600160ff168152506003600101906003620001de92919062000276565b506200039b565b828054620001f39062000336565b90600052602060002090601f01602090048101928262000217576000855562000263565b82601f106200023257805160ff191683800117855562000263565b8280016001018555821562000263579182015b828111156200026257825182559160200191906001019062000245565b5b50905062000272919062000317565b5090565b826003601f01602090048101928215620003045791602002820160005b83821115620002d357835183826101000a81548160ff021916908360ff160217905550926020019260010160208160000104928301926001030262000293565b8015620003025782816101000a81549060ff0219169055600101602081600001049283019260010302620002d3565b505b50905062000313919062000317565b5090565b5b808211156200033257600081600090555060010162000318565b5090565b600060028204905060018216806200034f57607f821691505b602082108114156200036657620003656200036c565b5b50919050565b7f4e487b7100000000000000000000000000000000000000000000000000000000600052602260045260246000fd5b612da980620003ab6000396000f3fe608060405234801561001057600080fd5b506004361061023d5760003560e01c8063893d20e81161013b578063b187bd26116100b8578063e0c331e11161007c578063e0c331e114610681578063e8a2e8271461069d578063e99583a4146106bb578063f46eccc4146106eb578063f83d08ba1461071b5761023d565b8063b187bd26146105cb578063b390c0ab146105e9578063b866c8a414610605578063c0d655bf14610635578063cca16fa8146106515761023d565b8063983b2d56116100ff578063983b2d56146105275780639cc7f70814610543578063a4e2d63414610573578063a9b4b78014610591578063af946adc146105af5761023d565b8063893d20e81461047c57806390dd26271461049a57806393e1ea41146104ca57806393fd5678146104eb57806395d89b41146105095761023d565b806332424aa3116101c95780636a0d343a1161018d5780636a0d343a146103d85780637ae4841f146104085780638456cb59146104265780638769fd41146104305780638856f7791461044c5761023d565b806332424aa3146103585780633eaaf86b146103765780633f4ba83a1461039457806345ba83e31461039e5780634a2edb08146103ba5761023d565b806318160ddd1161021057806318160ddd146102c85780631b2ef1ca146102e65780632c983a29146103025780633092afd51461031e578063313ce5671461033a5761023d565b806306fdde03146102425780630c68efe3146102605780630d99bd6c1461027c57806313af4035146102ac575b600080fd5b61024a610725565b60405161025791906128db565b60405180910390f35b61027a6004803603810190610275919061238b565b6107b7565b005b610296600480360381019061029191906122f1565b6108fb565b6040516102a391906129bd565b60405180910390f35b6102c660048036038101906102c19190612297565b610920565b005b6102d06109af565b6040516102dd91906129bd565b60405180910390f35b61030060048036038101906102fb91906123de565b6109b9565b005b61031c600480360381019061031791906124d8565b610b35565b005b61033860048036038101906103339190612297565b610be6565b005b610342610cd4565b60405161034f91906129d8565b60405180910390f35b610360610cdd565b60405161036d91906129d8565b60405180910390f35b61037e610ce2565b60405161038b91906129bd565b60405180910390f35b61039c610ce8565b005b6103b860048036038101906103b39190612558565b610d50565b005b6103c2610e4c565b6040516103cf9190612845565b60405180910390f35b6103f260048036038101906103ed91906123de565b610ec0565b6040516103ff91906129bd565b60405180910390f35b610410610ee5565b60405161041d9190612860565b60405180910390f35b61042e610f58565b005b61044a600480360381019061044591906123de565b610fc0565b005b61046660048036038101906104619190612471565b61118d565b604051610473919061287b565b60405180910390f35b6104846112e3565b6040516104919190612801565b60405180910390f35b6104b460048036038101906104af919061241e565b611310565b6040516104c1919061287b565b60405180910390f35b6104d26113c3565b6040516104e29493929190612896565b60405180910390f35b6104f3611428565b6040516105009190612845565b60405180910390f35b61051161149c565b60405161051e91906128db565b60405180910390f35b610541600480360381019061053c9190612297565b61152e565b005b61055d6004803603810190610558919061235e565b61161c565b60405161056a91906129bd565b60405180910390f35b61057b611639565b604051610588919061287b565b60405180910390f35b610599611653565b6040516105a691906129d8565b60405180910390f35b6105c960048036038101906105c49190612505565b61166d565b005b6105d3611743565b6040516105e0919061287b565b60405180910390f35b61060360048036038101906105fe91906123de565b61175d565b005b61061f600480360381019061061a919061241e565b611878565b60405161062c919061287b565b60405180910390f35b61064f600480360381019061064a9190612505565b61192f565b005b61066b600480360381019061066691906123de565b611a05565b60405161067891906129bd565b60405180910390f35b61069b60048036038101906106969190612558565b611a34565b005b6106a5611b31565b6040516106b29190612860565b60405180910390f35b6106d560048036038101906106d0919061235e565b611ba5565b6040516106e291906129bd565b60405180910390f35b61070560048036038101906107009190612297565b611bbd565b604051610712919061287b565b60405180910390f35b610723611bdd565b005b60606000805461073490612b7b565b80601f016020809104026020016040519081016040528092919081815260200182805461076090612b7b565b80156107ad5780601f10610782576101008083540402835291602001916107ad565b820191906000526020600020905b81548152906001019060200180831161079057829003601f168201915b5050505050905090565b600360000160019054906101000a900460ff161561080a576040517f08c379a00000000000000000000000000000000000000000000000000000000081526004016108019061299d565b60405180910390fd5b61081383611c45565b610852576040517f08c379a00000000000000000000000000000000000000000000000000000000081526004016108499061295d565b60405180910390fd5b80600c60008473ffffffffffffffffffffffffffffffffffffffff1673ffffffffffffffffffffffffffffffffffffffff1681526020019081526020016000206000858152602001908152602001600020819055508173ffffffffffffffffffffffffffffffffffffffff16837f25513def906e48f9e4a3b482e5ff228d356d8dda4744112c24c666c2d270fbeb836040516108ee91906129bd565b60405180910390a3505050565b600c602052816000526040600020602052806000526040600020600091509150505481565b61092933611d27565b610968576040517f08c379a000000000000000000000000000000000000000000000000000000000815260040161095f9061295d565b60405180910390fd5b80600360000160036101000a81548173ffffffffffffffffffffffffffffffffffffffff021916908373ffffffffffffffffffffffffffffffffffffffff16021790555050565b6000600254905090565b600360000160019054906101000a900460ff1615610a0c576040517f08c379a0000000000000000000000000000000000000000000000000000000008152600401610a039061299d565b60405180910390fd5b60011515600a60003373ffffffffffffffffffffffffffffffffffffffff1673ffffffffffffffffffffffffffffffffffffffff16815260200190815260200160002060009054906101000a900460ff16151514610a9f576040517f08c379a0000000000000000000000000000000000000000000000000000000008152600401610a969061293d565b60405180910390fd5b8060026000828254610ab19190612a69565b9250508190555080600960008481526020019081526020016000206000828254610adb9190612a69565b92505081905550813373ffffffffffffffffffffffffffffffffffffffff167f4c209b5fc8ad50758f13e2e1088ba56a560dff690a1c6fef26394f4c03821c4f83604051610b2991906129bd565b60405180910390a35050565b610b3d611d84565b15610b7d576040517f08c379a0000000000000000000000000000000000000000000000000000000008152600401610b74906128fd565b60405180910390fd5b610b8633611d27565b610bc5576040517f08c379a0000000000000000000000000000000000000000000000000000000008152600401610bbc9061295d565b60405180910390fd5b80600360000160026101000a81548160ff021916908360ff16021790555050565b600360000160039054906101000a900473ffffffffffffffffffffffffffffffffffffffff1673ffffffffffffffffffffffffffffffffffffffff163373ffffffffffffffffffffffffffffffffffffffff1614610c79576040517f08c379a0000000000000000000000000000000000000000000000000000000008152600401610c709061295d565b60405180910390fd5b6000600a60008373ffffffffffffffffffffffffffffffffffffffff1673ffffffffffffffffffffffffffffffffffffffff16815260200190815260200160002060006101000a81548160ff02191690831515021790555050565b60006012905090565b601281565b60025481565b610cf133611d27565b610d30576040517f08c379a0000000000000000000000000000000000000000000000000000000008152600401610d279061295d565b60405180910390fd5b6000600360000160016101000a81548160ff021916908315150217905550565b610d58611d84565b15610d98576040517f08c379a0000000000000000000000000000000000000000000000000000000008152600401610d8f906128fd565b60405180910390fd5b610da133611d27565b610de0576040517f08c379a0000000000000000000000000000000000000000000000000000000008152600401610dd79061295d565b60405180910390fd5b6040518060c001604052808760ff1660ff1681526020018660ff1660ff1681526020018560ff1660ff1681526020018460ff1660ff1681526020018360ff1660ff1681526020018260ff1660ff1681525060038001906006610e43929190612099565b50505050505050565b610e54612133565b6003600201600380602002604051908101604052809291908260038015610eb6576020028201916000905b82829054906101000a900460ff1660ff1681526020019060010190602082600001049283019260010382029150808411610e7f5790505b5050505050905090565b600b602052816000526040600020602052806000526040600020600091509150505481565b610eed612155565b60038001600680602002604051908101604052809291908260068015610f4e576020028201916000905b82829054906101000a900460ff1660ff1681526020019060010190602082600001049283019260010382029150808411610f175790505b5050505050905090565b610f6133611d27565b610fa0576040517f08c379a0000000000000000000000000000000000000000000000000000000008152600401610f979061295d565b60405180910390fd5b6001600360000160016101000a81548160ff021916908315150217905550565b600360000160019054906101000a900460ff1615611013576040517f08c379a000000000000000000000000000000000000000000000000000000000815260040161100a9061299d565b60405180910390fd5b600c60003373ffffffffffffffffffffffffffffffffffffffff1673ffffffffffffffffffffffffffffffffffffffff1681526020019081526020016000206000838152602001908152602001600020548111156110a6576040517f08c379a000000000000000000000000000000000000000000000000000000000815260040161109d9061291d565b60405180910390fd5b80600260008282546110b89190612abf565b92505081905550806009600084815260200190815260200160002060008282546110e29190612abf565b9250508190555080600c60003373ffffffffffffffffffffffffffffffffffffffff1673ffffffffffffffffffffffffffffffffffffffff168152602001908152602001600020600084815260200190815260200160002060008282546111499190612abf565b9250508190555081827f5af801e983cfd842de8b0797a2d6077db3ac2dea16571e0c7f5080291ca1b9348360405161118191906129bd565b60405180910390a35050565b6000600360000160019054906101000a900460ff16156111e2576040517f08c379a00000000000000000000000000000000000000000000000000000000081526004016111d99061299d565b60405180910390fd5b6111eb85611da5565b61122a576040517f08c379a00000000000000000000000000000000000000000000000000000000081526004016112219061295d565b60405180910390fd5b600b6000858152602001908152602001600020600086815260200190815260200160002054821115611291576040517f08c379a00000000000000000000000000000000000000000000000000000000081526004016112889061297d565b60405180910390fd5b61129c848484611dc7565b81600b6000868152602001908152602001600020600087815260200190815260200160002060008282546112d09190612abf565b9250508190555060019050949350505050565b6000600360000160039054906101000a900473ffffffffffffffffffffffffffffffffffffffff16905090565b6000600360000160019054906101000a900460ff1615611365576040517f08c379a000000000000000000000000000000000000000000000000000000000815260040161135c9061299d565b60405180910390fd5b61136e84611da5565b6113ad576040517f08c379a00000000000000000000000000000000000000000000000000000000081526004016113a49061295d565b60405180910390fd5b6113b8848484611dc7565b600190509392505050565b60038060000160009054906101000a900460ff16908060000160019054906101000a900460ff16908060000160029054906101000a900460ff16908060000160039054906101000a900473ffffffffffffffffffffffffffffffffffffffff16905084565b611430612133565b6003600101600380602002604051908101604052809291908260038015611492576020028201916000905b82829054906101000a900460ff1660ff168152602001906001019060208260000104928301926001038202915080841161145b5790505b5050505050905090565b6060600180546114ab90612b7b565b80601f01602080910402602001604051908101604052809291908181526020018280546114d790612b7b565b80156115245780601f106114f957610100808354040283529160200191611524565b820191906000526020600020905b81548152906001019060200180831161150757829003601f168201915b5050505050905090565b600360000160039054906101000a900473ffffffffffffffffffffffffffffffffffffffff1673ffffffffffffffffffffffffffffffffffffffff163373ffffffffffffffffffffffffffffffffffffffff16146115c1576040517f08c379a00000000000000000000000000000000000000000000000000000000081526004016115b89061295d565b60405180910390fd5b6001600a60008373ffffffffffffffffffffffffffffffffffffffff1673ffffffffffffffffffffffffffffffffffffffff16815260200190815260200160002060006101000a81548160ff02191690831515021790555050565b600060096000838152602001908152602001600020549050919050565b6000600360000160009054906101000a900460ff16905090565b6000600360000160029054906101000a900460ff16905090565b611675611d84565b156116b5576040517f08c379a00000000000000000000000000000000000000000000000000000000081526004016116ac906128fd565b60405180910390fd5b6116be33611d27565b6116fd576040517f08c379a00000000000000000000000000000000000000000000000000000000081526004016116f49061295d565b60405180910390fd5b60405180606001604052808460ff1660ff1681526020018360ff1660ff1681526020018260ff1660ff16815250600360020190600361173d929190612177565b50505050565b6000600360000160019054906101000a900460ff16905090565b600360000160019054906101000a900460ff16156117b0576040517f08c379a00000000000000000000000000000000000000000000000000000000081526004016117a79061299d565b60405180910390fd5b6117b982611c45565b6117f8576040517f08c379a00000000000000000000000000000000000000000000000000000000081526004016117ef9061295d565b60405180910390fd5b806002600082825461180a9190612abf565b92505081905550806009600084815260200190815260200160002060008282546118349190612abf565b9250508190555081827f5af801e983cfd842de8b0797a2d6077db3ac2dea16571e0c7f5080291ca1b9348360405161186c91906129bd565b60405180910390a35050565b600061188384611da5565b6118c2576040517f08c379a00000000000000000000000000000000000000000000000000000000081526004016118b99061295d565b60405180910390fd5b81600b600086815260200190815260200160002060008581526020019081526020016000208190555082847f08aaf4f7dd1adfa5bfe7067dea5b4ebd7e119d43257438a9189f37d7044eb09a8460405161191c91906129bd565b60405180910390a3600190509392505050565b611937611d84565b15611977576040517f08c379a000000000000000000000000000000000000000000000000000000000815260040161196e906128fd565b60405180910390fd5b61198033611d27565b6119bf576040517f08c379a00000000000000000000000000000000000000000000000000000000081526004016119b69061295d565b60405180910390fd5b60405180606001604052808460ff1660ff1681526020018360ff1660ff1681526020018260ff1660ff1681525060036001019060036119ff929190612177565b50505050565b6000600b6000848152602001908152602001600020600083815260200190815260200160002054905092915050565b611a3c611d84565b15611a7c576040517f08c379a0000000000000000000000000000000000000000000000000000000008152600401611a73906128fd565b60405180910390fd5b611a8533611d27565b611ac4576040517f08c379a0000000000000000000000000000000000000000000000000000000008152600401611abb9061295d565b60405180910390fd5b6040518060c001604052808760ff1660ff1681526020018660ff1660ff1681526020018560ff1660ff1681526020018460ff1660ff1681526020018360ff1660ff1681526020018260ff1660ff168152506003600401906006611b28929190612099565b50505050505050565b611b39612155565b6003600401600680602002604051908101604052809291908260068015611b9b576020028201916000905b82829054906101000a900460ff1660ff1681526020019060010190602082600001049283019260010382029150808411611b645790505b5050505050905090565b60096020528060005260406000206000915090505481565b600a6020528060005260406000206000915054906101000a900460ff1681565b611be633611d27565b611c25576040517f08c379a0000000000000000000000000000000000000000000000000000000008152600401611c1c9061295d565b60405180910390fd5b6001600360000160006101000a81548160ff021916908315150217905550565b60003373ffffffffffffffffffffffffffffffffffffffff16600860009054906101000a900473ffffffffffffffffffffffffffffffffffffffff1673ffffffffffffffffffffffffffffffffffffffff16636352211e846040518263ffffffff1660e01b8152600401611cb991906129bd565b60206040518083038186803b158015611cd157600080fd5b505afa158015611ce5573d6000803e3d6000fd5b505050506040513d601f19601f82011682018060405250810190611d0991906122c4565b73ffffffffffffffffffffffffffffffffffffffff16149050919050565b60008173ffffffffffffffffffffffffffffffffffffffff16600360000160039054906101000a900473ffffffffffffffffffffffffffffffffffffffff1673ffffffffffffffffffffffffffffffffffffffff16149050919050565b600060011515600360000160009054906101000a900460ff16151514905090565b6000611db082611e59565b80611dc05750611dbf82611c45565b5b9050919050565b80600960008581526020019081526020016000206000828254611dea9190612abf565b9250508190555080600960008481526020019081526020016000206000828254611e149190612a69565b9250508190555081837faf6151f5085accf2d57e1e7bf7601d3b3982e0de7e9a90f032f8554de9c104f683604051611e4c91906129bd565b60405180910390a3505050565b60003373ffffffffffffffffffffffffffffffffffffffff16600860009054906101000a900473ffffffffffffffffffffffffffffffffffffffff1673ffffffffffffffffffffffffffffffffffffffff1663081812fc846040518263ffffffff1660e01b8152600401611ecd91906129bd565b60206040518083038186803b158015611ee557600080fd5b505afa158015611ef9573d6000803e3d6000fd5b505050506040513d601f19601f82011682018060405250810190611f1d91906122c4565b73ffffffffffffffffffffffffffffffffffffffff1614806120925750600860009054906101000a900473ffffffffffffffffffffffffffffffffffffffff1673ffffffffffffffffffffffffffffffffffffffff1663e985e9c5600860009054906101000a900473ffffffffffffffffffffffffffffffffffffffff1673ffffffffffffffffffffffffffffffffffffffff16636352211e856040518263ffffffff1660e01b8152600401611fd391906129bd565b60206040518083038186803b158015611feb57600080fd5b505afa158015611fff573d6000803e3d6000fd5b505050506040513d601f19601f8201168201806040525081019061202391906122c4565b336040518363ffffffff1660e01b815260040161204192919061281c565b60206040518083038186803b15801561205957600080fd5b505afa15801561206d573d6000803e3d6000fd5b505050506040513d601f19601f820116820180604052508101906120919190612331565b5b9050919050565b826006601f016020900481019282156121225791602002820160005b838211156120f357835183826101000a81548160ff021916908360ff16021790555092602001926001016020816000010492830192600103026120b5565b80156121205782816101000a81549060ff02191690556001016020816000010492830192600103026120f3565b505b50905061212f9190612211565b5090565b6040518060600160405280600390602082028036833780820191505090505090565b6040518060c00160405280600690602082028036833780820191505090505090565b826003601f016020900481019282156122005791602002820160005b838211156121d157835183826101000a81548160ff021916908360ff1602179055509260200192600101602081600001049283019260010302612193565b80156121fe5782816101000a81549060ff02191690556001016020816000010492830192600103026121d1565b505b50905061220d9190612211565b5090565b5b8082111561222a576000816000905550600101612212565b5090565b60008135905061223d81612d17565b92915050565b60008151905061225281612d17565b92915050565b60008151905061226781612d2e565b92915050565b60008135905061227c81612d45565b92915050565b60008135905061229181612d5c565b92915050565b6000602082840312156122ad576122ac612c0b565b5b60006122bb8482850161222e565b91505092915050565b6000602082840312156122da576122d9612c0b565b5b60006122e884828501612243565b91505092915050565b6000806040838503121561230857612307612c0b565b5b60006123168582860161222e565b92505060206123278582860161226d565b9150509250929050565b60006020828403121561234757612346612c0b565b5b600061235584828501612258565b91505092915050565b60006020828403121561237457612373612c0b565b5b60006123828482850161226d565b91505092915050565b6000806000606084860312156123a4576123a3612c0b565b5b60006123b28682870161226d565b93505060206123c38682870161222e565b92505060406123d48682870161226d565b9150509250925092565b600080604083850312156123f5576123f4612c0b565b5b60006124038582860161226d565b92505060206124148582860161226d565b9150509250929050565b60008060006060848603121561243757612436612c0b565b5b60006124458682870161226d565b93505060206124568682870161226d565b92505060406124678682870161226d565b9150509250925092565b6000806000806080858703121561248b5761248a612c0b565b5b60006124998782880161226d565b94505060206124aa8782880161226d565b93505060406124bb8782880161226d565b92505060606124cc8782880161226d565b91505092959194509250565b6000602082840312156124ee576124ed612c0b565b5b60006124fc84828501612282565b91505092915050565b60008060006060848603121561251e5761251d612c0b565b5b600061252c86828701612282565b935050602061253d86828701612282565b925050604061254e86828701612282565b9150509250925092565b60008060008060008060c0878903121561257557612574612c0b565b5b600061258389828a01612282565b965050602061259489828a01612282565b95505060406125a589828a01612282565b94505060606125b689828a01612282565b93505060806125c789828a01612282565b92505060a06125d889828a01612282565b9150509295509295509295565b60006125f183836127e3565b60208301905092915050565b61260681612af3565b82525050565b61261581612a07565b61261f8184612a42565b925061262a826129f3565b8060005b8381101561265b57815161264287826125e5565b965061264d83612a28565b92505060018101905061262e565b505050505050565b61266c81612a12565b6126768184612a4d565b9250612681826129fd565b8060005b838110156126b257815161269987826125e5565b96506126a483612a35565b925050600181019050612685565b505050505050565b6126c381612b05565b82525050565b60006126d482612a1d565b6126de8185612a58565b93506126ee818560208601612b48565b6126f781612c10565b840191505092915050565b600061270f600f83612a58565b915061271a82612c21565b602082019050919050565b6000612732600e83612a58565b915061273d82612c4a565b602082019050919050565b6000612755601283612a58565b915061276082612c73565b602082019050919050565b6000612778600d83612a58565b915061278382612c9c565b602082019050919050565b600061279b601283612a58565b91506127a682612cc5565b602082019050919050565b60006127be601283612a58565b91506127c982612cee565b602082019050919050565b6127dd81612b31565b82525050565b6127ec81612b3b565b82525050565b6127fb81612b3b565b82525050565b600060208201905061281660008301846125fd565b92915050565b600060408201905061283160008301856125fd565b61283e60208301846125fd565b9392505050565b600060608201905061285a600083018461260c565b92915050565b600060c0820190506128756000830184612663565b92915050565b600060208201905061289060008301846126ba565b92915050565b60006080820190506128ab60008301876126ba565b6128b860208301866126ba565b6128c560408301856127f2565b6128d260608301846125fd565b95945050505050565b600060208201905081810360008301526128f581846126c9565b905092915050565b6000602082019050818103600083015261291681612702565b9050919050565b6000602082019050818103600083015261293681612725565b9050919050565b6000602082019050818103600083015261295681612748565b9050919050565b600060208201905081810360008301526129768161276b565b9050919050565b600060208201905081810360008301526129968161278e565b9050919050565b600060208201905081810360008301526129b6816127b1565b9050919050565b60006020820190506129d260008301846127d4565b92915050565b60006020820190506129ed60008301846127f2565b92915050565b6000819050919050565b6000819050919050565b600060039050919050565b600060069050919050565b600081519050919050565b6000602082019050919050565b6000602082019050919050565b600081905092915050565b600081905092915050565b600082825260208201905092915050565b6000612a7482612b31565b9150612a7f83612b31565b9250827fffffffffffffffffffffffffffffffffffffffffffffffffffffffffffffffff03821115612ab457612ab3612bad565b5b828201905092915050565b6000612aca82612b31565b9150612ad583612b31565b925082821015612ae857612ae7612bad565b5b828203905092915050565b6000612afe82612b11565b9050919050565b60008115159050919050565b600073ffffffffffffffffffffffffffffffffffffffff82169050919050565b6000819050919050565b600060ff82169050919050565b60005b83811015612b66578082015181840152602081019050612b4b565b83811115612b75576000848401525b50505050565b60006002820490506001821680612b9357607f821691505b60208210811415612ba757612ba6612bdc565b5b50919050565b7f4e487b7100000000000000000000000000000000000000000000000000000000600052601160045260246000fd5b7f4e487b7100000000000000000000000000000000000000000000000000000000600052602260045260246000fd5b600080fd5b6000601f19601f8301169050919050565b7f5265736f75726365204c6f636b65640000000000000000000000000000000000600082015250565b7f4275726e203e20417070726f7665000000000000000000000000000000000000600082015250565b7f4d696e74204163636573732044656e6965640000000000000000000000000000600082015250565b7f4d757374206265206f776e657200000000000000000000000000000000000000600082015250565b7f5472616e73666572203e20417070726f76650000000000000000000000000000600082015250565b7f436f6e7472616374206973207061757365640000000000000000000000000000600082015250565b612d2081612af3565b8114612d2b57600080fd5b50565b612d3781612b05565b8114612d4257600080fd5b50565b612d4e81612b31565b8114612d5957600080fd5b50565b612d6581612b3b565b8114612d7057600080fd5b5056fea2646970667358221220934b7939a31e6d24b54b1b00359d3895e749d35575206716a29e1442db81460064736f6c63430008070033",
  "devdoc": {
    "kind": "dev",
    "methods": {},
    "version": 1
  },
  "userdoc": {
    "kind": "user",
    "methods": {},
    "version": 1
  },
  "storageLayout": {
    "storage": [
      {
        "astId": 30,
        "contract": "contracts/farms/fruit/Bananna.sol:Banana",
        "label": "_name",
        "offset": 0,
        "slot": "0",
        "type": "t_string_storage"
      },
      {
        "astId": 32,
        "contract": "contracts/farms/fruit/Bananna.sol:Banana",
        "label": "_symbol",
        "offset": 0,
        "slot": "1",
        "type": "t_string_storage"
      },
      {
        "astId": 34,
        "contract": "contracts/farms/fruit/Bananna.sol:Banana",
        "label": "_totalSupply",
        "offset": 0,
        "slot": "2",
        "type": "t_uint256"
      },
      {
        "astId": 62,
        "contract": "contracts/farms/fruit/Bananna.sol:Banana",
        "label": "attributes",
        "offset": 0,
        "slot": "3",
        "type": "t_struct(ResourceAttributes)59_storage"
      },
      {
        "astId": 68,
        "contract": "contracts/farms/fruit/Bananna.sol:Banana",
        "label": "rarity",
        "offset": 0,
        "slot": "8",
        "type": "t_contract(IRarity)25"
      },
      {
        "astId": 72,
        "contract": "contracts/farms/fruit/Bananna.sol:Banana",
        "label": "_balanceOf",
        "offset": 0,
        "slot": "9",
        "type": "t_mapping(t_uint256,t_uint256)"
      },
      {
        "astId": 76,
        "contract": "contracts/farms/fruit/Bananna.sol:Banana",
        "label": "minters",
        "offset": 0,
        "slot": "10",
        "type": "t_mapping(t_address,t_bool)"
      },
      {
        "astId": 82,
        "contract": "contracts/farms/fruit/Bananna.sol:Banana",
        "label": "_transferAllowance",
        "offset": 0,
        "slot": "11",
        "type": "t_mapping(t_uint256,t_mapping(t_uint256,t_uint256))"
      },
      {
        "astId": 88,
        "contract": "contracts/farms/fruit/Bananna.sol:Banana",
        "label": "burnAllowance",
        "offset": 0,
        "slot": "12",
        "type": "t_mapping(t_address,t_mapping(t_uint256,t_uint256))"
      }
    ],
    "types": {
      "t_address": {
        "encoding": "inplace",
        "label": "address",
        "numberOfBytes": "20"
      },
      "t_array(t_uint8)3_storage": {
        "base": "t_uint8",
        "encoding": "inplace",
        "label": "uint8[3]",
        "numberOfBytes": "32"
      },
      "t_array(t_uint8)6_storage": {
        "base": "t_uint8",
        "encoding": "inplace",
        "label": "uint8[6]",
        "numberOfBytes": "32"
      },
      "t_bool": {
        "encoding": "inplace",
        "label": "bool",
        "numberOfBytes": "1"
      },
      "t_contract(IRarity)25": {
        "encoding": "inplace",
        "label": "contract IRarity",
        "numberOfBytes": "20"
      },
      "t_mapping(t_address,t_bool)": {
        "encoding": "mapping",
        "key": "t_address",
        "label": "mapping(address => bool)",
        "numberOfBytes": "32",
        "value": "t_bool"
      },
      "t_mapping(t_address,t_mapping(t_uint256,t_uint256))": {
        "encoding": "mapping",
        "key": "t_address",
        "label": "mapping(address => mapping(uint256 => uint256))",
        "numberOfBytes": "32",
        "value": "t_mapping(t_uint256,t_uint256)"
      },
      "t_mapping(t_uint256,t_mapping(t_uint256,t_uint256))": {
        "encoding": "mapping",
        "key": "t_uint256",
        "label": "mapping(uint256 => mapping(uint256 => uint256))",
        "numberOfBytes": "32",
        "value": "t_mapping(t_uint256,t_uint256)"
      },
      "t_mapping(t_uint256,t_uint256)": {
        "encoding": "mapping",
        "key": "t_uint256",
        "label": "mapping(uint256 => uint256)",
        "numberOfBytes": "32",
        "value": "t_uint256"
      },
      "t_string_storage": {
        "encoding": "bytes",
        "label": "string",
        "numberOfBytes": "32"
      },
      "t_struct(ResourceAttributes)59_storage": {
        "encoding": "inplace",
        "label": "struct Resource.ResourceAttributes",
        "members": [
          {
            "astId": 36,
            "contract": "contracts/farms/fruit/Bananna.sol:Banana",
            "label": "locked",
            "offset": 0,
            "slot": "0",
            "type": "t_bool"
          },
          {
            "astId": 38,
            "contract": "contracts/farms/fruit/Bananna.sol:Banana",
            "label": "paused",
            "offset": 1,
            "slot": "0",
            "type": "t_bool"
          },
          {
            "astId": 40,
            "contract": "contracts/farms/fruit/Bananna.sol:Banana",
            "label": "weight",
            "offset": 2,
            "slot": "0",
            "type": "t_uint8"
          },
          {
            "astId": 42,
            "contract": "contracts/farms/fruit/Bananna.sol:Banana",
            "label": "owner",
            "offset": 3,
            "slot": "0",
            "type": "t_address"
          },
          {
            "astId": 46,
            "contract": "contracts/farms/fruit/Bananna.sol:Banana",
            "label": "pointIncreasers",
            "offset": 0,
            "slot": "1",
            "type": "t_array(t_uint8)3_storage"
          },
          {
            "astId": 50,
            "contract": "contracts/farms/fruit/Bananna.sol:Banana",
            "label": "pointDecreasers",
            "offset": 0,
            "slot": "2",
            "type": "t_array(t_uint8)3_storage"
          },
          {
            "astId": 54,
            "contract": "contracts/farms/fruit/Bananna.sol:Banana",
            "label": "abilityIncreasers",
            "offset": 0,
            "slot": "3",
            "type": "t_array(t_uint8)6_storage"
          },
          {
            "astId": 58,
            "contract": "contracts/farms/fruit/Bananna.sol:Banana",
            "label": "abilityDecreasers",
            "offset": 0,
            "slot": "4",
            "type": "t_array(t_uint8)6_storage"
          }
        ],
        "numberOfBytes": "160"
      },
      "t_uint256": {
        "encoding": "inplace",
        "label": "uint256",
        "numberOfBytes": "32"
      },
      "t_uint8": {
        "encoding": "inplace",
        "label": "uint8",
        "numberOfBytes": "1"
      }
    }
  }
}