{
  "address": "0xcbEAF3BDe82155F56486Fb5a1072cb8baAf547cc",
  "abi": [
    {
      "inputs": [],
      "stateMutability": "nonpayable",
      "type": "constructor"
    },
    {
      "anonymous": false,
      "inputs": [
        {
          "indexed": true,
          "internalType": "uint256",
          "name": "from",
          "type": "uint256"
        },
        {
          "indexed": true,
          "internalType": "uint256",
          "name": "to",
          "type": "uint256"
        },
        {
          "indexed": false,
          "internalType": "uint256",
          "name": "amount",
          "type": "uint256"
        }
      ],
      "name": "Approval",
      "type": "event"
    },
    {
      "anonymous": false,
      "inputs": [
        {
          "indexed": true,
          "internalType": "uint256",
          "name": "from",
          "type": "uint256"
        },
        {
          "indexed": true,
          "internalType": "uint256",
          "name": "to",
          "type": "uint256"
        },
        {
          "indexed": false,
          "internalType": "uint256",
          "name": "amount",
          "type": "uint256"
        }
      ],
      "name": "Burn",
      "type": "event"
    },
    {
      "anonymous": false,
      "inputs": [
        {
          "indexed": true,
          "internalType": "uint256",
          "name": "from",
          "type": "uint256"
        },
        {
          "indexed": true,
          "internalType": "address",
          "name": "to",
          "type": "address"
        },
        {
          "indexed": false,
          "internalType": "uint256",
          "name": "amount",
          "type": "uint256"
        }
      ],
      "name": "BurnApproval",
      "type": "event"
    },
    {
      "anonymous": false,
      "inputs": [
        {
          "indexed": true,
          "internalType": "uint256",
          "name": "from",
          "type": "uint256"
        },
        {
          "indexed": true,
          "internalType": "uint256",
          "name": "to",
          "type": "uint256"
        },
        {
          "indexed": false,
          "internalType": "uint256",
          "name": "amount",
          "type": "uint256"
        }
      ],
      "name": "Mint",
      "type": "event"
    },
    {
      "anonymous": false,
      "inputs": [
        {
          "indexed": true,
          "internalType": "uint256",
          "name": "from",
          "type": "uint256"
        },
        {
          "indexed": true,
          "internalType": "uint256",
          "name": "to",
          "type": "uint256"
        },
        {
          "indexed": false,
          "internalType": "uint256",
          "name": "amount",
          "type": "uint256"
        }
      ],
      "name": "Transfer",
      "type": "event"
    },
    {
      "inputs": [
        {
          "internalType": "uint256",
          "name": "",
          "type": "uint256"
        }
      ],
      "name": "_balanceOf",
      "outputs": [
        {
          "internalType": "uint256",
          "name": "",
          "type": "uint256"
        }
      ],
      "stateMutability": "view",
      "type": "function"
    },
    {
      "inputs": [],
      "name": "_decimals",
      "outputs": [
        {
          "internalType": "uint8",
          "name": "",
          "type": "uint8"
        }
      ],
      "stateMutability": "view",
      "type": "function"
    },
    {
      "inputs": [],
      "name": "_totalSupply",
      "outputs": [
        {
          "internalType": "uint256",
          "name": "",
          "type": "uint256"
        }
      ],
      "stateMutability": "view",
      "type": "function"
    },
    {
      "inputs": [
        {
          "internalType": "uint256",
          "name": "",
          "type": "uint256"
        },
        {
          "internalType": "uint256",
          "name": "",
          "type": "uint256"
        }
      ],
      "name": "_transferAllowance",
      "outputs": [
        {
          "internalType": "uint256",
          "name": "",
          "type": "uint256"
        }
      ],
      "stateMutability": "view",
      "type": "function"
    },
    {
      "inputs": [
        {
          "internalType": "address",
          "name": "minter",
          "type": "address"
        }
      ],
      "name": "addMinter",
      "outputs": [],
      "stateMutability": "nonpayable",
      "type": "function"
    },
    {
      "inputs": [
        {
          "internalType": "uint256",
          "name": "owner",
          "type": "uint256"
        },
        {
          "internalType": "uint256",
          "name": "spender",
          "type": "uint256"
        }
      ],
      "name": "allowance",
      "outputs": [
        {
          "internalType": "uint256",
          "name": "",
          "type": "uint256"
        }
      ],
      "stateMutability": "view",
      "type": "function"
    },
    {
      "inputs": [
        {
          "internalType": "uint256",
          "name": "from",
          "type": "uint256"
        },
        {
          "internalType": "uint256",
          "name": "spender",
          "type": "uint256"
        },
        {
          "internalType": "uint256",
          "name": "amount",
          "type": "uint256"
        }
      ],
      "name": "approve",
      "outputs": [
        {
          "internalType": "bool",
          "name": "",
          "type": "bool"
        }
      ],
      "stateMutability": "nonpayable",
      "type": "function"
    },
    {
      "inputs": [
        {
          "internalType": "uint256",
          "name": "owner",
          "type": "uint256"
        }
      ],
      "name": "balanceOf",
      "outputs": [
        {
          "internalType": "uint256",
          "name": "",
          "type": "uint256"
        }
      ],
      "stateMutability": "view",
      "type": "function"
    },
    {
      "inputs": [
        {
          "internalType": "uint256",
          "name": "summoner",
          "type": "uint256"
        },
        {
          "internalType": "uint256",
          "name": "amount",
          "type": "uint256"
        }
      ],
      "name": "burn",
      "outputs": [],
      "stateMutability": "nonpayable",
      "type": "function"
    },
    {
      "inputs": [
        {
          "internalType": "address",
          "name": "",
          "type": "address"
        },
        {
          "internalType": "uint256",
          "name": "",
          "type": "uint256"
        }
      ],
      "name": "burnAllowance",
      "outputs": [
        {
          "internalType": "uint256",
          "name": "",
          "type": "uint256"
        }
      ],
      "stateMutability": "view",
      "type": "function"
    },
    {
      "inputs": [
        {
          "internalType": "uint256",
          "name": "summoner",
          "type": "uint256"
        },
        {
          "internalType": "address",
          "name": "burner",
          "type": "address"
        },
        {
          "internalType": "uint256",
          "name": "amount",
          "type": "uint256"
        }
      ],
      "name": "burnApprove",
      "outputs": [],
      "stateMutability": "nonpayable",
      "type": "function"
    },
    {
      "inputs": [
        {
          "internalType": "uint256",
          "name": "summoner",
          "type": "uint256"
        },
        {
          "internalType": "uint256",
          "name": "amount",
          "type": "uint256"
        }
      ],
      "name": "burnFrom",
      "outputs": [],
      "stateMutability": "nonpayable",
      "type": "function"
    },
    {
      "inputs": [],
      "name": "decimals",
      "outputs": [
        {
          "internalType": "uint8",
          "name": "",
          "type": "uint8"
        }
      ],
      "stateMutability": "view",
      "type": "function"
    },
    {
      "inputs": [
        {
          "internalType": "uint256",
          "name": "summoner",
          "type": "uint256"
        },
        {
          "internalType": "uint256",
          "name": "amount",
          "type": "uint256"
        }
      ],
      "name": "mint",
      "outputs": [],
      "stateMutability": "nonpayable",
      "type": "function"
    },
    {
      "inputs": [
        {
          "internalType": "address",
          "name": "",
          "type": "address"
        }
      ],
      "name": "minters",
      "outputs": [
        {
          "internalType": "bool",
          "name": "",
          "type": "bool"
        }
      ],
      "stateMutability": "view",
      "type": "function"
    },
    {
      "inputs": [],
      "name": "name",
      "outputs": [
        {
          "internalType": "string",
          "name": "",
          "type": "string"
        }
      ],
      "stateMutability": "view",
      "type": "function"
    },
    {
      "inputs": [],
      "name": "owner",
      "outputs": [
        {
          "internalType": "address",
          "name": "",
          "type": "address"
        }
      ],
      "stateMutability": "view",
      "type": "function"
    },
    {
      "inputs": [],
      "name": "pause",
      "outputs": [
        {
          "internalType": "bool",
          "name": "",
          "type": "bool"
        }
      ],
      "stateMutability": "nonpayable",
      "type": "function"
    },
    {
      "inputs": [],
      "name": "paused",
      "outputs": [
        {
          "internalType": "bool",
          "name": "",
          "type": "bool"
        }
      ],
      "stateMutability": "view",
      "type": "function"
    },
    {
      "inputs": [
        {
          "internalType": "address",
          "name": "",
          "type": "address"
        }
      ],
      "name": "pausers",
      "outputs": [
        {
          "internalType": "bool",
          "name": "",
          "type": "bool"
        }
      ],
      "stateMutability": "view",
      "type": "function"
    },
    {
      "inputs": [
        {
          "internalType": "address",
          "name": "minter",
          "type": "address"
        }
      ],
      "name": "removeMinter",
      "outputs": [],
      "stateMutability": "nonpayable",
      "type": "function"
    },
    {
      "inputs": [
        {
          "internalType": "address",
          "name": "_owner",
          "type": "address"
        }
      ],
      "name": "setOwner",
      "outputs": [
        {
          "internalType": "bool",
          "name": "",
          "type": "bool"
        }
      ],
      "stateMutability": "nonpayable",
      "type": "function"
    },
    {
      "inputs": [],
      "name": "symbol",
      "outputs": [
        {
          "internalType": "string",
          "name": "",
          "type": "string"
        }
      ],
      "stateMutability": "view",
      "type": "function"
    },
    {
      "inputs": [],
      "name": "totalSupply",
      "outputs": [
        {
          "internalType": "uint256",
          "name": "",
          "type": "uint256"
        }
      ],
      "stateMutability": "view",
      "type": "function"
    },
    {
      "inputs": [
        {
          "internalType": "uint256",
          "name": "from",
          "type": "uint256"
        },
        {
          "internalType": "uint256",
          "name": "to",
          "type": "uint256"
        },
        {
          "internalType": "uint256",
          "name": "amount",
          "type": "uint256"
        }
      ],
      "name": "transfer",
      "outputs": [
        {
          "internalType": "bool",
          "name": "",
          "type": "bool"
        }
      ],
      "stateMutability": "nonpayable",
      "type": "function"
    },
    {
      "inputs": [
        {
          "internalType": "uint256",
          "name": "executor",
          "type": "uint256"
        },
        {
          "internalType": "uint256",
          "name": "from",
          "type": "uint256"
        },
        {
          "internalType": "uint256",
          "name": "to",
          "type": "uint256"
        },
        {
          "internalType": "uint256",
          "name": "amount",
          "type": "uint256"
        }
      ],
      "name": "transferFrom",
      "outputs": [
        {
          "internalType": "bool",
          "name": "",
          "type": "bool"
        }
      ],
      "stateMutability": "nonpayable",
      "type": "function"
    },
    {
      "inputs": [],
      "name": "unpause",
      "outputs": [
        {
          "internalType": "bool",
          "name": "",
          "type": "bool"
        }
      ],
      "stateMutability": "nonpayable",
      "type": "function"
    }
  ],
  "transactionHash": "0x41d17f416f3163ba05c71795a98dc90f2e07eb9db6603c23e9590e09f5f53280",
  "args": [],
  "solcInputHash": "0646f8583f9c8fa3488c002332d9bd8c",
  "bytecode": "0x608060405260006004553480156200001657600080fd5b50336000806101000a81548173ffffffffffffffffffffffffffffffffffffffff021916908373ffffffffffffffffffffffffffffffffffffffff16021790555060008060146101000a81548160ff02191690831515021790555060018060003373ffffffffffffffffffffffffffffffffffffffff1673ffffffffffffffffffffffffffffffffffffffff16815260200190815260200160002060006101000a81548160ff0219169083151502179055506040518060400160405280601181526020017f5261726974794661726d732d4265616e7300000000000000000000000000000081525060029080519060200190620001159291906200016a565b506040518060400160405280600581526020017f4245414e5300000000000000000000000000000000000000000000000000000081525060039080519060200190620001639291906200016a565b506200027f565b82805462000178906200021a565b90600052602060002090601f0160209004810192826200019c5760008555620001e8565b82601f10620001b757805160ff1916838001178555620001e8565b82800160010185558215620001e8579182015b82811115620001e7578251825591602001919060010190620001ca565b5b509050620001f79190620001fb565b5090565b5b8082111562000216576000816000905550600101620001fc565b5090565b600060028204905060018216806200023357607f821691505b602082108114156200024a576200024962000250565b5b50919050565b7f4e487b7100000000000000000000000000000000000000000000000000000000600052602260045260246000fd5b6121fa806200028f6000396000f3fe608060405234801561001057600080fd5b50600436106101a95760003560e01c806380f51c12116100f9578063983b2d5611610097578063b866c8a411610071578063b866c8a4146104d2578063cca16fa814610502578063e99583a414610532578063f46eccc414610562576101a9565b8063983b2d561461046a5780639cc7f70814610486578063b390c0ab146104b6576101a9565b80638856f779116100d35780638856f779146103ce5780638da5cb5b146103fe57806390dd26271461041c57806395d89b411461044c576101a9565b806380f51c12146103645780638456cb59146103945780638769fd41146103b2576101a9565b80633092afd5116101665780633eaaf86b116101405780633eaaf86b146102da5780633f4ba83a146102f85780635c975abb146103165780636a0d343a14610334576101a9565b80633092afd514610282578063313ce5671461029e57806332424aa3146102bc576101a9565b806306fdde03146101ae5780630c68efe3146101cc5780630d99bd6c146101e857806313af40351461021857806318160ddd146102485780631b2ef1ca14610266575b600080fd5b6101b6610592565b6040516101c39190611cbf565b60405180910390f35b6101e660048036038101906101e19190611986565b610624565b005b61020260048036038101906101fd91906118ec565b6106c5565b60405161020f9190611de1565b60405180910390f35b610232600480360381019061022d9190611892565b6106ea565b60405161023f9190611ca4565b60405180910390f35b610250610747565b60405161025d9190611de1565b60405180910390f35b610280600480360381019061027b91906119d9565b610751565b005b61029c60048036038101906102979190611892565b61083a565b005b6102a66108d4565b6040516102b39190611dfc565b60405180910390f35b6102c46108dd565b6040516102d19190611dfc565b60405180910390f35b6102e26108e2565b6040516102ef9190611de1565b60405180910390f35b6103006108e8565b60405161030d9190611ca4565b60405180910390f35b61031e610985565b60405161032b9190611ca4565b60405180910390f35b61034e600480360381019061034991906119d9565b610998565b60405161035b9190611de1565b60405180910390f35b61037e60048036038101906103799190611892565b6109bd565b60405161038b9190611ca4565b60405180910390f35b61039c6109dd565b6040516103a99190611ca4565b60405180910390f35b6103cc60048036038101906103c791906119d9565b610a7a565b005b6103e860048036038101906103e39190611a6c565b610bc9565b6040516103f59190611ca4565b60405180910390f35b610406610d19565b6040516104139190611c60565b60405180910390f35b61043660048036038101906104319190611a19565b610d3d565b6040516104439190611ca4565b60405180910390f35b610454610de5565b6040516104619190611cbf565b60405180910390f35b610484600480360381019061047f9190611892565b610e77565b005b6104a0600480360381019061049b9190611959565b610f11565b6040516104ad9190611de1565b60405180910390f35b6104d060048036038101906104cb91906119d9565b610f2e565b005b6104ec60048036038101906104e79190611a19565b610fcc565b6040516104f99190611ca4565b60405180910390f35b61051c600480360381019061051791906119d9565b611083565b6040516105299190611de1565b60405180910390f35b61054c60048036038101906105479190611959565b6110b2565b6040516105599190611de1565b60405180910390f35b61057c60048036038101906105779190611892565b6110ca565b6040516105899190611ca4565b60405180910390f35b6060600280546105a190611f45565b80601f01602080910402602001604051908101604052809291908181526020018280546105cd90611f45565b801561061a5780601f106105ef5761010080835404028352916020019161061a565b820191906000526020600020905b8154815290600101906020018083116105fd57829003601f168201915b5050505050905090565b61062c6110ea565b1561066c576040517f08c379a000000000000000000000000000000000000000000000000000000000815260040161066390611da1565b60405180910390fd5b61067583611108565b6106b4576040517f08c379a00000000000000000000000000000000000000000000000000000000081526004016106ab90611d41565b60405180910390fd5b6106bf8383836111dc565b50505050565b6007602052816000526040600020602052806000526040600020600091509150505481565b60006106f53361128d565b610734576040517f08c379a000000000000000000000000000000000000000000000000000000000815260040161072b90611d41565b60405180910390fd5b61073d826112e5565b5060019050919050565b6000600454905090565b6107596110ea565b15610799576040517f08c379a000000000000000000000000000000000000000000000000000000000815260040161079090611da1565b60405180910390fd5b60011515600860003373ffffffffffffffffffffffffffffffffffffffff1673ffffffffffffffffffffffffffffffffffffffff16815260200190815260200160002060009054906101000a900460ff1615151461082c576040517f08c379a000000000000000000000000000000000000000000000000000000000815260040161082390611d21565b60405180910390fd5b6108368282611330565b5050565b60008054906101000a900473ffffffffffffffffffffffffffffffffffffffff1673ffffffffffffffffffffffffffffffffffffffff163373ffffffffffffffffffffffffffffffffffffffff16146108c8576040517f08c379a00000000000000000000000000000000000000000000000000000000081526004016108bf90611d41565b60405180910390fd5b6108d1816113b0565b50565b60006012905090565b601281565b60045481565b6000600160003373ffffffffffffffffffffffffffffffffffffffff1673ffffffffffffffffffffffffffffffffffffffff16815260200190815260200160002060009054906101000a900460ff16610976576040517f08c379a000000000000000000000000000000000000000000000000000000000815260040161096d90611dc1565b60405180910390fd5b61097e61140b565b6001905090565b600060149054906101000a900460ff1681565b6006602052816000526040600020602052806000526040600020600091509150505481565b60016020528060005260406000206000915054906101000a900460ff1681565b6000600160003373ffffffffffffffffffffffffffffffffffffffff1673ffffffffffffffffffffffffffffffffffffffff16815260200190815260200160002060009054906101000a900460ff16610a6b576040517f08c379a0000000000000000000000000000000000000000000000000000000008152600401610a6290611d01565b60405180910390fd5b610a73611427565b6001905090565b610a826110ea565b15610ac2576040517f08c379a0000000000000000000000000000000000000000000000000000000008152600401610ab990611da1565b60405180910390fd5b6000600760003373ffffffffffffffffffffffffffffffffffffffff1673ffffffffffffffffffffffffffffffffffffffff168152602001908152602001600020600084815260200190815260200160002054905080821115610b5a576040517f08c379a0000000000000000000000000000000000000000000000000000000008152600401610b5190611d61565b60405180910390fd5b610b648383611444565b8181610b709190611e89565b600760003373ffffffffffffffffffffffffffffffffffffffff1673ffffffffffffffffffffffffffffffffffffffff168152602001908152602001600020600085815260200190815260200160002081905550505050565b6000610bd36110ea565b15610c13576040517f08c379a0000000000000000000000000000000000000000000000000000000008152600401610c0a90611da1565b60405180910390fd5b610c1c85611519565b610c5b576040517f08c379a0000000000000000000000000000000000000000000000000000000008152600401610c5290611d41565b60405180910390fd5b6000859050600060066000878152602001908152602001600020600083815260200190815260200160002054905080841115610ccc576040517f08c379a0000000000000000000000000000000000000000000000000000000008152600401610cc390611d81565b60405180910390fd5b610cd786868661153b565b8381610ce39190611e89565b60066000888152602001908152602001600020600084815260200190815260200160002081905550600192505050949350505050565b60008054906101000a900473ffffffffffffffffffffffffffffffffffffffff1681565b6000610d476110ea565b15610d87576040517f08c379a0000000000000000000000000000000000000000000000000000000008152600401610d7e90611da1565b60405180910390fd5b610d9084611519565b610dcf576040517f08c379a0000000000000000000000000000000000000000000000000000000008152600401610dc690611d41565b60405180910390fd5b610dda84848461153b565b600190509392505050565b606060038054610df490611f45565b80601f0160208091040260200160405190810160405280929190818152602001828054610e2090611f45565b8015610e6d5780601f10610e4257610100808354040283529160200191610e6d565b820191906000526020600020905b815481529060010190602001808311610e5057829003601f168201915b5050505050905090565b60008054906101000a900473ffffffffffffffffffffffffffffffffffffffff1673ffffffffffffffffffffffffffffffffffffffff163373ffffffffffffffffffffffffffffffffffffffff1614610f05576040517f08c379a0000000000000000000000000000000000000000000000000000000008152600401610efc90611d41565b60405180910390fd5b610f0e816115cd565b50565b600060056000838152602001908152602001600020549050919050565b610f366110ea565b15610f76576040517f08c379a0000000000000000000000000000000000000000000000000000000008152600401610f6d90611da1565b60405180910390fd5b610f7f82611108565b610fbe576040517f08c379a0000000000000000000000000000000000000000000000000000000008152600401610fb590611d41565b60405180910390fd5b610fc88282611444565b5050565b6000610fd784611519565b611016576040517f08c379a000000000000000000000000000000000000000000000000000000000815260040161100d90611d41565b60405180910390fd5b816006600086815260200190815260200160002060008581526020019081526020016000208190555082847f08aaf4f7dd1adfa5bfe7067dea5b4ebd7e119d43257438a9189f37d7044eb09a846040516110709190611de1565b60405180910390a3600190509392505050565b600060066000848152602001908152602001600020600083815260200190815260200160002054905092915050565b60056020528060005260406000206000915090505481565b60086020528060005260406000206000915054906101000a900460ff1681565b600060011515600060149054906101000a900460ff16151514905090565b60003373ffffffffffffffffffffffffffffffffffffffff1673ce761d788df608bd21bdd59d6f4b54b2e27f25bb73ffffffffffffffffffffffffffffffffffffffff16636352211e846040518263ffffffff1660e01b815260040161116e9190611de1565b60206040518083038186803b15801561118657600080fd5b505afa15801561119a573d6000803e3d6000fd5b505050506040513d601f19601f820116820180604052508101906111be91906118bf565b73ffffffffffffffffffffffffffffffffffffffff16149050919050565b600081600760008573ffffffffffffffffffffffffffffffffffffffff1673ffffffffffffffffffffffffffffffffffffffff1681526020019081526020016000206000868152602001908152602001600020819055508273ffffffffffffffffffffffffffffffffffffffff16847f25513def906e48f9e4a3b482e5ff228d356d8dda4744112c24c666c2d270fbeb8460405161127a9190611de1565b60405180910390a3600190509392505050565b60008173ffffffffffffffffffffffffffffffffffffffff1660008054906101000a900473ffffffffffffffffffffffffffffffffffffffff1673ffffffffffffffffffffffffffffffffffffffff16149050919050565b6000816000806101000a81548173ffffffffffffffffffffffffffffffffffffffff021916908373ffffffffffffffffffffffffffffffffffffffff16021790555060019050919050565b80600460008282546113429190611e33565b925050819055508060056000848152602001908152602001600020600082825461136c9190611e33565b9250508190555081827f070aa035fe0a09f0d9305bdc2d7a5d93cd4733db3b1ff869b4a7033c9501909a836040516113a49190611de1565b60405180910390a35050565b6000600860008373ffffffffffffffffffffffffffffffffffffffff1673ffffffffffffffffffffffffffffffffffffffff16815260200190815260200160002060006101000a81548160ff02191690831515021790555050565b60008060146101000a81548160ff021916908315150217905550565b6001600060146101000a81548160ff021916908315150217905550565b6000600560008481526020019081526020016000205490508181101561149f576040517f08c379a000000000000000000000000000000000000000000000000000000000815260040161149690611ce1565b60405180910390fd5b81600460008282546114b19190611e89565b9250508190555081816114c49190611e89565b600560008581526020019081526020016000208190555082837f5af801e983cfd842de8b0797a2d6077db3ac2dea16571e0c7f5080291ca1b9348460405161150c9190611de1565b60405180910390a3505050565b600061152482611628565b80611534575061153382611108565b5b9050919050565b8060056000858152602001908152602001600020600082825461155e9190611e89565b92505081905550806005600084815260200190815260200160002060008282546115889190611e33565b9250508190555081837faf6151f5085accf2d57e1e7bf7601d3b3982e0de7e9a90f032f8554de9c104f6836040516115c09190611de1565b60405180910390a3505050565b6001600860008373ffffffffffffffffffffffffffffffffffffffff1673ffffffffffffffffffffffffffffffffffffffff16815260200190815260200160002060006101000a81548160ff02191690831515021790555050565b60003373ffffffffffffffffffffffffffffffffffffffff1673ce761d788df608bd21bdd59d6f4b54b2e27f25bb73ffffffffffffffffffffffffffffffffffffffff1663081812fc846040518263ffffffff1660e01b815260040161168e9190611de1565b60206040518083038186803b1580156116a657600080fd5b505afa1580156116ba573d6000803e3d6000fd5b505050506040513d601f19601f820116820180604052508101906116de91906118bf565b73ffffffffffffffffffffffffffffffffffffffff161480611837575073ce761d788df608bd21bdd59d6f4b54b2e27f25bb73ffffffffffffffffffffffffffffffffffffffff1663e985e9c573ce761d788df608bd21bdd59d6f4b54b2e27f25bb73ffffffffffffffffffffffffffffffffffffffff16636352211e856040518263ffffffff1660e01b81526004016117789190611de1565b60206040518083038186803b15801561179057600080fd5b505afa1580156117a4573d6000803e3d6000fd5b505050506040513d601f19601f820116820180604052508101906117c891906118bf565b336040518363ffffffff1660e01b81526004016117e6929190611c7b565b60206040518083038186803b1580156117fe57600080fd5b505afa158015611812573d6000803e3d6000fd5b505050506040513d601f19601f82011682018060405250810190611836919061192c565b5b9050919050565b60008135905061184d8161217f565b92915050565b6000815190506118628161217f565b92915050565b60008151905061187781612196565b92915050565b60008135905061188c816121ad565b92915050565b6000602082840312156118a8576118a7611fd5565b5b60006118b68482850161183e565b91505092915050565b6000602082840312156118d5576118d4611fd5565b5b60006118e384828501611853565b91505092915050565b6000806040838503121561190357611902611fd5565b5b60006119118582860161183e565b92505060206119228582860161187d565b9150509250929050565b60006020828403121561194257611941611fd5565b5b600061195084828501611868565b91505092915050565b60006020828403121561196f5761196e611fd5565b5b600061197d8482850161187d565b91505092915050565b60008060006060848603121561199f5761199e611fd5565b5b60006119ad8682870161187d565b93505060206119be8682870161183e565b92505060406119cf8682870161187d565b9150509250925092565b600080604083850312156119f0576119ef611fd5565b5b60006119fe8582860161187d565b9250506020611a0f8582860161187d565b9150509250929050565b600080600060608486031215611a3257611a31611fd5565b5b6000611a408682870161187d565b9350506020611a518682870161187d565b9250506040611a628682870161187d565b9150509250925092565b60008060008060808587031215611a8657611a85611fd5565b5b6000611a948782880161187d565b9450506020611aa58782880161187d565b9350506040611ab68782880161187d565b9250506060611ac78782880161187d565b91505092959194509250565b611adc81611ebd565b82525050565b611aeb81611ecf565b82525050565b6000611afc82611e17565b611b068185611e22565b9350611b16818560208601611f12565b611b1f81611fda565b840191505092915050565b6000611b37600f83611e22565b9150611b4282611feb565b602082019050919050565b6000611b5a600c83611e22565b9150611b6582612014565b602082019050919050565b6000611b7d601283611e22565b9150611b888261203d565b602082019050919050565b6000611ba0600d83611e22565b9150611bab82612066565b602082019050919050565b6000611bc3602483611e22565b9150611bce8261208f565b604082019050919050565b6000611be6602583611e22565b9150611bf1826120de565b604082019050919050565b6000611c09601283611e22565b9150611c148261212d565b602082019050919050565b6000611c2c600e83611e22565b9150611c3782612156565b602082019050919050565b611c4b81611efb565b82525050565b611c5a81611f05565b82525050565b6000602082019050611c756000830184611ad3565b92915050565b6000604082019050611c906000830185611ad3565b611c9d6020830184611ad3565b9392505050565b6000602082019050611cb96000830184611ae2565b92915050565b60006020820190508181036000830152611cd98184611af1565b905092915050565b60006020820190508181036000830152611cfa81611b2a565b9050919050565b60006020820190508181036000830152611d1a81611b4d565b9050919050565b60006020820190508181036000830152611d3a81611b70565b9050919050565b60006020820190508181036000830152611d5a81611b93565b9050919050565b60006020820190508181036000830152611d7a81611bb6565b9050919050565b60006020820190508181036000830152611d9a81611bd9565b9050919050565b60006020820190508181036000830152611dba81611bfc565b9050919050565b60006020820190508181036000830152611dda81611c1f565b9050919050565b6000602082019050611df66000830184611c42565b92915050565b6000602082019050611e116000830184611c51565b92915050565b600081519050919050565b600082825260208201905092915050565b6000611e3e82611efb565b9150611e4983611efb565b9250827fffffffffffffffffffffffffffffffffffffffffffffffffffffffffffffffff03821115611e7e57611e7d611f77565b5b828201905092915050565b6000611e9482611efb565b9150611e9f83611efb565b925082821015611eb257611eb1611f77565b5b828203905092915050565b6000611ec882611edb565b9050919050565b60008115159050919050565b600073ffffffffffffffffffffffffffffffffffffffff82169050919050565b6000819050919050565b600060ff82169050919050565b60005b83811015611f30578082015181840152602081019050611f15565b83811115611f3f576000848401525b50505050565b60006002820490506001821680611f5d57607f821691505b60208210811415611f7157611f70611fa6565b5b50919050565b7f4e487b7100000000000000000000000000000000000000000000000000000000600052601160045260246000fd5b7f4e487b7100000000000000000000000000000000000000000000000000000000600052602260045260246000fd5b600080fd5b6000601f19601f8301169050919050565b7f42616c616e636520746f6f206c6f770000000000000000000000000000000000600082015250565b7f50617573652064656e6965640000000000000000000000000000000000000000600082015250565b7f4d696e74204163636573732044656e6965640000000000000000000000000000600082015250565b7f4d757374206265206f776e657200000000000000000000000000000000000000600082015250565b7f526571756573746564204275726e2067726561746572207468616e206170707260008201527f6f76616c00000000000000000000000000000000000000000000000000000000602082015250565b7f5472616e7366657220616d6f756e742067726561746572207468616e2061707060008201527f726f76616c000000000000000000000000000000000000000000000000000000602082015250565b7f436f6e7472616374206973207061757365640000000000000000000000000000600082015250565b7f556e70617573652064656e696564000000000000000000000000000000000000600082015250565b61218881611ebd565b811461219357600080fd5b50565b61219f81611ecf565b81146121aa57600080fd5b50565b6121b681611efb565b81146121c157600080fd5b5056fea2646970667358221220c937cd71f1da5190ca8a19dd16d189aeeedae1e67739f8b99a9fe51ad079ed8a64736f6c63430008070033",
  "devdoc": {
    "kind": "dev",
    "methods": {},
    "version": 1
  },
  "userdoc": {
    "kind": "user",
    "methods": {},
    "version": 1
  },
  "storageLayout": {
    "storage": [
      {
        "astId": 2138,
        "contract": "contracts/crops/Beans.sol:Beans",
        "label": "owner",
        "offset": 0,
        "slot": "0",
        "type": "t_address"
      },
      {
        "astId": 2178,
        "contract": "contracts/crops/Beans.sol:Beans",
        "label": "paused",
        "offset": 20,
        "slot": "0",
        "type": "t_bool"
      },
      {
        "astId": 2182,
        "contract": "contracts/crops/Beans.sol:Beans",
        "label": "pausers",
        "offset": 0,
        "slot": "1",
        "type": "t_mapping(t_address,t_bool)"
      },
      {
        "astId": 2397,
        "contract": "contracts/crops/Beans.sol:Beans",
        "label": "_name",
        "offset": 0,
        "slot": "2",
        "type": "t_string_storage"
      },
      {
        "astId": 2399,
        "contract": "contracts/crops/Beans.sol:Beans",
        "label": "_symbol",
        "offset": 0,
        "slot": "3",
        "type": "t_string_storage"
      },
      {
        "astId": 2402,
        "contract": "contracts/crops/Beans.sol:Beans",
        "label": "_totalSupply",
        "offset": 0,
        "slot": "4",
        "type": "t_uint256"
      },
      {
        "astId": 2409,
        "contract": "contracts/crops/Beans.sol:Beans",
        "label": "_balanceOf",
        "offset": 0,
        "slot": "5",
        "type": "t_mapping(t_uint256,t_uint256)"
      },
      {
        "astId": 2415,
        "contract": "contracts/crops/Beans.sol:Beans",
        "label": "_transferAllowance",
        "offset": 0,
        "slot": "6",
        "type": "t_mapping(t_uint256,t_mapping(t_uint256,t_uint256))"
      },
      {
        "astId": 705,
        "contract": "contracts/crops/Beans.sol:Beans",
        "label": "burnAllowance",
        "offset": 0,
        "slot": "7",
        "type": "t_mapping(t_address,t_mapping(t_uint256,t_uint256))"
      },
      {
        "astId": 1767,
        "contract": "contracts/crops/Beans.sol:Beans",
        "label": "minters",
        "offset": 0,
        "slot": "8",
        "type": "t_mapping(t_address,t_bool)"
      }
    ],
    "types": {
      "t_address": {
        "encoding": "inplace",
        "label": "address",
        "numberOfBytes": "20"
      },
      "t_bool": {
        "encoding": "inplace",
        "label": "bool",
        "numberOfBytes": "1"
      },
      "t_mapping(t_address,t_bool)": {
        "encoding": "mapping",
        "key": "t_address",
        "label": "mapping(address => bool)",
        "numberOfBytes": "32",
        "value": "t_bool"
      },
      "t_mapping(t_address,t_mapping(t_uint256,t_uint256))": {
        "encoding": "mapping",
        "key": "t_address",
        "label": "mapping(address => mapping(uint256 => uint256))",
        "numberOfBytes": "32",
        "value": "t_mapping(t_uint256,t_uint256)"
      },
      "t_mapping(t_uint256,t_mapping(t_uint256,t_uint256))": {
        "encoding": "mapping",
        "key": "t_uint256",
        "label": "mapping(uint256 => mapping(uint256 => uint256))",
        "numberOfBytes": "32",
        "value": "t_mapping(t_uint256,t_uint256)"
      },
      "t_mapping(t_uint256,t_uint256)": {
        "encoding": "mapping",
        "key": "t_uint256",
        "label": "mapping(uint256 => uint256)",
        "numberOfBytes": "32",
        "value": "t_uint256"
      },
      "t_string_storage": {
        "encoding": "bytes",
        "label": "string",
        "numberOfBytes": "32"
      },
      "t_uint256": {
        "encoding": "inplace",
        "label": "uint256",
        "numberOfBytes": "32"
      }
    }
  }
}