{
  "address": "0x2bdCC0de6bE1f7D2ee689a0342D76F52E8EFABa3",
  "abi": [
    {
      "inputs": [],
      "stateMutability": "nonpayable",
      "type": "constructor"
    },
    {
      "anonymous": false,
      "inputs": [
        {
          "indexed": true,
          "internalType": "uint256",
          "name": "from",
          "type": "uint256"
        },
        {
          "indexed": true,
          "internalType": "uint256",
          "name": "to",
          "type": "uint256"
        },
        {
          "indexed": false,
          "internalType": "uint256",
          "name": "amount",
          "type": "uint256"
        }
      ],
      "name": "Burn",
      "type": "event"
    },
    {
      "anonymous": false,
      "inputs": [
        {
          "indexed": true,
          "internalType": "uint256",
          "name": "from",
          "type": "uint256"
        },
        {
          "indexed": true,
          "internalType": "address",
          "name": "to",
          "type": "address"
        },
        {
          "indexed": false,
          "internalType": "uint256",
          "name": "amount",
          "type": "uint256"
        }
      ],
      "name": "BurnApproval",
      "type": "event"
    },
    {
      "anonymous": false,
      "inputs": [
        {
          "indexed": true,
          "internalType": "uint256",
          "name": "from",
          "type": "uint256"
        },
        {
          "indexed": true,
          "internalType": "uint256",
          "name": "to",
          "type": "uint256"
        },
        {
          "indexed": false,
          "internalType": "uint256",
          "name": "amount",
          "type": "uint256"
        }
      ],
      "name": "Mint",
      "type": "event"
    },
    {
      "anonymous": false,
      "inputs": [
        {
          "indexed": true,
          "internalType": "uint256",
          "name": "from",
          "type": "uint256"
        },
        {
          "indexed": true,
          "internalType": "uint256",
          "name": "to",
          "type": "uint256"
        },
        {
          "indexed": false,
          "internalType": "uint256",
          "name": "amount",
          "type": "uint256"
        }
      ],
      "name": "Transfer",
      "type": "event"
    },
    {
      "anonymous": false,
      "inputs": [
        {
          "indexed": true,
          "internalType": "uint256",
          "name": "from",
          "type": "uint256"
        },
        {
          "indexed": true,
          "internalType": "uint256",
          "name": "to",
          "type": "uint256"
        },
        {
          "indexed": false,
          "internalType": "uint256",
          "name": "amount",
          "type": "uint256"
        }
      ],
      "name": "TransferApproval",
      "type": "event"
    },
    {
      "inputs": [
        {
          "internalType": "address",
          "name": "minter",
          "type": "address"
        }
      ],
      "name": "addMinter",
      "outputs": [],
      "stateMutability": "nonpayable",
      "type": "function"
    },
    {
      "inputs": [
        {
          "internalType": "uint256",
          "name": "from",
          "type": "uint256"
        },
        {
          "internalType": "uint256",
          "name": "spender",
          "type": "uint256"
        },
        {
          "internalType": "uint256",
          "name": "amount",
          "type": "uint256"
        }
      ],
      "name": "approve",
      "outputs": [
        {
          "internalType": "bool",
          "name": "",
          "type": "bool"
        }
      ],
      "stateMutability": "nonpayable",
      "type": "function"
    },
    {
      "inputs": [
        {
          "internalType": "uint256",
          "name": "",
          "type": "uint256"
        }
      ],
      "name": "balanceOf",
      "outputs": [
        {
          "internalType": "uint256",
          "name": "",
          "type": "uint256"
        }
      ],
      "stateMutability": "view",
      "type": "function"
    },
    {
      "inputs": [
        {
          "internalType": "uint256",
          "name": "summoner",
          "type": "uint256"
        },
        {
          "internalType": "uint256",
          "name": "amount",
          "type": "uint256"
        }
      ],
      "name": "burn",
      "outputs": [],
      "stateMutability": "nonpayable",
      "type": "function"
    },
    {
      "inputs": [
        {
          "internalType": "address",
          "name": "",
          "type": "address"
        },
        {
          "internalType": "uint256",
          "name": "",
          "type": "uint256"
        }
      ],
      "name": "burnAllowance",
      "outputs": [
        {
          "internalType": "uint256",
          "name": "",
          "type": "uint256"
        }
      ],
      "stateMutability": "view",
      "type": "function"
    },
    {
      "inputs": [
        {
          "internalType": "uint256",
          "name": "summoner",
          "type": "uint256"
        },
        {
          "internalType": "address",
          "name": "burner",
          "type": "address"
        },
        {
          "internalType": "uint256",
          "name": "amount",
          "type": "uint256"
        }
      ],
      "name": "burnApprove",
      "outputs": [],
      "stateMutability": "nonpayable",
      "type": "function"
    },
    {
      "inputs": [
        {
          "internalType": "uint256",
          "name": "summoner",
          "type": "uint256"
        },
        {
          "internalType": "uint256",
          "name": "amount",
          "type": "uint256"
        }
      ],
      "name": "burnFrom",
      "outputs": [],
      "stateMutability": "nonpayable",
      "type": "function"
    },
    {
      "inputs": [],
      "name": "decimals",
      "outputs": [
        {
          "internalType": "uint8",
          "name": "",
          "type": "uint8"
        }
      ],
      "stateMutability": "view",
      "type": "function"
    },
    {
      "inputs": [
        {
          "internalType": "uint256",
          "name": "summoner",
          "type": "uint256"
        },
        {
          "internalType": "uint256",
          "name": "amount",
          "type": "uint256"
        }
      ],
      "name": "mint",
      "outputs": [],
      "stateMutability": "nonpayable",
      "type": "function"
    },
    {
      "inputs": [
        {
          "internalType": "address",
          "name": "",
          "type": "address"
        }
      ],
      "name": "minters",
      "outputs": [
        {
          "internalType": "bool",
          "name": "",
          "type": "bool"
        }
      ],
      "stateMutability": "view",
      "type": "function"
    },
    {
      "inputs": [],
      "name": "name",
      "outputs": [
        {
          "internalType": "string",
          "name": "",
          "type": "string"
        }
      ],
      "stateMutability": "view",
      "type": "function"
    },
    {
      "inputs": [],
      "name": "owner",
      "outputs": [
        {
          "internalType": "address",
          "name": "",
          "type": "address"
        }
      ],
      "stateMutability": "view",
      "type": "function"
    },
    {
      "inputs": [],
      "name": "pause",
      "outputs": [
        {
          "internalType": "bool",
          "name": "",
          "type": "bool"
        }
      ],
      "stateMutability": "nonpayable",
      "type": "function"
    },
    {
      "inputs": [],
      "name": "paused",
      "outputs": [
        {
          "internalType": "bool",
          "name": "",
          "type": "bool"
        }
      ],
      "stateMutability": "view",
      "type": "function"
    },
    {
      "inputs": [
        {
          "internalType": "address",
          "name": "",
          "type": "address"
        }
      ],
      "name": "pausers",
      "outputs": [
        {
          "internalType": "bool",
          "name": "",
          "type": "bool"
        }
      ],
      "stateMutability": "view",
      "type": "function"
    },
    {
      "inputs": [
        {
          "internalType": "address",
          "name": "minter",
          "type": "address"
        }
      ],
      "name": "removeMinter",
      "outputs": [],
      "stateMutability": "nonpayable",
      "type": "function"
    },
    {
      "inputs": [
        {
          "internalType": "address",
          "name": "_owner",
          "type": "address"
        }
      ],
      "name": "setOwner",
      "outputs": [
        {
          "internalType": "bool",
          "name": "",
          "type": "bool"
        }
      ],
      "stateMutability": "nonpayable",
      "type": "function"
    },
    {
      "inputs": [],
      "name": "symbol",
      "outputs": [
        {
          "internalType": "string",
          "name": "",
          "type": "string"
        }
      ],
      "stateMutability": "view",
      "type": "function"
    },
    {
      "inputs": [],
      "name": "totalSupply",
      "outputs": [
        {
          "internalType": "uint256",
          "name": "",
          "type": "uint256"
        }
      ],
      "stateMutability": "view",
      "type": "function"
    },
    {
      "inputs": [
        {
          "internalType": "uint256",
          "name": "from",
          "type": "uint256"
        },
        {
          "internalType": "uint256",
          "name": "to",
          "type": "uint256"
        },
        {
          "internalType": "uint256",
          "name": "amount",
          "type": "uint256"
        }
      ],
      "name": "transfer",
      "outputs": [
        {
          "internalType": "bool",
          "name": "",
          "type": "bool"
        }
      ],
      "stateMutability": "nonpayable",
      "type": "function"
    },
    {
      "inputs": [
        {
          "internalType": "uint256",
          "name": "",
          "type": "uint256"
        },
        {
          "internalType": "uint256",
          "name": "",
          "type": "uint256"
        }
      ],
      "name": "transferAllowance",
      "outputs": [
        {
          "internalType": "uint256",
          "name": "",
          "type": "uint256"
        }
      ],
      "stateMutability": "view",
      "type": "function"
    },
    {
      "inputs": [
        {
          "internalType": "uint256",
          "name": "executor",
          "type": "uint256"
        },
        {
          "internalType": "uint256",
          "name": "from",
          "type": "uint256"
        },
        {
          "internalType": "uint256",
          "name": "to",
          "type": "uint256"
        },
        {
          "internalType": "uint256",
          "name": "amount",
          "type": "uint256"
        }
      ],
      "name": "transferFrom",
      "outputs": [
        {
          "internalType": "bool",
          "name": "",
          "type": "bool"
        }
      ],
      "stateMutability": "nonpayable",
      "type": "function"
    },
    {
      "inputs": [],
      "name": "unpause",
      "outputs": [
        {
          "internalType": "bool",
          "name": "",
          "type": "bool"
        }
      ],
      "stateMutability": "nonpayable",
      "type": "function"
    }
  ],
  "transactionHash": "0xaf1799394de4b544d7831b85236f48e6b4f1b7c8948bdded38acc5e557c2890c",
  "args": [],
  "solcInputHash": "bf26976eeb28664b987b825023e7153a",
  "bytecode": "0x608060405260006004553480156200001657600080fd5b50336000806101000a81548173ffffffffffffffffffffffffffffffffffffffff021916908373ffffffffffffffffffffffffffffffffffffffff16021790555060008060146101000a81548160ff02191690831515021790555060018060003373ffffffffffffffffffffffffffffffffffffffff1673ffffffffffffffffffffffffffffffffffffffff16815260200190815260200160002060006101000a81548160ff0219169083151502179055506040518060400160405280601081526020017f5261726974794661726d732d436f726e0000000000000000000000000000000081525060029080519060200190620001159291906200016a565b506040518060400160405280600481526020017f434f524e0000000000000000000000000000000000000000000000000000000081525060039080519060200190620001639291906200016a565b506200027f565b82805462000178906200021a565b90600052602060002090601f0160209004810192826200019c5760008555620001e8565b82601f10620001b757805160ff1916838001178555620001e8565b82800160010185558215620001e8579182015b82811115620001e7578251825591602001919060010190620001ca565b5b509050620001f79190620001fb565b5090565b5b8082111562000216576000816000905550600101620001fc565b5090565b600060028204905060018216806200023357607f821691505b602082108114156200024a576200024962000250565b5b50919050565b7f4e487b7100000000000000000000000000000000000000000000000000000000600052602260045260246000fd5b611f5d806200028f6000396000f3fe608060405234801561001057600080fd5b506004361061014d5760003560e01c806380f51c12116100c357806395d89b411161007c57806395d89b41146103b4578063983b2d56146103d25780639cc7f708146103ee578063b390c0ab1461041e578063b866c8a41461043a578063f46eccc41461046a5761014d565b806380f51c12146102cc5780638456cb59146102fc5780638769fd411461031a5780638856f779146103365780638da5cb5b1461036657806390dd2627146103845761014d565b80631b2ef1ca116101155780631b2ef1ca1461020a5780633092afd514610226578063313ce567146102425780633f4ba83a146102605780635c975abb1461027e578063756a86bd1461029c5761014d565b806306fdde03146101525780630c68efe3146101705780630d99bd6c1461018c57806313af4035146101bc57806318160ddd146101ec575b600080fd5b61015a61049a565b6040516101679190611a39565b60405180910390f35b61018a60048036038101906101859190611729565b610528565b005b6101a660048036038101906101a191906116bc565b6105c9565b6040516101b39190611b5b565b60405180910390f35b6101d660048036038101906101d19190611662565b6105ee565b6040516101e39190611a1e565b60405180910390f35b6101f461064b565b6040516102019190611b5b565b60405180910390f35b610224600480360381019061021f919061177c565b610651565b005b610240600480360381019061023b9190611662565b61073a565b005b61024a6107d4565b6040516102579190611b76565b60405180910390f35b6102686107d9565b6040516102759190611a1e565b60405180910390f35b610286610876565b6040516102939190611a1e565b60405180910390f35b6102b660048036038101906102b1919061177c565b610889565b6040516102c39190611b5b565b60405180910390f35b6102e660048036038101906102e19190611662565b6108ae565b6040516102f39190611a1e565b60405180910390f35b6103046108ce565b6040516103119190611a1e565b60405180910390f35b610334600480360381019061032f919061177c565b61096b565b005b610350600480360381019061034b919061180f565b610ac1565b60405161035d9190611a1e565b60405180910390f35b61036e610c18565b60405161037b9190611a03565b60405180910390f35b61039e600480360381019061039991906117bc565b610c3c565b6040516103ab9190611a1e565b60405180910390f35b6103bc610ce4565b6040516103c99190611a39565b60405180910390f35b6103ec60048036038101906103e79190611662565b610d72565b005b610408600480360381019061040391906116fc565b610e0c565b6040516104159190611b5b565b60405180910390f35b6104386004803603810190610433919061177c565b610e24565b005b610454600480360381019061044f91906117bc565b610ec2565b6040516104619190611a1e565b60405180910390f35b610484600480360381019061047f9190611662565b610f79565b6040516104919190611a1e565b60405180910390f35b600280546104a790611cbf565b80601f01602080910402602001604051908101604052809291908181526020018280546104d390611cbf565b80156105205780601f106104f557610100808354040283529160200191610520565b820191906000526020600020905b81548152906001019060200180831161050357829003601f168201915b505050505081565b610530610f99565b15610570576040517f08c379a000000000000000000000000000000000000000000000000000000000815260040161056790611b1b565b60405180910390fd5b61057983610fb7565b6105b8576040517f08c379a00000000000000000000000000000000000000000000000000000000081526004016105af90611abb565b60405180910390fd5b6105c383838361107e565b50505050565b6007602052816000526040600020602052806000526040600020600091509150505481565b60006105f93361112f565b610638576040517f08c379a000000000000000000000000000000000000000000000000000000000815260040161062f90611abb565b60405180910390fd5b61064182611187565b5060019050919050565b60045481565b610659610f99565b15610699576040517f08c379a000000000000000000000000000000000000000000000000000000000815260040161069090611b1b565b60405180910390fd5b60011515600860003373ffffffffffffffffffffffffffffffffffffffff1673ffffffffffffffffffffffffffffffffffffffff16815260200190815260200160002060009054906101000a900460ff1615151461072c576040517f08c379a000000000000000000000000000000000000000000000000000000000815260040161072390611a9b565b60405180910390fd5b61073682826111d2565b5050565b60008054906101000a900473ffffffffffffffffffffffffffffffffffffffff1673ffffffffffffffffffffffffffffffffffffffff163373ffffffffffffffffffffffffffffffffffffffff16146107c8576040517f08c379a00000000000000000000000000000000000000000000000000000000081526004016107bf90611abb565b60405180910390fd5b6107d18161126d565b50565b601281565b6000600160003373ffffffffffffffffffffffffffffffffffffffff1673ffffffffffffffffffffffffffffffffffffffff16815260200190815260200160002060009054906101000a900460ff16610867576040517f08c379a000000000000000000000000000000000000000000000000000000000815260040161085e90611b3b565b60405180910390fd5b61086f6112c8565b6001905090565b600060149054906101000a900460ff1681565b6006602052816000526040600020602052806000526040600020600091509150505481565b60016020528060005260406000206000915054906101000a900460ff1681565b6000600160003373ffffffffffffffffffffffffffffffffffffffff1673ffffffffffffffffffffffffffffffffffffffff16815260200190815260200160002060009054906101000a900460ff1661095c576040517f08c379a000000000000000000000000000000000000000000000000000000000815260040161095390611a7b565b60405180910390fd5b6109646112e4565b6001905090565b610973610f99565b156109b3576040517f08c379a00000000000000000000000000000000000000000000000000000000081526004016109aa90611b1b565b60405180910390fd5b6000600760003373ffffffffffffffffffffffffffffffffffffffff1673ffffffffffffffffffffffffffffffffffffffff168152602001908152602001600020600084815260200190815260200160002054905080821115610a4b576040517f08c379a0000000000000000000000000000000000000000000000000000000008152600401610a4290611adb565b60405180910390fd5b610a558383611301565b610a6882826113df90919063ffffffff16565b600760003373ffffffffffffffffffffffffffffffffffffffff1673ffffffffffffffffffffffffffffffffffffffff168152602001908152602001600020600085815260200190815260200160002081905550505050565b6000610acb610f99565b15610b0b576040517f08c379a0000000000000000000000000000000000000000000000000000000008152600401610b0290611b1b565b60405180910390fd5b610b14856113f5565b610b53576040517f08c379a0000000000000000000000000000000000000000000000000000000008152600401610b4a90611abb565b60405180910390fd5b6000859050600060066000878152602001908152602001600020600083815260200190815260200160002054905080841115610bc4576040517f08c379a0000000000000000000000000000000000000000000000000000000008152600401610bbb90611afb565b60405180910390fd5b610bcf868686611417565b610be284826113df90919063ffffffff16565b60066000888152602001908152602001600020600084815260200190815260200160002081905550600192505050949350505050565b60008054906101000a900473ffffffffffffffffffffffffffffffffffffffff1681565b6000610c46610f99565b15610c86576040517f08c379a0000000000000000000000000000000000000000000000000000000008152600401610c7d90611b1b565b60405180910390fd5b610c8f846113f5565b610cce576040517f08c379a0000000000000000000000000000000000000000000000000000000008152600401610cc590611abb565b60405180910390fd5b610cd9848484611417565b600190509392505050565b60038054610cf190611cbf565b80601f0160208091040260200160405190810160405280929190818152602001828054610d1d90611cbf565b8015610d6a5780601f10610d3f57610100808354040283529160200191610d6a565b820191906000526020600020905b815481529060010190602001808311610d4d57829003601f168201915b505050505081565b60008054906101000a900473ffffffffffffffffffffffffffffffffffffffff1673ffffffffffffffffffffffffffffffffffffffff163373ffffffffffffffffffffffffffffffffffffffff1614610e00576040517f08c379a0000000000000000000000000000000000000000000000000000000008152600401610df790611abb565b60405180910390fd5b610e09816114cf565b50565b60056020528060005260406000206000915090505481565b610e2c610f99565b15610e6c576040517f08c379a0000000000000000000000000000000000000000000000000000000008152600401610e6390611b1b565b60405180910390fd5b610e7582610fb7565b610eb4576040517f08c379a0000000000000000000000000000000000000000000000000000000008152600401610eab90611abb565b60405180910390fd5b610ebe8282611301565b5050565b6000610ecd846113f5565b610f0c576040517f08c379a0000000000000000000000000000000000000000000000000000000008152600401610f0390611abb565b60405180910390fd5b816006600086815260200190815260200160002060008581526020019081526020016000208190555082847f93e4f1223795b575c8b108c82d62e117c59e8486f9ca2f3b1b237749c646747884604051610f669190611b5b565b60405180910390a3600190509392505050565b60086020528060005260406000206000915054906101000a900460ff1681565b600060011515600060149054906101000a900460ff16151514905090565b60003373ffffffffffffffffffffffffffffffffffffffff16610fd861152a565b73ffffffffffffffffffffffffffffffffffffffff16636352211e846040518263ffffffff1660e01b81526004016110109190611b5b565b60206040518083038186803b15801561102857600080fd5b505afa15801561103c573d6000803e3d6000fd5b505050506040513d601f19601f82011682018060405250810190611060919061168f565b73ffffffffffffffffffffffffffffffffffffffff16149050919050565b600081600760008573ffffffffffffffffffffffffffffffffffffffff1673ffffffffffffffffffffffffffffffffffffffff1681526020019081526020016000206000868152602001908152602001600020819055508273ffffffffffffffffffffffffffffffffffffffff16847f25513def906e48f9e4a3b482e5ff228d356d8dda4744112c24c666c2d270fbeb8460405161111c9190611b5b565b60405180910390a3600190509392505050565b60008173ffffffffffffffffffffffffffffffffffffffff1660008054906101000a900473ffffffffffffffffffffffffffffffffffffffff1673ffffffffffffffffffffffffffffffffffffffff16149050919050565b6000816000806101000a81548173ffffffffffffffffffffffffffffffffffffffff021916908373ffffffffffffffffffffffffffffffffffffffff16021790555060019050919050565b6000600560008481526020019081526020016000205490506111ff8260045461154690919063ffffffff16565b600481905550611218828261154690919063ffffffff16565b600560008581526020019081526020016000208190555082837f070aa035fe0a09f0d9305bdc2d7a5d93cd4733db3b1ff869b4a7033c9501909a846040516112609190611b5b565b60405180910390a3505050565b6000600860008373ffffffffffffffffffffffffffffffffffffffff1673ffffffffffffffffffffffffffffffffffffffff16815260200190815260200160002060006101000a81548160ff02191690831515021790555050565b60008060146101000a81548160ff021916908315150217905550565b6001600060146101000a81548160ff021916908315150217905550565b6000600560008481526020019081526020016000205490508181101561135c576040517f08c379a000000000000000000000000000000000000000000000000000000000815260040161135390611a5b565b60405180910390fd5b611371826004546113df90919063ffffffff16565b60048190555061138a82826113df90919063ffffffff16565b600560008581526020019081526020016000208190555082837f5af801e983cfd842de8b0797a2d6077db3ac2dea16571e0c7f5080291ca1b934846040516113d29190611b5b565b60405180910390a3505050565b600081836113ed9190611c03565b905092915050565b60006114008261155c565b80611410575061140f82610fb7565b5b9050919050565b61143d8160056000868152602001908152602001600020546113df90919063ffffffff16565b600560008581526020019081526020016000208190555061147a81600560008581526020019081526020016000205461154690919063ffffffff16565b600560008481526020019081526020016000208190555081837faf6151f5085accf2d57e1e7bf7601d3b3982e0de7e9a90f032f8554de9c104f6836040516114c29190611b5b565b60405180910390a3505050565b6001600860008373ffffffffffffffffffffffffffffffffffffffff1673ffffffffffffffffffffffffffffffffffffffff16815260200190815260200160002060006101000a81548160ff02191690831515021790555050565b600073ce761d788df608bd21bdd59d6f4b54b2e27f25bb905090565b600081836115549190611bad565b905092915050565b60003373ffffffffffffffffffffffffffffffffffffffff1661157d61152a565b73ffffffffffffffffffffffffffffffffffffffff1663081812fc846040518263ffffffff1660e01b81526004016115b59190611b5b565b60206040518083038186803b1580156115cd57600080fd5b505afa1580156115e1573d6000803e3d6000fd5b505050506040513d601f19601f82011682018060405250810190611605919061168f565b73ffffffffffffffffffffffffffffffffffffffff16149050919050565b60008135905061163281611ef9565b92915050565b60008151905061164781611ef9565b92915050565b60008135905061165c81611f10565b92915050565b60006020828403121561167857611677611d4f565b5b600061168684828501611623565b91505092915050565b6000602082840312156116a5576116a4611d4f565b5b60006116b384828501611638565b91505092915050565b600080604083850312156116d3576116d2611d4f565b5b60006116e185828601611623565b92505060206116f28582860161164d565b9150509250929050565b60006020828403121561171257611711611d4f565b5b60006117208482850161164d565b91505092915050565b60008060006060848603121561174257611741611d4f565b5b60006117508682870161164d565b935050602061176186828701611623565b92505060406117728682870161164d565b9150509250925092565b6000806040838503121561179357611792611d4f565b5b60006117a18582860161164d565b92505060206117b28582860161164d565b9150509250929050565b6000806000606084860312156117d5576117d4611d4f565b5b60006117e38682870161164d565b93505060206117f48682870161164d565b92505060406118058682870161164d565b9150509250925092565b6000806000806080858703121561182957611828611d4f565b5b60006118378782880161164d565b94505060206118488782880161164d565b93505060406118598782880161164d565b925050606061186a8782880161164d565b91505092959194509250565b61187f81611c37565b82525050565b61188e81611c49565b82525050565b600061189f82611b91565b6118a98185611b9c565b93506118b9818560208601611c8c565b6118c281611d54565b840191505092915050565b60006118da600f83611b9c565b91506118e582611d65565b602082019050919050565b60006118fd600c83611b9c565b915061190882611d8e565b602082019050919050565b6000611920601283611b9c565b915061192b82611db7565b602082019050919050565b6000611943600d83611b9c565b915061194e82611de0565b602082019050919050565b6000611966602483611b9c565b915061197182611e09565b604082019050919050565b6000611989602583611b9c565b915061199482611e58565b604082019050919050565b60006119ac601283611b9c565b91506119b782611ea7565b602082019050919050565b60006119cf600e83611b9c565b91506119da82611ed0565b602082019050919050565b6119ee81611c75565b82525050565b6119fd81611c7f565b82525050565b6000602082019050611a186000830184611876565b92915050565b6000602082019050611a336000830184611885565b92915050565b60006020820190508181036000830152611a538184611894565b905092915050565b60006020820190508181036000830152611a74816118cd565b9050919050565b60006020820190508181036000830152611a94816118f0565b9050919050565b60006020820190508181036000830152611ab481611913565b9050919050565b60006020820190508181036000830152611ad481611936565b9050919050565b60006020820190508181036000830152611af481611959565b9050919050565b60006020820190508181036000830152611b148161197c565b9050919050565b60006020820190508181036000830152611b348161199f565b9050919050565b60006020820190508181036000830152611b54816119c2565b9050919050565b6000602082019050611b7060008301846119e5565b92915050565b6000602082019050611b8b60008301846119f4565b92915050565b600081519050919050565b600082825260208201905092915050565b6000611bb882611c75565b9150611bc383611c75565b9250827fffffffffffffffffffffffffffffffffffffffffffffffffffffffffffffffff03821115611bf857611bf7611cf1565b5b828201905092915050565b6000611c0e82611c75565b9150611c1983611c75565b925082821015611c2c57611c2b611cf1565b5b828203905092915050565b6000611c4282611c55565b9050919050565b60008115159050919050565b600073ffffffffffffffffffffffffffffffffffffffff82169050919050565b6000819050919050565b600060ff82169050919050565b60005b83811015611caa578082015181840152602081019050611c8f565b83811115611cb9576000848401525b50505050565b60006002820490506001821680611cd757607f821691505b60208210811415611ceb57611cea611d20565b5b50919050565b7f4e487b7100000000000000000000000000000000000000000000000000000000600052601160045260246000fd5b7f4e487b7100000000000000000000000000000000000000000000000000000000600052602260045260246000fd5b600080fd5b6000601f19601f8301169050919050565b7f42616c616e636520746f6f206c6f770000000000000000000000000000000000600082015250565b7f50617573652064656e6965640000000000000000000000000000000000000000600082015250565b7f4d696e74204163636573732044656e6965640000000000000000000000000000600082015250565b7f4d757374206265206f776e657200000000000000000000000000000000000000600082015250565b7f526571756573746564204275726e2067726561746572207468616e206170707260008201527f6f76616c00000000000000000000000000000000000000000000000000000000602082015250565b7f5472616e7366657220616d6f756e742067726561746572207468616e2061707060008201527f726f76616c000000000000000000000000000000000000000000000000000000602082015250565b7f436f6e7472616374206973207061757365640000000000000000000000000000600082015250565b7f556e70617573652064656e696564000000000000000000000000000000000000600082015250565b611f0281611c37565b8114611f0d57600080fd5b50565b611f1981611c75565b8114611f2457600080fd5b5056fea2646970667358221220237dcc466497fb32715e756db64f0e97fe00e0d51794c69b68ed98be61471a4564736f6c63430008070033",
  "devdoc": {
    "kind": "dev",
    "methods": {},
    "version": 1
  },
  "userdoc": {
    "kind": "user",
    "methods": {},
    "version": 1
  },
  "storageLayout": {
    "storage": [
      {
        "astId": 687,
        "contract": "contracts/crops/Corn.sol:Corn",
        "label": "owner",
        "offset": 0,
        "slot": "0",
        "type": "t_address"
      },
      {
        "astId": 727,
        "contract": "contracts/crops/Corn.sol:Corn",
        "label": "paused",
        "offset": 20,
        "slot": "0",
        "type": "t_bool"
      },
      {
        "astId": 731,
        "contract": "contracts/crops/Corn.sol:Corn",
        "label": "pausers",
        "offset": 0,
        "slot": "1",
        "type": "t_mapping(t_address,t_bool)"
      },
      {
        "astId": 860,
        "contract": "contracts/crops/Corn.sol:Corn",
        "label": "name",
        "offset": 0,
        "slot": "2",
        "type": "t_string_storage"
      },
      {
        "astId": 862,
        "contract": "contracts/crops/Corn.sol:Corn",
        "label": "symbol",
        "offset": 0,
        "slot": "3",
        "type": "t_string_storage"
      },
      {
        "astId": 865,
        "contract": "contracts/crops/Corn.sol:Corn",
        "label": "totalSupply",
        "offset": 0,
        "slot": "4",
        "type": "t_uint256"
      },
      {
        "astId": 872,
        "contract": "contracts/crops/Corn.sol:Corn",
        "label": "balanceOf",
        "offset": 0,
        "slot": "5",
        "type": "t_mapping(t_uint256,t_uint256)"
      },
      {
        "astId": 878,
        "contract": "contracts/crops/Corn.sol:Corn",
        "label": "transferAllowance",
        "offset": 0,
        "slot": "6",
        "type": "t_mapping(t_uint256,t_mapping(t_uint256,t_uint256))"
      },
      {
        "astId": 326,
        "contract": "contracts/crops/Corn.sol:Corn",
        "label": "burnAllowance",
        "offset": 0,
        "slot": "7",
        "type": "t_mapping(t_address,t_mapping(t_uint256,t_uint256))"
      },
      {
        "astId": 614,
        "contract": "contracts/crops/Corn.sol:Corn",
        "label": "minters",
        "offset": 0,
        "slot": "8",
        "type": "t_mapping(t_address,t_bool)"
      }
    ],
    "types": {
      "t_address": {
        "encoding": "inplace",
        "label": "address",
        "numberOfBytes": "20"
      },
      "t_bool": {
        "encoding": "inplace",
        "label": "bool",
        "numberOfBytes": "1"
      },
      "t_mapping(t_address,t_bool)": {
        "encoding": "mapping",
        "key": "t_address",
        "label": "mapping(address => bool)",
        "numberOfBytes": "32",
        "value": "t_bool"
      },
      "t_mapping(t_address,t_mapping(t_uint256,t_uint256))": {
        "encoding": "mapping",
        "key": "t_address",
        "label": "mapping(address => mapping(uint256 => uint256))",
        "numberOfBytes": "32",
        "value": "t_mapping(t_uint256,t_uint256)"
      },
      "t_mapping(t_uint256,t_mapping(t_uint256,t_uint256))": {
        "encoding": "mapping",
        "key": "t_uint256",
        "label": "mapping(uint256 => mapping(uint256 => uint256))",
        "numberOfBytes": "32",
        "value": "t_mapping(t_uint256,t_uint256)"
      },
      "t_mapping(t_uint256,t_uint256)": {
        "encoding": "mapping",
        "key": "t_uint256",
        "label": "mapping(uint256 => uint256)",
        "numberOfBytes": "32",
        "value": "t_uint256"
      },
      "t_string_storage": {
        "encoding": "bytes",
        "label": "string",
        "numberOfBytes": "32"
      },
      "t_uint256": {
        "encoding": "inplace",
        "label": "uint256",
        "numberOfBytes": "32"
      }
    }
  }
}