{
  "address": "0x4C2F7092C2aE51D986bEFEe378e50BD4dB99C901",
  "abi": [
    {
      "inputs": [
        {
          "internalType": "address",
          "name": "_grain",
          "type": "address"
        },
        {
          "internalType": "address",
          "name": "_fruit",
          "type": "address"
        },
        {
          "internalType": "address",
          "name": "_veggie",
          "type": "address"
        }
      ],
      "stateMutability": "nonpayable",
      "type": "constructor"
    },
    {
      "inputs": [
        {
          "components": [
            {
              "internalType": "uint256",
              "name": "summoner",
              "type": "uint256"
            },
            {
              "internalType": "uint8",
              "name": "farm",
              "type": "uint8"
            },
            {
              "internalType": "uint8",
              "name": "resource",
              "type": "uint8"
            }
          ],
          "internalType": "struct FarmProxy.Routine[]",
          "name": "routines",
          "type": "tuple[]"
        }
      ],
      "name": "executeRoutines",
      "outputs": [],
      "stateMutability": "nonpayable",
      "type": "function"
    }
  ],
  "transactionHash": "0x5e45c897f4b6bf527563919d972fe2a66b974fcf999ef8850d2a2b8abb4e9dd7",
  "args": [
    "0x2B0d36FACD61B71CC05ab8F3D2355ec3631C0dd5",
    "0x51A1ceB83B83F1985a81C295d1fF28Afef186E02",
    "0xf4B146FbA71F41E0592668ffbF264F1D186b2Ca8"
  ],
  "solcInputHash": "0646f8583f9c8fa3488c002332d9bd8c",
  "bytecode": "0x608060405234801561001057600080fd5b506040516108eb3803806108eb83398181016040528101906100329190610111565b826000806101000a81548173ffffffffffffffffffffffffffffffffffffffff021916908373ffffffffffffffffffffffffffffffffffffffff16021790555081600160006101000a81548173ffffffffffffffffffffffffffffffffffffffff021916908373ffffffffffffffffffffffffffffffffffffffff16021790555080600260006101000a81548173ffffffffffffffffffffffffffffffffffffffff021916908373ffffffffffffffffffffffffffffffffffffffff1602179055505050506101b2565b60008151905061010b8161019b565b92915050565b60008060006060848603121561012a57610129610196565b5b6000610138868287016100fc565b9350506020610149868287016100fc565b925050604061015a868287016100fc565b9150509250925092565b600061016f82610176565b9050919050565b600073ffffffffffffffffffffffffffffffffffffffff82169050919050565b600080fd5b6101a481610164565b81146101af57600080fd5b50565b61072a806101c16000396000f3fe608060405234801561001057600080fd5b506004361061002b5760003560e01c8063abbb2d6c14610030575b600080fd5b61004a6004803603810190610045919061048b565b61004c565b005b60008151905060005b8181101561035a5760008382815181106100725761007161063e565b5b60200260200101516020015160ff1614156101555760008054906101000a900473ffffffffffffffffffffffffffffffffffffffff1673ffffffffffffffffffffffffffffffffffffffff1663a71038cb8483815181106100d6576100d561063e565b5b6020026020010151600001518584815181106100f5576100f461063e565b5b6020026020010151604001516040518363ffffffff1660e01b815260040161011e9291906104f2565b600060405180830381600087803b15801561013857600080fd5b505af115801561014c573d6000803e3d6000fd5b50505050610347565b600183828151811061016a5761016961063e565b5b60200260200101516020015160ff16141561024f57600160009054906101000a900473ffffffffffffffffffffffffffffffffffffffff1673ffffffffffffffffffffffffffffffffffffffff1663a71038cb8483815181106101d0576101cf61063e565b5b6020026020010151600001518584815181106101ef576101ee61063e565b5b6020026020010151604001516040518363ffffffff1660e01b81526004016102189291906104f2565b600060405180830381600087803b15801561023257600080fd5b505af1158015610246573d6000803e3d6000fd5b50505050610346565b60028382815181106102645761026361063e565b5b60200260200101516020015160ff16141561034557600260009054906101000a900473ffffffffffffffffffffffffffffffffffffffff1673ffffffffffffffffffffffffffffffffffffffff1663a71038cb8483815181106102ca576102c961063e565b5b6020026020010151600001518584815181106102e9576102e861063e565b5b6020026020010151604001516040518363ffffffff1660e01b81526004016103129291906104f2565b600060405180830381600087803b15801561032c57600080fd5b505af1158015610340573d6000803e3d6000fd5b505050505b5b5b8080610352906105c6565b915050610055565b505050565b600061037261036d84610540565b61051b565b90508083825260208201905082856060860282011115610395576103946106a6565b5b60005b858110156103c557816103ab88826103fd565b845260208401935060608301925050600181019050610398565b5050509392505050565b600082601f8301126103e4576103e361069c565b5b81356103f484826020860161035f565b91505092915050565b600060608284031215610413576104126106a1565b5b61041d606061051b565b9050600061042d84828501610461565b600083015250602061044184828501610476565b602083015250604061045584828501610476565b60408301525092915050565b600081359050610470816106c6565b92915050565b600081359050610485816106dd565b92915050565b6000602082840312156104a1576104a06106b0565b5b600082013567ffffffffffffffff8111156104bf576104be6106ab565b5b6104cb848285016103cf565b91505092915050565b6104dd8161056c565b82525050565b6104ec81610583565b82525050565b600060408201905061050760008301856104d4565b61051460208301846104e3565b9392505050565b6000610525610536565b90506105318282610595565b919050565b6000604051905090565b600067ffffffffffffffff82111561055b5761055a61066d565b5b602082029050602081019050919050565b6000819050919050565b600060ff82169050919050565b600061058e82610576565b9050919050565b61059e826106b5565b810181811067ffffffffffffffff821117156105bd576105bc61066d565b5b80604052505050565b60006105d18261056c565b91507fffffffffffffffffffffffffffffffffffffffffffffffffffffffffffffffff8214156106045761060361060f565b5b600182019050919050565b7f4e487b7100000000000000000000000000000000000000000000000000000000600052601160045260246000fd5b7f4e487b7100000000000000000000000000000000000000000000000000000000600052603260045260246000fd5b7f4e487b7100000000000000000000000000000000000000000000000000000000600052604160045260246000fd5b600080fd5b600080fd5b600080fd5b600080fd5b600080fd5b6000601f19601f8301169050919050565b6106cf8161056c565b81146106da57600080fd5b50565b6106e681610576565b81146106f157600080fd5b5056fea264697066735822122002dd512b5560b7648c14bf5c3ec153885035488b8d35e4df9b86fa86edb04b0764736f6c63430008070033",
  "devdoc": {
    "kind": "dev",
    "methods": {},
    "version": 1
  },
  "userdoc": {
    "kind": "user",
    "methods": {},
    "version": 1
  },
  "storageLayout": {
    "storage": [
      {
        "astId": 4696,
        "contract": "contracts/proxies/FarmProxy.sol:FarmProxy",
        "label": "grain",
        "offset": 0,
        "slot": "0",
        "type": "t_contract(IFarm)4677"
      },
      {
        "astId": 4699,
        "contract": "contracts/proxies/FarmProxy.sol:FarmProxy",
        "label": "fruit",
        "offset": 0,
        "slot": "1",
        "type": "t_contract(IFarm)4677"
      },
      {
        "astId": 4702,
        "contract": "contracts/proxies/FarmProxy.sol:FarmProxy",
        "label": "veggie",
        "offset": 0,
        "slot": "2",
        "type": "t_contract(IFarm)4677"
      }
    ],
    "types": {
      "t_contract(IFarm)4677": {
        "encoding": "inplace",
        "label": "contract IFarm",
        "numberOfBytes": "20"
      }
    }
  }
}