{
  "address": "0xf4B146FbA71F41E0592668ffbF264F1D186b2Ca8",
  "abi": [
    {
      "inputs": [
        {
          "internalType": "address",
          "name": "_barley",
          "type": "address"
        },
        {
          "internalType": "address",
          "name": "_bean",
          "type": "address"
        },
        {
          "internalType": "address",
          "name": "_corn",
          "type": "address"
        },
        {
          "internalType": "address",
          "name": "_wheat",
          "type": "address"
        }
      ],
      "stateMutability": "nonpayable",
      "type": "constructor"
    },
    {
      "anonymous": false,
      "inputs": [
        {
          "indexed": true,
          "internalType": "uint256",
          "name": "_summoner",
          "type": "uint256"
        },
        {
          "indexed": false,
          "internalType": "address",
          "name": "_resource",
          "type": "address"
        },
        {
          "indexed": false,
          "internalType": "uint256",
          "name": "_amount",
          "type": "uint256"
        }
      ],
      "name": "FarmResource",
      "type": "event"
    },
    {
      "inputs": [
        {
          "internalType": "address",
          "name": "addr",
          "type": "address"
        }
      ],
      "name": "addPauser",
      "outputs": [],
      "stateMutability": "nonpayable",
      "type": "function"
    },
    {
      "inputs": [],
      "name": "clearDisaster",
      "outputs": [],
      "stateMutability": "nonpayable",
      "type": "function"
    },
    {
      "inputs": [],
      "name": "disaster",
      "outputs": [
        {
          "internalType": "address",
          "name": "",
          "type": "address"
        }
      ],
      "stateMutability": "view",
      "type": "function"
    },
    {
      "inputs": [
        {
          "internalType": "uint256",
          "name": "summoner",
          "type": "uint256"
        },
        {
          "internalType": "uint8",
          "name": "id",
          "type": "uint8"
        }
      ],
      "name": "farm",
      "outputs": [],
      "stateMutability": "nonpayable",
      "type": "function"
    },
    {
      "inputs": [],
      "name": "name",
      "outputs": [
        {
          "internalType": "string",
          "name": "",
          "type": "string"
        }
      ],
      "stateMutability": "view",
      "type": "function"
    },
    {
      "inputs": [],
      "name": "owner",
      "outputs": [
        {
          "internalType": "address",
          "name": "",
          "type": "address"
        }
      ],
      "stateMutability": "view",
      "type": "function"
    },
    {
      "inputs": [],
      "name": "pause",
      "outputs": [],
      "stateMutability": "nonpayable",
      "type": "function"
    },
    {
      "inputs": [],
      "name": "paused",
      "outputs": [
        {
          "internalType": "bool",
          "name": "",
          "type": "bool"
        }
      ],
      "stateMutability": "view",
      "type": "function"
    },
    {
      "inputs": [
        {
          "internalType": "address",
          "name": "",
          "type": "address"
        }
      ],
      "name": "pausers",
      "outputs": [
        {
          "internalType": "bool",
          "name": "",
          "type": "bool"
        }
      ],
      "stateMutability": "view",
      "type": "function"
    },
    {
      "inputs": [
        {
          "internalType": "address",
          "name": "addr",
          "type": "address"
        }
      ],
      "name": "removePauser",
      "outputs": [],
      "stateMutability": "nonpayable",
      "type": "function"
    },
    {
      "inputs": [
        {
          "internalType": "uint8",
          "name": "",
          "type": "uint8"
        }
      ],
      "name": "resources",
      "outputs": [
        {
          "internalType": "contract IResource",
          "name": "resource",
          "type": "address"
        },
        {
          "internalType": "uint8",
          "name": "multiplier",
          "type": "uint8"
        }
      ],
      "stateMutability": "view",
      "type": "function"
    },
    {
      "inputs": [
        {
          "internalType": "address",
          "name": "_addr",
          "type": "address"
        }
      ],
      "name": "setDisaster",
      "outputs": [],
      "stateMutability": "nonpayable",
      "type": "function"
    },
    {
      "inputs": [
        {
          "internalType": "uint8",
          "name": "_one",
          "type": "uint8"
        },
        {
          "internalType": "uint8",
          "name": "_two",
          "type": "uint8"
        },
        {
          "internalType": "uint8",
          "name": "_three",
          "type": "uint8"
        },
        {
          "internalType": "uint8",
          "name": "_four",
          "type": "uint8"
        }
      ],
      "name": "setMultipliers",
      "outputs": [],
      "stateMutability": "nonpayable",
      "type": "function"
    },
    {
      "inputs": [
        {
          "internalType": "address",
          "name": "_owner",
          "type": "address"
        }
      ],
      "name": "setOwner",
      "outputs": [],
      "stateMutability": "nonpayable",
      "type": "function"
    },
    {
      "inputs": [],
      "name": "unpause",
      "outputs": [],
      "stateMutability": "nonpayable",
      "type": "function"
    }
  ],
  "transactionHash": "0xf0b31849bba8a3119a088dbd01597ca9e3dfa591550b72b555d38f1a131e70d5",
  "args": [
    "0xFD471836031dc5108809D173A067e8486B9047A3",
    "0xcbEAF3BDe82155F56486Fb5a1072cb8baAf547cc",
    "0x7bc06c482DEAd17c0e297aFbC32f6e63d3846650",
    "0xc351628EB244ec633d5f21fBD6621e1a683B1181"
  ],
  "solcInputHash": "0465f40845a54abfaf9594fcdda40e4e",
  "bytecode": "0x60806040523480156200001157600080fd5b50604051620019643803806200196483398181016040528101906200003791906200042d565b838383836000600160006101000a81548173ffffffffffffffffffffffffffffffffffffffff021916908373ffffffffffffffffffffffffffffffffffffffff16021790555033600060016101000a81548173ffffffffffffffffffffffffffffffffffffffff021916908373ffffffffffffffffffffffffffffffffffffffff16021790555060008060006101000a81548160ff02191690831515021790555083600460008060ff16815260200190815260200160002060000160006101000a81548173ffffffffffffffffffffffffffffffffffffffff021916908373ffffffffffffffffffffffffffffffffffffffff1602179055506003600460008060ff16815260200190815260200160002060000160146101000a81548160ff021916908360ff1602179055508260046000600160ff16815260200190815260200160002060000160006101000a81548173ffffffffffffffffffffffffffffffffffffffff021916908373ffffffffffffffffffffffffffffffffffffffff160217905550600360046000600160ff16815260200190815260200160002060000160146101000a81548160ff021916908360ff1602179055508160046000600260ff16815260200190815260200160002060000160006101000a81548173ffffffffffffffffffffffffffffffffffffffff021916908373ffffffffffffffffffffffffffffffffffffffff160217905550600360046000600260ff16815260200190815260200160002060000160146101000a81548160ff021916908360ff1602179055508060046000600360ff16815260200190815260200160002060000160006101000a81548173ffffffffffffffffffffffffffffffffffffffff021916908373ffffffffffffffffffffffffffffffffffffffff160217905550600360046000600360ff16815260200190815260200160002060000160146101000a81548160ff021916908360ff160217905550505050506040518060400160405280600581526020017f477261696e000000000000000000000000000000000000000000000000000000815250600290805190602001906200035b92919062000366565b505050505062000557565b8280546200037490620004d3565b90600052602060002090601f016020900481019282620003985760008555620003e4565b82601f10620003b357805160ff1916838001178555620003e4565b82800160010185558215620003e4579182015b82811115620003e3578251825591602001919060010190620003c6565b5b509050620003f39190620003f7565b5090565b5b8082111562000412576000816000905550600101620003f8565b5090565b60008151905062000427816200053d565b92915050565b600080600080608085870312156200044a576200044962000538565b5b60006200045a8782880162000416565b94505060206200046d8782880162000416565b9350506040620004808782880162000416565b9250506060620004938782880162000416565b91505092959194509250565b6000620004ac82620004b3565b9050919050565b600073ffffffffffffffffffffffffffffffffffffffff82169050919050565b60006002820490506001821680620004ec57607f821691505b6020821081141562000503576200050262000509565b5b50919050565b7f4e487b7100000000000000000000000000000000000000000000000000000000600052602260045260246000fd5b600080fd5b62000548816200049f565b81146200055457600080fd5b50565b6113fd80620005676000396000f3fe608060405234801561001057600080fd5b50600436106100f55760003560e01c80636b2c0f55116100975780638da5cb5b116100665780638da5cb5b1461021257806398cd03ce14610230578063bad6a14e1461024c578063df0e52a914610268576100f5565b80636b2c0f55146101a057806380f51c12146101bc57806382dc1ec4146101ec5780638456cb5914610208576100f5565b80633f4ba83a116100d35780633f4ba83a146101525780634d34f8551461015c5780635c975abb146101785780636240f0f414610196576100f5565b806306fdde03146100fa5780630c923d831461011857806313af403514610136575b600080fd5b610102610299565b60405161010f9190611022565b60405180910390f35b610120610327565b60405161012d9190610f9a565b60405180910390f35b610150600480360381019061014b9190610d89565b61034d565b005b61015a6103d9565b005b61017660048036038101906101719190610d89565b610491565b005b61018061058f565b60405161018d9190610fde565b60405180910390f35b61019e6105a0565b005b6101ba60048036038101906101b59190610d89565b6106f6565b005b6101d660048036038101906101d19190610d89565b610799565b6040516101e39190610fde565b60405180910390f35b61020660048036038101906102019190610d89565b6107b9565b005b61021061085c565b005b61021a610914565b6040516102279190610f9a565b60405180910390f35b61024a60048036038101906102459190610e23565b61093a565b005b61026660048036038101906102619190610db6565b610a0b565b005b610282600480360381019061027d9190610df6565b610af5565b604051610290929190610ff9565b60405180910390f35b600280546102a690611238565b80601f01602080910402602001604051908101604052809291908181526020018280546102d290611238565b801561031f5780601f106102f45761010080835404028352916020019161031f565b820191906000526020600020905b81548152906001019060200180831161030257829003601f168201915b505050505081565b600160009054906101000a900473ffffffffffffffffffffffffffffffffffffffff1681565b61035633610b46565b610395576040517f08c379a000000000000000000000000000000000000000000000000000000000815260040161038c90611084565b60405180910390fd5b80600060016101000a81548173ffffffffffffffffffffffffffffffffffffffff021916908373ffffffffffffffffffffffffffffffffffffffff16021790555050565b6103e233610b46565b806104365750600360003373ffffffffffffffffffffffffffffffffffffffff1673ffffffffffffffffffffffffffffffffffffffff16815260200190815260200160002060009054906101000a900460ff165b610475576040517f08c379a000000000000000000000000000000000000000000000000000000000815260040161046c90611084565b60405180910390fd5b60008060006101000a81548160ff021916908315150217905550565b61049a33610b46565b6104d9576040517f08c379a00000000000000000000000000000000000000000000000000000000081526004016104d090611084565b60405180910390fd5b6001600360008373ffffffffffffffffffffffffffffffffffffffff1673ffffffffffffffffffffffffffffffffffffffff16815260200190815260200160002060006101000a81548160ff02191690831515021790555080600160006101000a81548173ffffffffffffffffffffffffffffffffffffffff021916908373ffffffffffffffffffffffffffffffffffffffff16021790555060016000806101000a81548160ff02191690831515021790555050565b60008054906101000a900460ff1681565b6105a933610b46565b8061060157503373ffffffffffffffffffffffffffffffffffffffff16600160009054906101000a900473ffffffffffffffffffffffffffffffffffffffff1673ffffffffffffffffffffffffffffffffffffffff16145b610640576040517f08c379a000000000000000000000000000000000000000000000000000000000815260040161063790611044565b60405180910390fd5b6000600360003373ffffffffffffffffffffffffffffffffffffffff1673ffffffffffffffffffffffffffffffffffffffff16815260200190815260200160002060006101000a81548160ff0219169083151502179055506000600160006101000a81548173ffffffffffffffffffffffffffffffffffffffff021916908373ffffffffffffffffffffffffffffffffffffffff16021790555060008060006101000a81548160ff021916908315150217905550565b6106ff33610b46565b61073e576040517f08c379a000000000000000000000000000000000000000000000000000000000815260040161073590611084565b60405180910390fd5b6000600360008373ffffffffffffffffffffffffffffffffffffffff1673ffffffffffffffffffffffffffffffffffffffff16815260200190815260200160002060006101000a81548160ff02191690831515021790555050565b60036020528060005260406000206000915054906101000a900460ff1681565b6107c233610b46565b610801576040517f08c379a00000000000000000000000000000000000000000000000000000000081526004016107f890611084565b60405180910390fd5b6001600360008373ffffffffffffffffffffffffffffffffffffffff1673ffffffffffffffffffffffffffffffffffffffff16815260200190815260200160002060006101000a81548160ff02191690831515021790555050565b61086533610b46565b806108b95750600360003373ffffffffffffffffffffffffffffffffffffffff1673ffffffffffffffffffffffffffffffffffffffff16815260200190815260200160002060009054906101000a900460ff165b6108f8576040517f08c379a00000000000000000000000000000000000000000000000000000000081526004016108ef90611084565b60405180910390fd5b60016000806101000a81548160ff021916908315150217905550565b600060019054906101000a900473ffffffffffffffffffffffffffffffffffffffff1681565b83600460008060ff16815260200190815260200160002060000160146101000a81548160ff021916908360ff1602179055508260046000600160ff16815260200190815260200160002060000160146101000a81548160ff021916908360ff1602179055508160046000600260ff16815260200190815260200160002060000160146101000a81548160ff021916908360ff1602179055508060046000600360ff16815260200190815260200160002060000160146101000a81548160ff021916908360ff16021790555050505050565b60048160ff1610610a51576040517f08c379a0000000000000000000000000000000000000000000000000000000008152600401610a4890611064565b60405180910390fd5b610af182600460008460ff1660ff1681526020019081526020016000206040518060400160405290816000820160009054906101000a900473ffffffffffffffffffffffffffffffffffffffff1673ffffffffffffffffffffffffffffffffffffffff1673ffffffffffffffffffffffffffffffffffffffff1681526020016000820160149054906101000a900460ff1660ff1660ff1681525050610ba0565b5050565b60046020528060005260406000206000915090508060000160009054906101000a900473ffffffffffffffffffffffffffffffffffffffff16908060000160149054906101000a900460ff16905082565b60008173ffffffffffffffffffffffffffffffffffffffff16600060019054906101000a900473ffffffffffffffffffffffffffffffffffffffff1673ffffffffffffffffffffffffffffffffffffffff16149050919050565b60008054906101000a900460ff1615610bee576040517f08c379a0000000000000000000000000000000000000000000000000000000008152600401610be5906110a4565b60405180910390fd5b73ce761d788df608bd21bdd59d6f4b54b2e27f25bb73ffffffffffffffffffffffffffffffffffffffff1663b00b52f1836040518263ffffffff1660e01b8152600401610c3b91906110c4565b600060405180830381600087803b158015610c5557600080fd5b505af1158015610c69573d6000803e3d6000fd5b505050506000670de0b6b3a7640000826020015160ff16610c8a9190611124565b67ffffffffffffffff169050816000015173ffffffffffffffffffffffffffffffffffffffff16631b2ef1ca84836040518363ffffffff1660e01b8152600401610cd59291906110df565b600060405180830381600087803b158015610cef57600080fd5b505af1158015610d03573d6000803e3d6000fd5b50505050827f80a9397ea92336d8c6fbaac2456f7ab26b0f234c63260e2587c29af8359ea7f2836000015183604051610d3d929190610fb5565b60405180910390a2505050565b600081359050610d5981611382565b92915050565b600081359050610d6e81611399565b92915050565b600081359050610d83816113b0565b92915050565b600060208284031215610d9f57610d9e6112c8565b5b6000610dad84828501610d4a565b91505092915050565b60008060408385031215610dcd57610dcc6112c8565b5b6000610ddb85828601610d5f565b9250506020610dec85828601610d74565b9150509250929050565b600060208284031215610e0c57610e0b6112c8565b5b6000610e1a84828501610d74565b91505092915050565b60008060008060808587031215610e3d57610e3c6112c8565b5b6000610e4b87828801610d74565b9450506020610e5c87828801610d74565b9350506040610e6d87828801610d74565b9250506060610e7e87828801610d74565b91505092959194509250565b610e9381611166565b82525050565b610ea281611178565b82525050565b610eb1816111cf565b82525050565b6000610ec282611108565b610ecc8185611113565b9350610edc818560208601611205565b610ee5816112cd565b840191505092915050565b6000610efd601983611113565b9150610f08826112de565b602082019050919050565b6000610f20600a83611113565b9150610f2b82611307565b602082019050919050565b6000610f43600d83611113565b9150610f4e82611330565b602082019050919050565b6000610f66601283611113565b9150610f7182611359565b602082019050919050565b610f85816111a4565b82525050565b610f94816111c2565b82525050565b6000602082019050610faf6000830184610e8a565b92915050565b6000604082019050610fca6000830185610e8a565b610fd76020830184610f7c565b9392505050565b6000602082019050610ff36000830184610e99565b92915050565b600060408201905061100e6000830185610ea8565b61101b6020830184610f8b565b9392505050565b6000602082019050818103600083015261103c8184610eb7565b905092915050565b6000602082019050818103600083015261105d81610ef0565b9050919050565b6000602082019050818103600083015261107d81610f13565b9050919050565b6000602082019050818103600083015261109d81610f36565b9050919050565b600060208201905081810360008301526110bd81610f59565b9050919050565b60006020820190506110d96000830184610f7c565b92915050565b60006040820190506110f46000830185610f7c565b6111016020830184610f7c565b9392505050565b600081519050919050565b600082825260208201905092915050565b600061112f826111ae565b915061113a836111ae565b92508167ffffffffffffffff048311821515161561115b5761115a61126a565b5b828202905092915050565b600061117182611184565b9050919050565b60008115159050919050565b600073ffffffffffffffffffffffffffffffffffffffff82169050919050565b6000819050919050565b600067ffffffffffffffff82169050919050565b600060ff82169050919050565b60006111da826111e1565b9050919050565b60006111ec826111f3565b9050919050565b60006111fe82611184565b9050919050565b60005b83811015611223578082015181840152602081019050611208565b83811115611232576000848401525b50505050565b6000600282049050600182168061125057607f821691505b6020821081141561126457611263611299565b5b50919050565b7f4e487b7100000000000000000000000000000000000000000000000000000000600052601160045260246000fd5b7f4e487b7100000000000000000000000000000000000000000000000000000000600052602260045260246000fd5b600080fd5b6000601f19601f8301169050919050565b7f4d757374206265206f776e6572206f7220646973617374657200000000000000600082015250565b7f496e76616c696420496400000000000000000000000000000000000000000000600082015250565b7f4d757374206265206f776e657200000000000000000000000000000000000000600082015250565b7f4661726d206e6f7420617661696c61626c650000000000000000000000000000600082015250565b61138b81611166565b811461139657600080fd5b50565b6113a2816111a4565b81146113ad57600080fd5b50565b6113b9816111c2565b81146113c457600080fd5b5056fea2646970667358221220565b2a7dcfdc9d39dbe3b8ff322177c8b48671936eac7842bca5a1abcc7df3d664736f6c63430008070033",
  "devdoc": {
    "kind": "dev",
    "methods": {},
    "version": 1
  },
  "userdoc": {
    "kind": "user",
    "methods": {},
    "version": 1
  },
  "storageLayout": {
    "storage": [
      {
        "astId": 17,
        "contract": "contracts/farms/grain/GrainFarm.sol:GrainFarm",
        "label": "paused",
        "offset": 0,
        "slot": "0",
        "type": "t_bool"
      },
      {
        "astId": 19,
        "contract": "contracts/farms/grain/GrainFarm.sol:GrainFarm",
        "label": "owner",
        "offset": 1,
        "slot": "0",
        "type": "t_address"
      },
      {
        "astId": 21,
        "contract": "contracts/farms/grain/GrainFarm.sol:GrainFarm",
        "label": "disaster",
        "offset": 0,
        "slot": "1",
        "type": "t_address"
      },
      {
        "astId": 23,
        "contract": "contracts/farms/grain/GrainFarm.sol:GrainFarm",
        "label": "name",
        "offset": 0,
        "slot": "2",
        "type": "t_string_storage"
      },
      {
        "astId": 39,
        "contract": "contracts/farms/grain/GrainFarm.sol:GrainFarm",
        "label": "pausers",
        "offset": 0,
        "slot": "3",
        "type": "t_mapping(t_address,t_bool)"
      },
      {
        "astId": 44,
        "contract": "contracts/farms/grain/GrainFarm.sol:GrainFarm",
        "label": "resources",
        "offset": 0,
        "slot": "4",
        "type": "t_mapping(t_uint8,t_struct(Resource)35_storage)"
      }
    ],
    "types": {
      "t_address": {
        "encoding": "inplace",
        "label": "address",
        "numberOfBytes": "20"
      },
      "t_bool": {
        "encoding": "inplace",
        "label": "bool",
        "numberOfBytes": "1"
      },
      "t_contract(IResource)15": {
        "encoding": "inplace",
        "label": "contract IResource",
        "numberOfBytes": "20"
      },
      "t_mapping(t_address,t_bool)": {
        "encoding": "mapping",
        "key": "t_address",
        "label": "mapping(address => bool)",
        "numberOfBytes": "32",
        "value": "t_bool"
      },
      "t_mapping(t_uint8,t_struct(Resource)35_storage)": {
        "encoding": "mapping",
        "key": "t_uint8",
        "label": "mapping(uint8 => struct NewFarm.Resource)",
        "numberOfBytes": "32",
        "value": "t_struct(Resource)35_storage"
      },
      "t_string_storage": {
        "encoding": "bytes",
        "label": "string",
        "numberOfBytes": "32"
      },
      "t_struct(Resource)35_storage": {
        "encoding": "inplace",
        "label": "struct NewFarm.Resource",
        "members": [
          {
            "astId": 32,
            "contract": "contracts/farms/grain/GrainFarm.sol:GrainFarm",
            "label": "resource",
            "offset": 0,
            "slot": "0",
            "type": "t_contract(IResource)15"
          },
          {
            "astId": 34,
            "contract": "contracts/farms/grain/GrainFarm.sol:GrainFarm",
            "label": "multiplier",
            "offset": 20,
            "slot": "0",
            "type": "t_uint8"
          }
        ],
        "numberOfBytes": "32"
      },
      "t_uint8": {
        "encoding": "inplace",
        "label": "uint8",
        "numberOfBytes": "1"
      }
    }
  }
}