{
  "address": "0x4631BCAbD6dF18D94796344963cB60d44a4136b6",
  "abi": [
    {
      "inputs": [
        {
          "internalType": "address",
          "name": "_barley",
          "type": "address"
        },
        {
          "internalType": "address",
          "name": "_bean",
          "type": "address"
        },
        {
          "internalType": "address",
          "name": "_corn",
          "type": "address"
        },
        {
          "internalType": "address",
          "name": "_wheat",
          "type": "address"
        }
      ],
      "stateMutability": "nonpayable",
      "type": "constructor"
    },
    {
      "anonymous": false,
      "inputs": [
        {
          "indexed": true,
          "internalType": "uint256",
          "name": "_summoner",
          "type": "uint256"
        },
        {
          "indexed": false,
          "internalType": "address",
          "name": "_resource",
          "type": "address"
        },
        {
          "indexed": false,
          "internalType": "uint256",
          "name": "_amount",
          "type": "uint256"
        }
      ],
      "name": "FarmResource",
      "type": "event"
    },
    {
      "inputs": [
        {
          "internalType": "address",
          "name": "addr",
          "type": "address"
        }
      ],
      "name": "addPauser",
      "outputs": [],
      "stateMutability": "nonpayable",
      "type": "function"
    },
    {
      "inputs": [],
      "name": "clearDisaster",
      "outputs": [],
      "stateMutability": "nonpayable",
      "type": "function"
    },
    {
      "inputs": [],
      "name": "disaster",
      "outputs": [
        {
          "internalType": "address",
          "name": "",
          "type": "address"
        }
      ],
      "stateMutability": "view",
      "type": "function"
    },
    {
      "inputs": [
        {
          "internalType": "uint256",
          "name": "summoner",
          "type": "uint256"
        },
        {
          "internalType": "uint256",
          "name": "id",
          "type": "uint256"
        }
      ],
      "name": "farm",
      "outputs": [],
      "stateMutability": "nonpayable",
      "type": "function"
    },
    {
      "inputs": [],
      "name": "getMultipliers",
      "outputs": [
        {
          "internalType": "uint8[4]",
          "name": "",
          "type": "uint8[4]"
        }
      ],
      "stateMutability": "view",
      "type": "function"
    },
    {
      "inputs": [],
      "name": "owner",
      "outputs": [
        {
          "internalType": "address",
          "name": "",
          "type": "address"
        }
      ],
      "stateMutability": "view",
      "type": "function"
    },
    {
      "inputs": [],
      "name": "pause",
      "outputs": [
        {
          "internalType": "bool",
          "name": "",
          "type": "bool"
        }
      ],
      "stateMutability": "nonpayable",
      "type": "function"
    },
    {
      "inputs": [],
      "name": "paused",
      "outputs": [
        {
          "internalType": "bool",
          "name": "",
          "type": "bool"
        }
      ],
      "stateMutability": "view",
      "type": "function"
    },
    {
      "inputs": [
        {
          "internalType": "address",
          "name": "",
          "type": "address"
        }
      ],
      "name": "pausers",
      "outputs": [
        {
          "internalType": "bool",
          "name": "",
          "type": "bool"
        }
      ],
      "stateMutability": "view",
      "type": "function"
    },
    {
      "inputs": [
        {
          "internalType": "address",
          "name": "addr",
          "type": "address"
        }
      ],
      "name": "removePauser",
      "outputs": [],
      "stateMutability": "nonpayable",
      "type": "function"
    },
    {
      "inputs": [
        {
          "internalType": "address",
          "name": "_addr",
          "type": "address"
        }
      ],
      "name": "setDisaster",
      "outputs": [],
      "stateMutability": "nonpayable",
      "type": "function"
    },
    {
      "inputs": [
        {
          "internalType": "uint8",
          "name": "_one",
          "type": "uint8"
        },
        {
          "internalType": "uint8",
          "name": "_two",
          "type": "uint8"
        },
        {
          "internalType": "uint8",
          "name": "_three",
          "type": "uint8"
        },
        {
          "internalType": "uint8",
          "name": "_four",
          "type": "uint8"
        }
      ],
      "name": "setMultipliers",
      "outputs": [],
      "stateMutability": "nonpayable",
      "type": "function"
    },
    {
      "inputs": [
        {
          "internalType": "address",
          "name": "_owner",
          "type": "address"
        }
      ],
      "name": "setOwner",
      "outputs": [
        {
          "internalType": "bool",
          "name": "",
          "type": "bool"
        }
      ],
      "stateMutability": "nonpayable",
      "type": "function"
    },
    {
      "inputs": [],
      "name": "unpause",
      "outputs": [
        {
          "internalType": "bool",
          "name": "",
          "type": "bool"
        }
      ],
      "stateMutability": "nonpayable",
      "type": "function"
    }
  ],
  "transactionHash": "0x48333b9db603761398f39ec737e1ea17b1cb1addbf6da2b546500e232a0f8562",
  "args": [
    "0xFD471836031dc5108809D173A067e8486B9047A3",
    "0xcbEAF3BDe82155F56486Fb5a1072cb8baAf547cc",
    "0x7bc06c482DEAd17c0e297aFbC32f6e63d3846650",
    "0xc351628EB244ec633d5f21fBD6621e1a683B1181"
  ],
  "solcInputHash": "0646f8583f9c8fa3488c002332d9bd8c",
  "bytecode": "0x60806040523480156200001157600080fd5b506040516200185a3803806200185a833981810160405281019062000037919062000264565b8383838360008060006101000a81548160ff02191690831515021790555060018060003373ffffffffffffffffffffffffffffffffffffffff1673ffffffffffffffffffffffffffffffffffffffff16815260200190815260200160002060006101000a81548160ff02191690831515021790555033600260006101000a81548173ffffffffffffffffffffffffffffffffffffffff021916908373ffffffffffffffffffffffffffffffffffffffff1602179055506000600360006101000a81548173ffffffffffffffffffffffffffffffffffffffff021916908373ffffffffffffffffffffffffffffffffffffffff16021790555083600460000160006101000a81548173ffffffffffffffffffffffffffffffffffffffff021916908373ffffffffffffffffffffffffffffffffffffffff16021790555082600460010160006101000a81548173ffffffffffffffffffffffffffffffffffffffff021916908373ffffffffffffffffffffffffffffffffffffffff16021790555081600460020160006101000a81548173ffffffffffffffffffffffffffffffffffffffff021916908373ffffffffffffffffffffffffffffffffffffffff16021790555080600460030160006101000a81548173ffffffffffffffffffffffffffffffffffffffff021916908373ffffffffffffffffffffffffffffffffffffffff160217905550505050505050505062000329565b6000815190506200025e816200030f565b92915050565b600080600080608085870312156200028157620002806200030a565b5b600062000291878288016200024d565b9450506020620002a4878288016200024d565b9350506040620002b7878288016200024d565b9250506060620002ca878288016200024d565b91505092959194509250565b6000620002e382620002ea565b9050919050565b600073ffffffffffffffffffffffffffffffffffffffff82169050919050565b600080fd5b6200031a81620002d6565b81146200032657600080fd5b50565b61152180620003396000396000f3fe608060405234801561001057600080fd5b50600436106100ea5760003560e01c806379873f8a1161008c5780638456cb59116100665780638456cb59146102255780638da5cb5b1461024357806398cd03ce14610261578063a71038cb1461027d576100ea565b806379873f8a146101bb57806380f51c12146101d957806382dc1ec414610209576100ea565b80634d34f855116100c85780634d34f8551461015b5780635c975abb146101775780636240f0f4146101955780636b2c0f551461019f576100ea565b80630c923d83146100ef57806313af40351461010d5780633f4ba83a1461013d575b600080fd5b6100f7610299565b60405161010491906110e2565b60405180910390f35b61012760048036038101906101229190610e91565b6102bf565b6040516101349190611141565b60405180910390f35b610145610364565b6040516101529190611141565b60405180910390f35b61017560048036038101906101709190610e91565b610401565b005b61017f61049f565b60405161018c9190611141565b60405180910390f35b61019d6104b0565b005b6101b960048036038101906101b49190610e91565b610580565b005b6101c36105d5565b6040516101d09190611126565b60405180910390f35b6101f360048036038101906101ee9190610e91565b610648565b6040516102009190611141565b60405180910390f35b610223600480360381019061021e9190610e91565b610668565b005b61022d6106bd565b60405161023a9190611141565b60405180910390f35b61024b61075a565b60405161025891906110e2565b60405180910390f35b61027b60048036038101906102769190610efe565b610780565b005b61029760048036038101906102929190610ebe565b6107d2565b005b600360009054906101000a900473ffffffffffffffffffffffffffffffffffffffff1681565b60003373ffffffffffffffffffffffffffffffffffffffff16600260009054906101000a900473ffffffffffffffffffffffffffffffffffffffff1673ffffffffffffffffffffffffffffffffffffffff1614610351576040517f08c379a0000000000000000000000000000000000000000000000000000000008152600401610348906111bc565b60405180910390fd5b61035a826109c8565b5060019050919050565b6000600160003373ffffffffffffffffffffffffffffffffffffffff1673ffffffffffffffffffffffffffffffffffffffff16815260200190815260200160002060009054906101000a900460ff166103f2576040517f08c379a00000000000000000000000000000000000000000000000000000000081526004016103e9906111fc565b60405180910390fd5b6103fa610a14565b6001905090565b61040a33610a30565b610449576040517f08c379a0000000000000000000000000000000000000000000000000000000008152600401610440906111bc565b60405180910390fd5b61045281610a8a565b5080600360006101000a81548173ffffffffffffffffffffffffffffffffffffffff021916908373ffffffffffffffffffffffffffffffffffffffff16021790555061049c610aec565b50565b60008054906101000a900460ff1681565b6104b933610a30565b806104c957506104c833610b08565b5b610508576040517f08c379a00000000000000000000000000000000000000000000000000000000081526004016104ff9061115c565b60405180910390fd5b610533600360009054906101000a900473ffffffffffffffffffffffffffffffffffffffff16610b62565b506000600360006101000a81548173ffffffffffffffffffffffffffffffffffffffff021916908373ffffffffffffffffffffffffffffffffffffffff16021790555061057e610a14565b565b61058933610a30565b6105c8576040517f08c379a00000000000000000000000000000000000000000000000000000000081526004016105bf906111bc565b60405180910390fd5b6105d181610b62565b5050565b6105dd610d79565b6004800160048060200260405190810160405280929190826004801561063e576020028201916000905b82829054906101000a900460ff1660ff16815260200190600101906020826000010492830192600103820291508084116106075790505b5050505050905090565b60016020528060005260406000206000915054906101000a900460ff1681565b61067133610a30565b6106b0576040517f08c379a00000000000000000000000000000000000000000000000000000000081526004016106a7906111bc565b60405180910390fd5b6106b981610a8a565b5050565b6000600160003373ffffffffffffffffffffffffffffffffffffffff1673ffffffffffffffffffffffffffffffffffffffff16815260200190815260200160002060009054906101000a900460ff1661074b576040517f08c379a00000000000000000000000000000000000000000000000000000000081526004016107429061119c565b60405180910390fd5b610753610aec565b6001905090565b600260009054906101000a900473ffffffffffffffffffffffffffffffffffffffff1681565b60405180608001604052808560ff1660ff1681526020018460ff1660ff1681526020018360ff1660ff1681526020018260ff1660ff16815250600480019060046107cb929190610d9b565b5050505050565b60048110610815576040517f08c379a000000000000000000000000000000000000000000000000000000000815260040161080c9061117c565b60405180910390fd5b60008114156108815761087c82600460000160009054906101000a900473ffffffffffffffffffffffffffffffffffffffff1660048001846004811061085e5761085d61137c565b5b602091828204019190069054906101000a900460ff1660ff16610bc4565b6109c4565b60018114156108ed576108e882600460010160009054906101000a900473ffffffffffffffffffffffffffffffffffffffff166004800184600481106108ca576108c961137c565b5b602091828204019190069054906101000a900460ff1660ff16610bc4565b6109c3565b60028114156109595761095482600460020160009054906101000a900473ffffffffffffffffffffffffffffffffffffffff166004800184600481106109365761093561137c565b5b602091828204019190069054906101000a900460ff1660ff16610bc4565b6109c2565b60038114156109c1576109c082600460030160009054906101000a900473ffffffffffffffffffffffffffffffffffffffff166004800184600481106109a2576109a161137c565b5b602091828204019190069054906101000a900460ff1660ff16610bc4565b5b5b5b5b5050565b600081600260006101000a81548173ffffffffffffffffffffffffffffffffffffffff021916908373ffffffffffffffffffffffffffffffffffffffff16021790555060019050919050565b60008060006101000a81548160ff021916908315150217905550565b60008173ffffffffffffffffffffffffffffffffffffffff16600260009054906101000a900473ffffffffffffffffffffffffffffffffffffffff1673ffffffffffffffffffffffffffffffffffffffff16149050919050565b600060018060008473ffffffffffffffffffffffffffffffffffffffff1673ffffffffffffffffffffffffffffffffffffffff16815260200190815260200160002060006101000a81548160ff02191690831515021790555060019050919050565b60016000806101000a81548160ff021916908315150217905550565b60008173ffffffffffffffffffffffffffffffffffffffff16600360009054906101000a900473ffffffffffffffffffffffffffffffffffffffff1673ffffffffffffffffffffffffffffffffffffffff16149050919050565b600080600160008473ffffffffffffffffffffffffffffffffffffffff1673ffffffffffffffffffffffffffffffffffffffff16815260200190815260200160002060006101000a81548160ff02191690831515021790555060019050919050565b610bcc610d5d565b15610c0c576040517f08c379a0000000000000000000000000000000000000000000000000000000008152600401610c03906111dc565b60405180910390fd5b73ce761d788df608bd21bdd59d6f4b54b2e27f25bb73ffffffffffffffffffffffffffffffffffffffff1663b00b52f1846040518263ffffffff1660e01b8152600401610c59919061121c565b600060405180830381600087803b158015610c7357600080fd5b505af1158015610c87573d6000803e3d6000fd5b505050508173ffffffffffffffffffffffffffffffffffffffff16631b2ef1ca84670de0b6b3a764000084610cbc919061129e565b6040518363ffffffff1660e01b8152600401610cd9929190611237565b600060405180830381600087803b158015610cf357600080fd5b505af1158015610d07573d6000803e3d6000fd5b50505050827f80a9397ea92336d8c6fbaac2456f7ab26b0f234c63260e2587c29af8359ea7f283670de0b6b3a764000084610d42919061129e565b604051610d509291906110fd565b60405180910390a2505050565b60006001151560008054906101000a900460ff16151514905090565b6040518060800160405280600490602082028036833780820191505090505090565b826004601f01602090048101928215610e245791602002820160005b83821115610df557835183826101000a81548160ff021916908360ff1602179055509260200192600101602081600001049283019260010302610db7565b8015610e225782816101000a81549060ff0219169055600101602081600001049283019260010302610df5565b505b509050610e319190610e35565b5090565b5b80821115610e4e576000816000905550600101610e36565b5090565b600081359050610e61816114a6565b92915050565b600081359050610e76816114bd565b92915050565b600081359050610e8b816114d4565b92915050565b600060208284031215610ea757610ea66113ab565b5b6000610eb584828501610e52565b91505092915050565b60008060408385031215610ed557610ed46113ab565b5b6000610ee385828601610e67565b9250506020610ef485828601610e67565b9150509250929050565b60008060008060808587031215610f1857610f176113ab565b5b6000610f2687828801610e7c565b9450506020610f3787828801610e7c565b9350506040610f4887828801610e7c565b9250506060610f5987828801610e7c565b91505092959194509250565b6000610f7183836110d3565b60208301905092915050565b610f86816112f8565b82525050565b610f958161126a565b610f9f8184611282565b9250610faa82611260565b8060005b83811015610fdb578151610fc28782610f65565b9650610fcd83611275565b925050600181019050610fae565b505050505050565b610fec8161130a565b82525050565b6000610fff60198361128d565b915061100a826113b0565b602082019050919050565b6000611022600a8361128d565b915061102d826113d9565b602082019050919050565b6000611045600c8361128d565b915061105082611402565b602082019050919050565b6000611068600d8361128d565b91506110738261142b565b602082019050919050565b600061108b60128361128d565b915061109682611454565b602082019050919050565b60006110ae600e8361128d565b91506110b98261147d565b602082019050919050565b6110cd81611336565b82525050565b6110dc81611340565b82525050565b60006020820190506110f76000830184610f7d565b92915050565b60006040820190506111126000830185610f7d565b61111f60208301846110c4565b9392505050565b600060808201905061113b6000830184610f8c565b92915050565b60006020820190506111566000830184610fe3565b92915050565b6000602082019050818103600083015261117581610ff2565b9050919050565b6000602082019050818103600083015261119581611015565b9050919050565b600060208201905081810360008301526111b581611038565b9050919050565b600060208201905081810360008301526111d58161105b565b9050919050565b600060208201905081810360008301526111f58161107e565b9050919050565b60006020820190508181036000830152611215816110a1565b9050919050565b600060208201905061123160008301846110c4565b92915050565b600060408201905061124c60008301856110c4565b61125960208301846110c4565b9392505050565b6000819050919050565b600060049050919050565b6000602082019050919050565b600081905092915050565b600082825260208201905092915050565b60006112a982611336565b91506112b483611336565b9250817fffffffffffffffffffffffffffffffffffffffffffffffffffffffffffffffff04831182151516156112ed576112ec61134d565b5b828202905092915050565b600061130382611316565b9050919050565b60008115159050919050565b600073ffffffffffffffffffffffffffffffffffffffff82169050919050565b6000819050919050565b600060ff82169050919050565b7f4e487b7100000000000000000000000000000000000000000000000000000000600052601160045260246000fd5b7f4e487b7100000000000000000000000000000000000000000000000000000000600052603260045260246000fd5b600080fd5b7f4d757374206265206f776e6572206f7220646973617374657200000000000000600082015250565b7f496e76616c696420496400000000000000000000000000000000000000000000600082015250565b7f50617573652064656e6965640000000000000000000000000000000000000000600082015250565b7f4d757374206265206f776e657200000000000000000000000000000000000000600082015250565b7f4661726d206e6f7420617661696c61626c650000000000000000000000000000600082015250565b7f556e70617573652064656e696564000000000000000000000000000000000000600082015250565b6114af816112f8565b81146114ba57600080fd5b50565b6114c681611336565b81146114d157600080fd5b50565b6114dd81611340565b81146114e857600080fd5b5056fea2646970667358221220caf79bed2e7e7d684694e5c81697b38ef6ef37843186cd1b0e887dab676ac7d864736f6c63430008070033",
  "devdoc": {
    "kind": "dev",
    "methods": {},
    "version": 1
  },
  "userdoc": {
    "kind": "user",
    "methods": {},
    "version": 1
  },
  "storageLayout": {
    "storage": [
      {
        "astId": 2178,
        "contract": "contracts/farms/grain/GrainFarm.sol:GrainFarm",
        "label": "paused",
        "offset": 0,
        "slot": "0",
        "type": "t_bool"
      },
      {
        "astId": 2182,
        "contract": "contracts/farms/grain/GrainFarm.sol:GrainFarm",
        "label": "pausers",
        "offset": 0,
        "slot": "1",
        "type": "t_mapping(t_address,t_bool)"
      },
      {
        "astId": 2138,
        "contract": "contracts/farms/grain/GrainFarm.sol:GrainFarm",
        "label": "owner",
        "offset": 0,
        "slot": "2",
        "type": "t_address"
      },
      {
        "astId": 1662,
        "contract": "contracts/farms/grain/GrainFarm.sol:GrainFarm",
        "label": "disaster",
        "offset": 0,
        "slot": "3",
        "type": "t_address"
      },
      {
        "astId": 1871,
        "contract": "contracts/farms/grain/GrainFarm.sol:GrainFarm",
        "label": "attributes",
        "offset": 0,
        "slot": "4",
        "type": "t_struct(FarmAttributes)1868_storage"
      }
    ],
    "types": {
      "t_address": {
        "encoding": "inplace",
        "label": "address",
        "numberOfBytes": "20"
      },
      "t_array(t_uint8)4_storage": {
        "base": "t_uint8",
        "encoding": "inplace",
        "label": "uint8[4]",
        "numberOfBytes": "32"
      },
      "t_bool": {
        "encoding": "inplace",
        "label": "bool",
        "numberOfBytes": "1"
      },
      "t_contract(IResource)1843": {
        "encoding": "inplace",
        "label": "contract IResource",
        "numberOfBytes": "20"
      },
      "t_mapping(t_address,t_bool)": {
        "encoding": "mapping",
        "key": "t_address",
        "label": "mapping(address => bool)",
        "numberOfBytes": "32",
        "value": "t_bool"
      },
      "t_struct(FarmAttributes)1868_storage": {
        "encoding": "inplace",
        "label": "struct NewFarm.FarmAttributes",
        "members": [
          {
            "astId": 1854,
            "contract": "contracts/farms/grain/GrainFarm.sol:GrainFarm",
            "label": "one",
            "offset": 0,
            "slot": "0",
            "type": "t_contract(IResource)1843"
          },
          {
            "astId": 1857,
            "contract": "contracts/farms/grain/GrainFarm.sol:GrainFarm",
            "label": "two",
            "offset": 0,
            "slot": "1",
            "type": "t_contract(IResource)1843"
          },
          {
            "astId": 1860,
            "contract": "contracts/farms/grain/GrainFarm.sol:GrainFarm",
            "label": "three",
            "offset": 0,
            "slot": "2",
            "type": "t_contract(IResource)1843"
          },
          {
            "astId": 1863,
            "contract": "contracts/farms/grain/GrainFarm.sol:GrainFarm",
            "label": "four",
            "offset": 0,
            "slot": "3",
            "type": "t_contract(IResource)1843"
          },
          {
            "astId": 1867,
            "contract": "contracts/farms/grain/GrainFarm.sol:GrainFarm",
            "label": "multipliers",
            "offset": 0,
            "slot": "4",
            "type": "t_array(t_uint8)4_storage"
          }
        ],
        "numberOfBytes": "160"
      },
      "t_uint8": {
        "encoding": "inplace",
        "label": "uint8",
        "numberOfBytes": "1"
      }
    }
  }
}