{
  "address": "0x04C89607413713Ec9775E14b954286519d836FEf",
  "abi": [
    {
      "inputs": [],
      "stateMutability": "nonpayable",
      "type": "constructor"
    },
    {
      "anonymous": false,
      "inputs": [
        {
          "indexed": true,
          "internalType": "uint256",
          "name": "from",
          "type": "uint256"
        },
        {
          "indexed": true,
          "internalType": "uint256",
          "name": "to",
          "type": "uint256"
        },
        {
          "indexed": false,
          "internalType": "uint256",
          "name": "amount",
          "type": "uint256"
        }
      ],
      "name": "Approval",
      "type": "event"
    },
    {
      "anonymous": false,
      "inputs": [
        {
          "indexed": true,
          "internalType": "uint256",
          "name": "from",
          "type": "uint256"
        },
        {
          "indexed": true,
          "internalType": "uint256",
          "name": "to",
          "type": "uint256"
        },
        {
          "indexed": false,
          "internalType": "uint256",
          "name": "amount",
          "type": "uint256"
        }
      ],
      "name": "Burn",
      "type": "event"
    },
    {
      "anonymous": false,
      "inputs": [
        {
          "indexed": true,
          "internalType": "uint256",
          "name": "from",
          "type": "uint256"
        },
        {
          "indexed": true,
          "internalType": "address",
          "name": "to",
          "type": "address"
        },
        {
          "indexed": false,
          "internalType": "uint256",
          "name": "amount",
          "type": "uint256"
        }
      ],
      "name": "BurnApproval",
      "type": "event"
    },
    {
      "anonymous": false,
      "inputs": [
        {
          "indexed": true,
          "internalType": "address",
          "name": "from",
          "type": "address"
        },
        {
          "indexed": true,
          "internalType": "uint256",
          "name": "to",
          "type": "uint256"
        },
        {
          "indexed": false,
          "internalType": "uint256",
          "name": "amount",
          "type": "uint256"
        }
      ],
      "name": "Mint",
      "type": "event"
    },
    {
      "anonymous": false,
      "inputs": [
        {
          "indexed": true,
          "internalType": "uint256",
          "name": "from",
          "type": "uint256"
        },
        {
          "indexed": true,
          "internalType": "uint256",
          "name": "to",
          "type": "uint256"
        },
        {
          "indexed": false,
          "internalType": "uint256",
          "name": "amount",
          "type": "uint256"
        }
      ],
      "name": "Transfer",
      "type": "event"
    },
    {
      "inputs": [],
      "name": "DECIMALS",
      "outputs": [
        {
          "internalType": "uint8",
          "name": "",
          "type": "uint8"
        }
      ],
      "stateMutability": "view",
      "type": "function"
    },
    {
      "inputs": [
        {
          "internalType": "uint256",
          "name": "",
          "type": "uint256"
        }
      ],
      "name": "_balanceOf",
      "outputs": [
        {
          "internalType": "uint256",
          "name": "",
          "type": "uint256"
        }
      ],
      "stateMutability": "view",
      "type": "function"
    },
    {
      "inputs": [],
      "name": "_name",
      "outputs": [
        {
          "internalType": "string",
          "name": "",
          "type": "string"
        }
      ],
      "stateMutability": "view",
      "type": "function"
    },
    {
      "inputs": [],
      "name": "_symbol",
      "outputs": [
        {
          "internalType": "string",
          "name": "",
          "type": "string"
        }
      ],
      "stateMutability": "view",
      "type": "function"
    },
    {
      "inputs": [],
      "name": "_totalSupply",
      "outputs": [
        {
          "internalType": "uint256",
          "name": "",
          "type": "uint256"
        }
      ],
      "stateMutability": "view",
      "type": "function"
    },
    {
      "inputs": [
        {
          "internalType": "uint256",
          "name": "",
          "type": "uint256"
        },
        {
          "internalType": "uint256",
          "name": "",
          "type": "uint256"
        }
      ],
      "name": "_transferAllowance",
      "outputs": [
        {
          "internalType": "uint256",
          "name": "",
          "type": "uint256"
        }
      ],
      "stateMutability": "view",
      "type": "function"
    },
    {
      "inputs": [
        {
          "internalType": "address",
          "name": "minter",
          "type": "address"
        }
      ],
      "name": "addMinter",
      "outputs": [],
      "stateMutability": "nonpayable",
      "type": "function"
    },
    {
      "inputs": [
        {
          "internalType": "uint256",
          "name": "_owner",
          "type": "uint256"
        },
        {
          "internalType": "uint256",
          "name": "spender",
          "type": "uint256"
        }
      ],
      "name": "allowance",
      "outputs": [
        {
          "internalType": "uint256",
          "name": "",
          "type": "uint256"
        }
      ],
      "stateMutability": "view",
      "type": "function"
    },
    {
      "inputs": [
        {
          "internalType": "uint256",
          "name": "from",
          "type": "uint256"
        },
        {
          "internalType": "uint256",
          "name": "spender",
          "type": "uint256"
        },
        {
          "internalType": "uint256",
          "name": "amount",
          "type": "uint256"
        }
      ],
      "name": "approve",
      "outputs": [
        {
          "internalType": "bool",
          "name": "",
          "type": "bool"
        }
      ],
      "stateMutability": "nonpayable",
      "type": "function"
    },
    {
      "inputs": [],
      "name": "attributes",
      "outputs": [
        {
          "internalType": "uint8",
          "name": "weight",
          "type": "uint8"
        }
      ],
      "stateMutability": "view",
      "type": "function"
    },
    {
      "inputs": [
        {
          "internalType": "uint256",
          "name": "_owner",
          "type": "uint256"
        }
      ],
      "name": "balanceOf",
      "outputs": [
        {
          "internalType": "uint256",
          "name": "",
          "type": "uint256"
        }
      ],
      "stateMutability": "view",
      "type": "function"
    },
    {
      "inputs": [
        {
          "internalType": "uint256",
          "name": "summoner",
          "type": "uint256"
        },
        {
          "internalType": "uint256",
          "name": "amount",
          "type": "uint256"
        }
      ],
      "name": "burn",
      "outputs": [],
      "stateMutability": "nonpayable",
      "type": "function"
    },
    {
      "inputs": [
        {
          "internalType": "address",
          "name": "",
          "type": "address"
        },
        {
          "internalType": "uint256",
          "name": "",
          "type": "uint256"
        }
      ],
      "name": "burnAllowance",
      "outputs": [
        {
          "internalType": "uint256",
          "name": "",
          "type": "uint256"
        }
      ],
      "stateMutability": "view",
      "type": "function"
    },
    {
      "inputs": [
        {
          "internalType": "uint256",
          "name": "summoner",
          "type": "uint256"
        },
        {
          "internalType": "address",
          "name": "burner",
          "type": "address"
        },
        {
          "internalType": "uint256",
          "name": "amount",
          "type": "uint256"
        }
      ],
      "name": "burnApprove",
      "outputs": [],
      "stateMutability": "nonpayable",
      "type": "function"
    },
    {
      "inputs": [
        {
          "internalType": "uint256",
          "name": "summoner",
          "type": "uint256"
        },
        {
          "internalType": "uint256",
          "name": "amount",
          "type": "uint256"
        }
      ],
      "name": "burnFrom",
      "outputs": [],
      "stateMutability": "nonpayable",
      "type": "function"
    },
    {
      "inputs": [],
      "name": "decimals",
      "outputs": [
        {
          "internalType": "uint8",
          "name": "",
          "type": "uint8"
        }
      ],
      "stateMutability": "pure",
      "type": "function"
    },
    {
      "inputs": [],
      "name": "getAbilityDecreasers",
      "outputs": [
        {
          "internalType": "uint8[6]",
          "name": "",
          "type": "uint8[6]"
        }
      ],
      "stateMutability": "view",
      "type": "function"
    },
    {
      "inputs": [],
      "name": "getAbilityIncreasers",
      "outputs": [
        {
          "internalType": "uint8[6]",
          "name": "",
          "type": "uint8[6]"
        }
      ],
      "stateMutability": "view",
      "type": "function"
    },
    {
      "inputs": [],
      "name": "getPointDecreasers",
      "outputs": [
        {
          "internalType": "uint8[3]",
          "name": "",
          "type": "uint8[3]"
        }
      ],
      "stateMutability": "view",
      "type": "function"
    },
    {
      "inputs": [],
      "name": "getPointIncreasers",
      "outputs": [
        {
          "internalType": "uint8[3]",
          "name": "",
          "type": "uint8[3]"
        }
      ],
      "stateMutability": "view",
      "type": "function"
    },
    {
      "inputs": [],
      "name": "getWeight",
      "outputs": [
        {
          "internalType": "uint8",
          "name": "",
          "type": "uint8"
        }
      ],
      "stateMutability": "view",
      "type": "function"
    },
    {
      "inputs": [],
      "name": "lock",
      "outputs": [],
      "stateMutability": "nonpayable",
      "type": "function"
    },
    {
      "inputs": [],
      "name": "locked",
      "outputs": [
        {
          "internalType": "bool",
          "name": "",
          "type": "bool"
        }
      ],
      "stateMutability": "view",
      "type": "function"
    },
    {
      "inputs": [
        {
          "internalType": "uint256",
          "name": "summoner",
          "type": "uint256"
        },
        {
          "internalType": "uint256",
          "name": "amount",
          "type": "uint256"
        }
      ],
      "name": "mint",
      "outputs": [],
      "stateMutability": "nonpayable",
      "type": "function"
    },
    {
      "inputs": [
        {
          "internalType": "address",
          "name": "",
          "type": "address"
        }
      ],
      "name": "minters",
      "outputs": [
        {
          "internalType": "bool",
          "name": "",
          "type": "bool"
        }
      ],
      "stateMutability": "view",
      "type": "function"
    },
    {
      "inputs": [],
      "name": "name",
      "outputs": [
        {
          "internalType": "string",
          "name": "",
          "type": "string"
        }
      ],
      "stateMutability": "view",
      "type": "function"
    },
    {
      "inputs": [],
      "name": "owner",
      "outputs": [
        {
          "internalType": "address",
          "name": "",
          "type": "address"
        }
      ],
      "stateMutability": "view",
      "type": "function"
    },
    {
      "inputs": [],
      "name": "pause",
      "outputs": [],
      "stateMutability": "nonpayable",
      "type": "function"
    },
    {
      "inputs": [],
      "name": "paused",
      "outputs": [
        {
          "internalType": "bool",
          "name": "",
          "type": "bool"
        }
      ],
      "stateMutability": "view",
      "type": "function"
    },
    {
      "inputs": [
        {
          "internalType": "address",
          "name": "minter",
          "type": "address"
        }
      ],
      "name": "removeMinter",
      "outputs": [],
      "stateMutability": "nonpayable",
      "type": "function"
    },
    {
      "inputs": [
        {
          "internalType": "uint8",
          "name": "str",
          "type": "uint8"
        },
        {
          "internalType": "uint8",
          "name": "dex",
          "type": "uint8"
        },
        {
          "internalType": "uint8",
          "name": "con",
          "type": "uint8"
        },
        {
          "internalType": "uint8",
          "name": "inte",
          "type": "uint8"
        },
        {
          "internalType": "uint8",
          "name": "wis",
          "type": "uint8"
        },
        {
          "internalType": "uint8",
          "name": "char",
          "type": "uint8"
        }
      ],
      "name": "setAbilityDecreasers",
      "outputs": [],
      "stateMutability": "nonpayable",
      "type": "function"
    },
    {
      "inputs": [
        {
          "internalType": "uint8",
          "name": "str",
          "type": "uint8"
        },
        {
          "internalType": "uint8",
          "name": "dex",
          "type": "uint8"
        },
        {
          "internalType": "uint8",
          "name": "con",
          "type": "uint8"
        },
        {
          "internalType": "uint8",
          "name": "inte",
          "type": "uint8"
        },
        {
          "internalType": "uint8",
          "name": "wis",
          "type": "uint8"
        },
        {
          "internalType": "uint8",
          "name": "char",
          "type": "uint8"
        }
      ],
      "name": "setAbilityIncreasers",
      "outputs": [],
      "stateMutability": "nonpayable",
      "type": "function"
    },
    {
      "inputs": [
        {
          "internalType": "address",
          "name": "_owner",
          "type": "address"
        }
      ],
      "name": "setOwner",
      "outputs": [],
      "stateMutability": "nonpayable",
      "type": "function"
    },
    {
      "inputs": [
        {
          "internalType": "uint8",
          "name": "hp",
          "type": "uint8"
        },
        {
          "internalType": "uint8",
          "name": "mp",
          "type": "uint8"
        },
        {
          "internalType": "uint8",
          "name": "stamina",
          "type": "uint8"
        }
      ],
      "name": "setPointDecreasers",
      "outputs": [],
      "stateMutability": "nonpayable",
      "type": "function"
    },
    {
      "inputs": [
        {
          "internalType": "uint8",
          "name": "hp",
          "type": "uint8"
        },
        {
          "internalType": "uint8",
          "name": "mp",
          "type": "uint8"
        },
        {
          "internalType": "uint8",
          "name": "stamina",
          "type": "uint8"
        }
      ],
      "name": "setPointIncreasers",
      "outputs": [],
      "stateMutability": "nonpayable",
      "type": "function"
    },
    {
      "inputs": [
        {
          "internalType": "uint8",
          "name": "_weight",
          "type": "uint8"
        }
      ],
      "name": "setWeight",
      "outputs": [],
      "stateMutability": "nonpayable",
      "type": "function"
    },
    {
      "inputs": [],
      "name": "symbol",
      "outputs": [
        {
          "internalType": "string",
          "name": "",
          "type": "string"
        }
      ],
      "stateMutability": "view",
      "type": "function"
    },
    {
      "inputs": [],
      "name": "totalSupply",
      "outputs": [
        {
          "internalType": "uint256",
          "name": "",
          "type": "uint256"
        }
      ],
      "stateMutability": "view",
      "type": "function"
    },
    {
      "inputs": [
        {
          "internalType": "uint256",
          "name": "from",
          "type": "uint256"
        },
        {
          "internalType": "uint256",
          "name": "to",
          "type": "uint256"
        },
        {
          "internalType": "uint256",
          "name": "amount",
          "type": "uint256"
        }
      ],
      "name": "transfer",
      "outputs": [
        {
          "internalType": "bool",
          "name": "",
          "type": "bool"
        }
      ],
      "stateMutability": "nonpayable",
      "type": "function"
    },
    {
      "inputs": [
        {
          "internalType": "uint256",
          "name": "executor",
          "type": "uint256"
        },
        {
          "internalType": "uint256",
          "name": "from",
          "type": "uint256"
        },
        {
          "internalType": "uint256",
          "name": "to",
          "type": "uint256"
        },
        {
          "internalType": "uint256",
          "name": "amount",
          "type": "uint256"
        }
      ],
      "name": "transferFrom",
      "outputs": [
        {
          "internalType": "bool",
          "name": "",
          "type": "bool"
        }
      ],
      "stateMutability": "nonpayable",
      "type": "function"
    },
    {
      "inputs": [],
      "name": "unpause",
      "outputs": [],
      "stateMutability": "nonpayable",
      "type": "function"
    }
  ],
  "transactionHash": "0x6290d7086790d3b4ee951df4a49d608565adc204169ed82fe1c2f23e9ca48b5f",
  "args": [],
  "solcInputHash": "b18e5c73e65c7309fc67630281adb484",
  "bytecode": "0x608060405273ce761d788df608bd21bdd59d6f4b54b2e27f25bb600660006101000a81548173ffffffffffffffffffffffffffffffffffffffff021916908373ffffffffffffffffffffffffffffffffffffffff1602179055503480156200006657600080fd5b5033600060026101000a81548173ffffffffffffffffffffffffffffffffffffffff021916908373ffffffffffffffffffffffffffffffffffffffff16021790555060008060016101000a81548160ff02191690831515021790555060008060006101000a81548160ff0219169083151502179055506040518060400160405280600581526020017f50656163680000000000000000000000000000000000000000000000000000008152506007908051906020019062000129929190620001d9565b506040518060400160405280600581526020017f50454143480000000000000000000000000000000000000000000000000000008152506008908051906020019062000177929190620001d9565b506006600160000160006101000a81548160ff021916908360ff1602179055506040518060600160405280600160ff168152602001600060ff168152602001600060ff1681525060018001906003620001d29291906200026a565b506200038f565b828054620001e7906200032a565b90600052602060002090601f0160209004810192826200020b576000855562000257565b82601f106200022657805160ff191683800117855562000257565b8280016001018555821562000257579182015b828111156200025657825182559160200191906001019062000239565b5b5090506200026691906200030b565b5090565b826003601f01602090048101928215620002f85791602002820160005b83821115620002c757835183826101000a81548160ff021916908360ff160217905550926020019260010160208160000104928301926001030262000287565b8015620002f65782816101000a81549060ff0219169055600101602081600001049283019260010302620002c7565b505b5090506200030791906200030b565b5090565b5b80821115620003265760008160009055506001016200030c565b5090565b600060028204905060018216806200034357607f821691505b602082108114156200035a576200035962000360565b5b50919050565b7f4e487b7100000000000000000000000000000000000000000000000000000000600052602260045260246000fd5b612e3c806200039f6000396000f3fe608060405234801561001057600080fd5b50600436106102535760003560e01c80638da5cb5b11610146578063b390c0ab116100c3578063d28d885211610087578063d28d8852146106b2578063e0c331e1146106d0578063e8a2e827146106ec578063e99583a41461070a578063f46eccc41461073a578063f83d08ba1461076a57610253565b8063b390c0ab146105fc578063b866c8a414610618578063c0d655bf14610648578063cca16fa814610664578063cf3090121461069457610253565b8063983b2d561161010a578063983b2d56146105585780639cc7f70814610574578063a9b4b780146105a4578063af946adc146105c2578063b09f1266146105de57610253565b80638da5cb5b146104b057806390dd2627146104ce57806393e1ea41146104fe57806393fd56781461051c57806395d89b411461053a57610253565b80633eaaf86b116101d45780636a0d343a116101985780636a0d343a1461040c5780637ae4841f1461043c5780638456cb591461045a5780638769fd41146104645780638856f7791461048057610253565b80633eaaf86b1461038c5780633f4ba83a146103aa57806345ba83e3146103b45780634a2edb08146103d05780635c975abb146103ee57610253565b80631b2ef1ca1161021b5780631b2ef1ca146102fc5780632c983a29146103185780632e0f2625146103345780633092afd514610352578063313ce5671461036e57610253565b806306fdde03146102585780630c68efe3146102765780630d99bd6c1461029257806313af4035146102c257806318160ddd146102de575b600080fd5b610260610774565b60405161026d919061296e565b60405180910390f35b610290600480360381019061028b9190612463565b610806565b005b6102ac60048036038101906102a791906123c9565b610947565b6040516102b99190612a50565b60405180910390f35b6102dc60048036038101906102d7919061236f565b61096c565b005b6102e66109f8565b6040516102f39190612a50565b60405180910390f35b610316600480360381019061031191906124b6565b610a02565b005b610332600480360381019061032d91906125b0565b610b7b565b005b61033c610c2c565b6040516103499190612a6b565b60405180910390f35b61036c6004803603810190610367919061236f565b610c31565b005b610376610d1c565b6040516103839190612a6b565b60405180910390f35b610394610d25565b6040516103a19190612a50565b60405180910390f35b6103b2610d2b565b005b6103ce60048036038101906103c99190612630565b610d8f565b005b6103d8610e8c565b6040516103e5919061291d565b60405180910390f35b6103f6610f00565b6040516104039190612953565b60405180910390f35b610426600480360381019061042191906124b6565b610f13565b6040516104339190612a50565b60405180910390f35b610444610f38565b6040516104519190612938565b60405180910390f35b610462610fac565b005b61047e600480360381019061047991906124b6565b611011565b005b61049a60048036038101906104959190612549565b6111db565b6040516104a79190612953565b60405180910390f35b6104b861132d565b6040516104c591906128d9565b60405180910390f35b6104e860048036038101906104e391906124f6565b611353565b6040516104f59190612953565b60405180910390f35b610506611402565b6040516105139190612a6b565b60405180910390f35b61052461141b565b604051610531919061291d565b60405180910390f35b61054261148e565b60405161054f919061296e565b60405180910390f35b610572600480360381019061056d919061236f565b611520565b005b61058e60048036038101906105899190612436565b61160b565b60405161059b9190612a50565b60405180910390f35b6105ac611628565b6040516105b99190612a6b565b60405180910390f35b6105dc60048036038101906105d791906125dd565b611642565b005b6105e6611718565b6040516105f3919061296e565b60405180910390f35b610616600480360381019061061191906124b6565b6117a6565b005b610632600480360381019061062d91906124f6565b6118be565b60405161063f9190612953565b60405180910390f35b610662600480360381019061065d91906125dd565b611975565b005b61067e600480360381019061067991906124b6565b611a4a565b60405161068b9190612a50565b60405180910390f35b61069c611a79565b6040516106a99190612953565b60405180910390f35b6106ba611a8a565b6040516106c7919061296e565b60405180910390f35b6106ea60048036038101906106e59190612630565b611b18565b005b6106f4611c15565b6040516107019190612938565b60405180910390f35b610724600480360381019061071f9190612436565b611c89565b6040516107319190612a50565b60405180910390f35b610754600480360381019061074f919061236f565b611ca1565b6040516107619190612953565b60405180910390f35b610772611cc1565b005b60606007805461078390612c0e565b80601f01602080910402602001604051908101604052809291908181526020018280546107af90612c0e565b80156107fc5780601f106107d1576101008083540402835291602001916107fc565b820191906000526020600020905b8154815290600101906020018083116107df57829003601f168201915b5050505050905090565b600060019054906101000a900460ff1615610856576040517f08c379a000000000000000000000000000000000000000000000000000000000815260040161084d90612a30565b60405180910390fd5b61085f83611d25565b61089e576040517f08c379a0000000000000000000000000000000000000000000000000000000008152600401610895906129f0565b60405180910390fd5b80600d60008473ffffffffffffffffffffffffffffffffffffffff1673ffffffffffffffffffffffffffffffffffffffff1681526020019081526020016000206000858152602001908152602001600020819055508173ffffffffffffffffffffffffffffffffffffffff16837f25513def906e48f9e4a3b482e5ff228d356d8dda4744112c24c666c2d270fbeb8360405161093a9190612a50565b60405180910390a3505050565b600d602052816000526040600020602052806000526040600020600091509150505481565b61097533611e07565b6109b4576040517f08c379a00000000000000000000000000000000000000000000000000000000081526004016109ab906129f0565b60405180910390fd5b80600060026101000a81548173ffffffffffffffffffffffffffffffffffffffff021916908373ffffffffffffffffffffffffffffffffffffffff16021790555050565b6000600954905090565b600060019054906101000a900460ff1615610a52576040517f08c379a0000000000000000000000000000000000000000000000000000000008152600401610a4990612a30565b60405180910390fd5b60011515600b60003373ffffffffffffffffffffffffffffffffffffffff1673ffffffffffffffffffffffffffffffffffffffff16815260200190815260200160002060009054906101000a900460ff16151514610ae5576040517f08c379a0000000000000000000000000000000000000000000000000000000008152600401610adc906129d0565b60405180910390fd5b8060096000828254610af79190612afc565b9250508190555080600a60008481526020019081526020016000206000828254610b219190612afc565b92505081905550813373ffffffffffffffffffffffffffffffffffffffff167f4c209b5fc8ad50758f13e2e1088ba56a560dff690a1c6fef26394f4c03821c4f83604051610b6f9190612a50565b60405180910390a35050565b610b83611e61565b15610bc3576040517f08c379a0000000000000000000000000000000000000000000000000000000008152600401610bba90612990565b60405180910390fd5b610bcc33611e07565b610c0b576040517f08c379a0000000000000000000000000000000000000000000000000000000008152600401610c02906129f0565b60405180910390fd5b80600160000160006101000a81548160ff021916908360ff16021790555050565b601281565b600060029054906101000a900473ffffffffffffffffffffffffffffffffffffffff1673ffffffffffffffffffffffffffffffffffffffff163373ffffffffffffffffffffffffffffffffffffffff1614610cc1576040517f08c379a0000000000000000000000000000000000000000000000000000000008152600401610cb8906129f0565b60405180910390fd5b6000600b60008373ffffffffffffffffffffffffffffffffffffffff1673ffffffffffffffffffffffffffffffffffffffff16815260200190815260200160002060006101000a81548160ff02191690831515021790555050565b60006012905090565b60095481565b610d3433611e07565b610d73576040517f08c379a0000000000000000000000000000000000000000000000000000000008152600401610d6a906129f0565b60405180910390fd5b60008060016101000a81548160ff021916908315150217905550565b610d97611e61565b15610dd7576040517f08c379a0000000000000000000000000000000000000000000000000000000008152600401610dce90612990565b60405180910390fd5b610de033611e07565b610e1f576040517f08c379a0000000000000000000000000000000000000000000000000000000008152600401610e16906129f0565b60405180910390fd5b6040518060c001604052808760ff1660ff1681526020018660ff1660ff1681526020018560ff1660ff1681526020018460ff1660ff1681526020018360ff1660ff1681526020018260ff1660ff168152506001600301906006610e83929190612171565b50505050505050565b610e9461220b565b6001600201600380602002604051908101604052809291908260038015610ef6576020028201916000905b82829054906101000a900460ff1660ff1681526020019060010190602082600001049283019260010382029150808411610ebf5790505b5050505050905090565b600060019054906101000a900460ff1681565b600c602052816000526040600020602052806000526040600020600091509150505481565b610f4061222d565b6001600301600680602002604051908101604052809291908260068015610fa2576020028201916000905b82829054906101000a900460ff1660ff1681526020019060010190602082600001049283019260010382029150808411610f6b5790505b5050505050905090565b610fb533611e07565b610ff4576040517f08c379a0000000000000000000000000000000000000000000000000000000008152600401610feb906129f0565b60405180910390fd5b6001600060016101000a81548160ff021916908315150217905550565b600060019054906101000a900460ff1615611061576040517f08c379a000000000000000000000000000000000000000000000000000000000815260040161105890612a30565b60405180910390fd5b600d60003373ffffffffffffffffffffffffffffffffffffffff1673ffffffffffffffffffffffffffffffffffffffff1681526020019081526020016000206000838152602001908152602001600020548111156110f4576040517f08c379a00000000000000000000000000000000000000000000000000000000081526004016110eb906129b0565b60405180910390fd5b80600960008282546111069190612b52565b9250508190555080600a600084815260200190815260200160002060008282546111309190612b52565b9250508190555080600d60003373ffffffffffffffffffffffffffffffffffffffff1673ffffffffffffffffffffffffffffffffffffffff168152602001908152602001600020600084815260200190815260200160002060008282546111979190612b52565b9250508190555081827f5af801e983cfd842de8b0797a2d6077db3ac2dea16571e0c7f5080291ca1b934836040516111cf9190612a50565b60405180910390a35050565b60008060019054906101000a900460ff161561122c576040517f08c379a000000000000000000000000000000000000000000000000000000000815260040161122390612a30565b60405180910390fd5b61123585611e7d565b611274576040517f08c379a000000000000000000000000000000000000000000000000000000000815260040161126b906129f0565b60405180910390fd5b600c60008581526020019081526020016000206000868152602001908152602001600020548211156112db576040517f08c379a00000000000000000000000000000000000000000000000000000000081526004016112d290612a10565b60405180910390fd5b6112e6848484611e9f565b81600c60008681526020019081526020016000206000878152602001908152602001600020600082825461131a9190612b52565b9250508190555060019050949350505050565b600060029054906101000a900473ffffffffffffffffffffffffffffffffffffffff1681565b60008060019054906101000a900460ff16156113a4576040517f08c379a000000000000000000000000000000000000000000000000000000000815260040161139b90612a30565b60405180910390fd5b6113ad84611e7d565b6113ec576040517f08c379a00000000000000000000000000000000000000000000000000000000081526004016113e3906129f0565b60405180910390fd5b6113f7848484611e9f565b600190509392505050565b60018060000160009054906101000a900460ff16905081565b61142361220b565b60018001600380602002604051908101604052809291908260038015611484576020028201916000905b82829054906101000a900460ff1660ff168152602001906001019060208260000104928301926001038202915080841161144d5790505b5050505050905090565b60606008805461149d90612c0e565b80601f01602080910402602001604051908101604052809291908181526020018280546114c990612c0e565b80156115165780601f106114eb57610100808354040283529160200191611516565b820191906000526020600020905b8154815290600101906020018083116114f957829003601f168201915b5050505050905090565b600060029054906101000a900473ffffffffffffffffffffffffffffffffffffffff1673ffffffffffffffffffffffffffffffffffffffff163373ffffffffffffffffffffffffffffffffffffffff16146115b0576040517f08c379a00000000000000000000000000000000000000000000000000000000081526004016115a7906129f0565b60405180910390fd5b6001600b60008373ffffffffffffffffffffffffffffffffffffffff1673ffffffffffffffffffffffffffffffffffffffff16815260200190815260200160002060006101000a81548160ff02191690831515021790555050565b6000600a6000838152602001908152602001600020549050919050565b6000600160000160009054906101000a900460ff16905090565b61164a611e61565b1561168a576040517f08c379a000000000000000000000000000000000000000000000000000000000815260040161168190612990565b60405180910390fd5b61169333611e07565b6116d2576040517f08c379a00000000000000000000000000000000000000000000000000000000081526004016116c9906129f0565b60405180910390fd5b60405180606001604052808460ff1660ff1681526020018360ff1660ff1681526020018260ff1660ff16815250600160020190600361171292919061224f565b50505050565b6008805461172590612c0e565b80601f016020809104026020016040519081016040528092919081815260200182805461175190612c0e565b801561179e5780601f106117735761010080835404028352916020019161179e565b820191906000526020600020905b81548152906001019060200180831161178157829003601f168201915b505050505081565b600060019054906101000a900460ff16156117f6576040517f08c379a00000000000000000000000000000000000000000000000000000000081526004016117ed90612a30565b60405180910390fd5b6117ff82611d25565b61183e576040517f08c379a0000000000000000000000000000000000000000000000000000000008152600401611835906129f0565b60405180910390fd5b80600960008282546118509190612b52565b9250508190555080600a6000848152602001908152602001600020600082825461187a9190612b52565b9250508190555081827f5af801e983cfd842de8b0797a2d6077db3ac2dea16571e0c7f5080291ca1b934836040516118b29190612a50565b60405180910390a35050565b60006118c984611e7d565b611908576040517f08c379a00000000000000000000000000000000000000000000000000000000081526004016118ff906129f0565b60405180910390fd5b81600c600086815260200190815260200160002060008581526020019081526020016000208190555082847f08aaf4f7dd1adfa5bfe7067dea5b4ebd7e119d43257438a9189f37d7044eb09a846040516119629190612a50565b60405180910390a3600190509392505050565b61197d611e61565b156119bd576040517f08c379a00000000000000000000000000000000000000000000000000000000081526004016119b490612990565b60405180910390fd5b6119c633611e07565b611a05576040517f08c379a00000000000000000000000000000000000000000000000000000000081526004016119fc906129f0565b60405180910390fd5b60405180606001604052808460ff1660ff1681526020018360ff1660ff1681526020018260ff1660ff1681525060018001906003611a4492919061224f565b50505050565b6000600c6000848152602001908152602001600020600083815260200190815260200160002054905092915050565b60008054906101000a900460ff1681565b60078054611a9790612c0e565b80601f0160208091040260200160405190810160405280929190818152602001828054611ac390612c0e565b8015611b105780601f10611ae557610100808354040283529160200191611b10565b820191906000526020600020905b815481529060010190602001808311611af357829003601f168201915b505050505081565b611b20611e61565b15611b60576040517f08c379a0000000000000000000000000000000000000000000000000000000008152600401611b5790612990565b60405180910390fd5b611b6933611e07565b611ba8576040517f08c379a0000000000000000000000000000000000000000000000000000000008152600401611b9f906129f0565b60405180910390fd5b6040518060c001604052808760ff1660ff1681526020018660ff1660ff1681526020018560ff1660ff1681526020018460ff1660ff1681526020018360ff1660ff1681526020018260ff1660ff168152506001600401906006611c0c929190612171565b50505050505050565b611c1d61222d565b6001600401600680602002604051908101604052809291908260068015611c7f576020028201916000905b82829054906101000a900460ff1660ff1681526020019060010190602082600001049283019260010382029150808411611c485790505b5050505050905090565b600a6020528060005260406000206000915090505481565b600b6020528060005260406000206000915054906101000a900460ff1681565b611cca33611e07565b611d09576040517f08c379a0000000000000000000000000000000000000000000000000000000008152600401611d00906129f0565b60405180910390fd5b60016000806101000a81548160ff021916908315150217905550565b60003373ffffffffffffffffffffffffffffffffffffffff16600660009054906101000a900473ffffffffffffffffffffffffffffffffffffffff1673ffffffffffffffffffffffffffffffffffffffff16636352211e846040518263ffffffff1660e01b8152600401611d999190612a50565b60206040518083038186803b158015611db157600080fd5b505afa158015611dc5573d6000803e3d6000fd5b505050506040513d601f19601f82011682018060405250810190611de9919061239c565b73ffffffffffffffffffffffffffffffffffffffff16149050919050565b60008173ffffffffffffffffffffffffffffffffffffffff16600060029054906101000a900473ffffffffffffffffffffffffffffffffffffffff1673ffffffffffffffffffffffffffffffffffffffff16149050919050565b60006001151560008054906101000a900460ff16151514905090565b6000611e8882611f31565b80611e985750611e9782611d25565b5b9050919050565b80600a60008581526020019081526020016000206000828254611ec29190612b52565b9250508190555080600a60008481526020019081526020016000206000828254611eec9190612afc565b9250508190555081837faf6151f5085accf2d57e1e7bf7601d3b3982e0de7e9a90f032f8554de9c104f683604051611f249190612a50565b60405180910390a3505050565b60003373ffffffffffffffffffffffffffffffffffffffff16600660009054906101000a900473ffffffffffffffffffffffffffffffffffffffff1673ffffffffffffffffffffffffffffffffffffffff1663081812fc846040518263ffffffff1660e01b8152600401611fa59190612a50565b60206040518083038186803b158015611fbd57600080fd5b505afa158015611fd1573d6000803e3d6000fd5b505050506040513d601f19601f82011682018060405250810190611ff5919061239c565b73ffffffffffffffffffffffffffffffffffffffff16148061216a5750600660009054906101000a900473ffffffffffffffffffffffffffffffffffffffff1673ffffffffffffffffffffffffffffffffffffffff1663e985e9c5600660009054906101000a900473ffffffffffffffffffffffffffffffffffffffff1673ffffffffffffffffffffffffffffffffffffffff16636352211e856040518263ffffffff1660e01b81526004016120ab9190612a50565b60206040518083038186803b1580156120c357600080fd5b505afa1580156120d7573d6000803e3d6000fd5b505050506040513d601f19601f820116820180604052508101906120fb919061239c565b336040518363ffffffff1660e01b81526004016121199291906128f4565b60206040518083038186803b15801561213157600080fd5b505afa158015612145573d6000803e3d6000fd5b505050506040513d601f19601f820116820180604052508101906121699190612409565b5b9050919050565b826006601f016020900481019282156121fa5791602002820160005b838211156121cb57835183826101000a81548160ff021916908360ff160217905550926020019260010160208160000104928301926001030261218d565b80156121f85782816101000a81549060ff02191690556001016020816000010492830192600103026121cb565b505b50905061220791906122e9565b5090565b6040518060600160405280600390602082028036833780820191505090505090565b6040518060c00160405280600690602082028036833780820191505090505090565b826003601f016020900481019282156122d85791602002820160005b838211156122a957835183826101000a81548160ff021916908360ff160217905550926020019260010160208160000104928301926001030261226b565b80156122d65782816101000a81549060ff02191690556001016020816000010492830192600103026122a9565b505b5090506122e591906122e9565b5090565b5b808211156123025760008160009055506001016122ea565b5090565b60008135905061231581612daa565b92915050565b60008151905061232a81612daa565b92915050565b60008151905061233f81612dc1565b92915050565b60008135905061235481612dd8565b92915050565b60008135905061236981612def565b92915050565b60006020828403121561238557612384612c9e565b5b600061239384828501612306565b91505092915050565b6000602082840312156123b2576123b1612c9e565b5b60006123c08482850161231b565b91505092915050565b600080604083850312156123e0576123df612c9e565b5b60006123ee85828601612306565b92505060206123ff85828601612345565b9150509250929050565b60006020828403121561241f5761241e612c9e565b5b600061242d84828501612330565b91505092915050565b60006020828403121561244c5761244b612c9e565b5b600061245a84828501612345565b91505092915050565b60008060006060848603121561247c5761247b612c9e565b5b600061248a86828701612345565b935050602061249b86828701612306565b92505060406124ac86828701612345565b9150509250925092565b600080604083850312156124cd576124cc612c9e565b5b60006124db85828601612345565b92505060206124ec85828601612345565b9150509250929050565b60008060006060848603121561250f5761250e612c9e565b5b600061251d86828701612345565b935050602061252e86828701612345565b925050604061253f86828701612345565b9150509250925092565b6000806000806080858703121561256357612562612c9e565b5b600061257187828801612345565b945050602061258287828801612345565b935050604061259387828801612345565b92505060606125a487828801612345565b91505092959194509250565b6000602082840312156125c6576125c5612c9e565b5b60006125d48482850161235a565b91505092915050565b6000806000606084860312156125f6576125f5612c9e565b5b60006126048682870161235a565b93505060206126158682870161235a565b92505060406126268682870161235a565b9150509250925092565b60008060008060008060c0878903121561264d5761264c612c9e565b5b600061265b89828a0161235a565b965050602061266c89828a0161235a565b955050604061267d89828a0161235a565b945050606061268e89828a0161235a565b935050608061269f89828a0161235a565b92505060a06126b089828a0161235a565b9150509295509295509295565b60006126c983836128bb565b60208301905092915050565b6126de81612b86565b82525050565b6126ed81612a9a565b6126f78184612ad5565b925061270282612a86565b8060005b8381101561273357815161271a87826126bd565b965061272583612abb565b925050600181019050612706565b505050505050565b61274481612aa5565b61274e8184612ae0565b925061275982612a90565b8060005b8381101561278a57815161277187826126bd565b965061277c83612ac8565b92505060018101905061275d565b505050505050565b61279b81612b98565b82525050565b60006127ac82612ab0565b6127b68185612aeb565b93506127c6818560208601612bdb565b6127cf81612ca3565b840191505092915050565b60006127e7600f83612aeb565b91506127f282612cb4565b602082019050919050565b600061280a600e83612aeb565b915061281582612cdd565b602082019050919050565b600061282d601283612aeb565b915061283882612d06565b602082019050919050565b6000612850600d83612aeb565b915061285b82612d2f565b602082019050919050565b6000612873601283612aeb565b915061287e82612d58565b602082019050919050565b6000612896601283612aeb565b91506128a182612d81565b602082019050919050565b6128b581612bc4565b82525050565b6128c481612bce565b82525050565b6128d381612bce565b82525050565b60006020820190506128ee60008301846126d5565b92915050565b600060408201905061290960008301856126d5565b61291660208301846126d5565b9392505050565b600060608201905061293260008301846126e4565b92915050565b600060c08201905061294d600083018461273b565b92915050565b60006020820190506129686000830184612792565b92915050565b6000602082019050818103600083015261298881846127a1565b905092915050565b600060208201905081810360008301526129a9816127da565b9050919050565b600060208201905081810360008301526129c9816127fd565b9050919050565b600060208201905081810360008301526129e981612820565b9050919050565b60006020820190508181036000830152612a0981612843565b9050919050565b60006020820190508181036000830152612a2981612866565b9050919050565b60006020820190508181036000830152612a4981612889565b9050919050565b6000602082019050612a6560008301846128ac565b92915050565b6000602082019050612a8060008301846128ca565b92915050565b6000819050919050565b6000819050919050565b600060039050919050565b600060069050919050565b600081519050919050565b6000602082019050919050565b6000602082019050919050565b600081905092915050565b600081905092915050565b600082825260208201905092915050565b6000612b0782612bc4565b9150612b1283612bc4565b9250827fffffffffffffffffffffffffffffffffffffffffffffffffffffffffffffffff03821115612b4757612b46612c40565b5b828201905092915050565b6000612b5d82612bc4565b9150612b6883612bc4565b925082821015612b7b57612b7a612c40565b5b828203905092915050565b6000612b9182612ba4565b9050919050565b60008115159050919050565b600073ffffffffffffffffffffffffffffffffffffffff82169050919050565b6000819050919050565b600060ff82169050919050565b60005b83811015612bf9578082015181840152602081019050612bde565b83811115612c08576000848401525b50505050565b60006002820490506001821680612c2657607f821691505b60208210811415612c3a57612c39612c6f565b5b50919050565b7f4e487b7100000000000000000000000000000000000000000000000000000000600052601160045260246000fd5b7f4e487b7100000000000000000000000000000000000000000000000000000000600052602260045260246000fd5b600080fd5b6000601f19601f8301169050919050565b7f5265736f75726365204c6f636b65640000000000000000000000000000000000600082015250565b7f4275726e203e20417070726f7665000000000000000000000000000000000000600082015250565b7f4d696e74204163636573732044656e6965640000000000000000000000000000600082015250565b7f4d757374206265206f776e657200000000000000000000000000000000000000600082015250565b7f5472616e73666572203e20417070726f76650000000000000000000000000000600082015250565b7f436f6e7472616374206973207061757365640000000000000000000000000000600082015250565b612db381612b86565b8114612dbe57600080fd5b50565b612dca81612b98565b8114612dd557600080fd5b50565b612de181612bc4565b8114612dec57600080fd5b50565b612df881612bce565b8114612e0357600080fd5b5056fea26469706673582212207058865310a1e002d850b6cf08024d3596b4261c0f808d649e5a87120f8e03db64736f6c63430008070033",
  "devdoc": {
    "kind": "dev",
    "methods": {},
    "version": 1
  },
  "userdoc": {
    "kind": "user",
    "methods": {},
    "version": 1
  },
  "storageLayout": {
    "storage": [
      {
        "astId": 30,
        "contract": "contracts/farms/fruit/Peach.sol:Peach",
        "label": "locked",
        "offset": 0,
        "slot": "0",
        "type": "t_bool"
      },
      {
        "astId": 32,
        "contract": "contracts/farms/fruit/Peach.sol:Peach",
        "label": "paused",
        "offset": 1,
        "slot": "0",
        "type": "t_bool"
      },
      {
        "astId": 34,
        "contract": "contracts/farms/fruit/Peach.sol:Peach",
        "label": "owner",
        "offset": 2,
        "slot": "0",
        "type": "t_address"
      },
      {
        "astId": 56,
        "contract": "contracts/farms/fruit/Peach.sol:Peach",
        "label": "attributes",
        "offset": 0,
        "slot": "1",
        "type": "t_struct(ResourceAttributes)53_storage"
      },
      {
        "astId": 62,
        "contract": "contracts/farms/fruit/Peach.sol:Peach",
        "label": "rarity",
        "offset": 0,
        "slot": "6",
        "type": "t_contract(IRarity)25"
      },
      {
        "astId": 64,
        "contract": "contracts/farms/fruit/Peach.sol:Peach",
        "label": "_name",
        "offset": 0,
        "slot": "7",
        "type": "t_string_storage"
      },
      {
        "astId": 66,
        "contract": "contracts/farms/fruit/Peach.sol:Peach",
        "label": "_symbol",
        "offset": 0,
        "slot": "8",
        "type": "t_string_storage"
      },
      {
        "astId": 68,
        "contract": "contracts/farms/fruit/Peach.sol:Peach",
        "label": "_totalSupply",
        "offset": 0,
        "slot": "9",
        "type": "t_uint256"
      },
      {
        "astId": 72,
        "contract": "contracts/farms/fruit/Peach.sol:Peach",
        "label": "_balanceOf",
        "offset": 0,
        "slot": "10",
        "type": "t_mapping(t_uint256,t_uint256)"
      },
      {
        "astId": 76,
        "contract": "contracts/farms/fruit/Peach.sol:Peach",
        "label": "minters",
        "offset": 0,
        "slot": "11",
        "type": "t_mapping(t_address,t_bool)"
      },
      {
        "astId": 82,
        "contract": "contracts/farms/fruit/Peach.sol:Peach",
        "label": "_transferAllowance",
        "offset": 0,
        "slot": "12",
        "type": "t_mapping(t_uint256,t_mapping(t_uint256,t_uint256))"
      },
      {
        "astId": 88,
        "contract": "contracts/farms/fruit/Peach.sol:Peach",
        "label": "burnAllowance",
        "offset": 0,
        "slot": "13",
        "type": "t_mapping(t_address,t_mapping(t_uint256,t_uint256))"
      }
    ],
    "types": {
      "t_address": {
        "encoding": "inplace",
        "label": "address",
        "numberOfBytes": "20"
      },
      "t_array(t_uint8)3_storage": {
        "base": "t_uint8",
        "encoding": "inplace",
        "label": "uint8[3]",
        "numberOfBytes": "32"
      },
      "t_array(t_uint8)6_storage": {
        "base": "t_uint8",
        "encoding": "inplace",
        "label": "uint8[6]",
        "numberOfBytes": "32"
      },
      "t_bool": {
        "encoding": "inplace",
        "label": "bool",
        "numberOfBytes": "1"
      },
      "t_contract(IRarity)25": {
        "encoding": "inplace",
        "label": "contract IRarity",
        "numberOfBytes": "20"
      },
      "t_mapping(t_address,t_bool)": {
        "encoding": "mapping",
        "key": "t_address",
        "label": "mapping(address => bool)",
        "numberOfBytes": "32",
        "value": "t_bool"
      },
      "t_mapping(t_address,t_mapping(t_uint256,t_uint256))": {
        "encoding": "mapping",
        "key": "t_address",
        "label": "mapping(address => mapping(uint256 => uint256))",
        "numberOfBytes": "32",
        "value": "t_mapping(t_uint256,t_uint256)"
      },
      "t_mapping(t_uint256,t_mapping(t_uint256,t_uint256))": {
        "encoding": "mapping",
        "key": "t_uint256",
        "label": "mapping(uint256 => mapping(uint256 => uint256))",
        "numberOfBytes": "32",
        "value": "t_mapping(t_uint256,t_uint256)"
      },
      "t_mapping(t_uint256,t_uint256)": {
        "encoding": "mapping",
        "key": "t_uint256",
        "label": "mapping(uint256 => uint256)",
        "numberOfBytes": "32",
        "value": "t_uint256"
      },
      "t_string_storage": {
        "encoding": "bytes",
        "label": "string",
        "numberOfBytes": "32"
      },
      "t_struct(ResourceAttributes)53_storage": {
        "encoding": "inplace",
        "label": "struct Resource.ResourceAttributes",
        "members": [
          {
            "astId": 36,
            "contract": "contracts/farms/fruit/Peach.sol:Peach",
            "label": "weight",
            "offset": 0,
            "slot": "0",
            "type": "t_uint8"
          },
          {
            "astId": 40,
            "contract": "contracts/farms/fruit/Peach.sol:Peach",
            "label": "pointIncreasers",
            "offset": 0,
            "slot": "1",
            "type": "t_array(t_uint8)3_storage"
          },
          {
            "astId": 44,
            "contract": "contracts/farms/fruit/Peach.sol:Peach",
            "label": "pointDecreasers",
            "offset": 0,
            "slot": "2",
            "type": "t_array(t_uint8)3_storage"
          },
          {
            "astId": 48,
            "contract": "contracts/farms/fruit/Peach.sol:Peach",
            "label": "abilityIncreasers",
            "offset": 0,
            "slot": "3",
            "type": "t_array(t_uint8)6_storage"
          },
          {
            "astId": 52,
            "contract": "contracts/farms/fruit/Peach.sol:Peach",
            "label": "abilityDecreasers",
            "offset": 0,
            "slot": "4",
            "type": "t_array(t_uint8)6_storage"
          }
        ],
        "numberOfBytes": "160"
      },
      "t_uint256": {
        "encoding": "inplace",
        "label": "uint256",
        "numberOfBytes": "32"
      },
      "t_uint8": {
        "encoding": "inplace",
        "label": "uint8",
        "numberOfBytes": "1"
      }
    }
  }
}