{
  "address": "0x7A9Ec1d04904907De0ED7b6839CcdD59c3716AC9",
  "abi": [
    {
      "inputs": [],
      "stateMutability": "nonpayable",
      "type": "constructor"
    },
    {
      "anonymous": false,
      "inputs": [
        {
          "indexed": true,
          "internalType": "address",
          "name": "from",
          "type": "address"
        },
        {
          "indexed": true,
          "internalType": "uint256",
          "name": "to",
          "type": "uint256"
        },
        {
          "indexed": false,
          "internalType": "uint256",
          "name": "amount",
          "type": "uint256"
        }
      ],
      "name": "Mint",
      "type": "event"
    },
    {
      "inputs": [
        {
          "internalType": "uint256",
          "name": "",
          "type": "uint256"
        }
      ],
      "name": "_balanceOf",
      "outputs": [
        {
          "internalType": "uint256",
          "name": "",
          "type": "uint256"
        }
      ],
      "stateMutability": "view",
      "type": "function"
    },
    {
      "inputs": [],
      "name": "attributes",
      "outputs": [
        {
          "internalType": "bool",
          "name": "paused",
          "type": "bool"
        }
      ],
      "stateMutability": "view",
      "type": "function"
    },
    {
      "inputs": [
        {
          "internalType": "uint256",
          "name": "summoner",
          "type": "uint256"
        },
        {
          "internalType": "uint256",
          "name": "amount",
          "type": "uint256"
        }
      ],
      "name": "mint",
      "outputs": [],
      "stateMutability": "nonpayable",
      "type": "function"
    },
    {
      "inputs": [
        {
          "internalType": "address",
          "name": "",
          "type": "address"
        }
      ],
      "name": "minters",
      "outputs": [
        {
          "internalType": "bool",
          "name": "",
          "type": "bool"
        }
      ],
      "stateMutability": "view",
      "type": "function"
    }
  ],
  "transactionHash": "0x007b4d2be8464f474ecad4d57bc5701489df606e8af56afe615650e3b955c19f",
  "args": [],
  "solcInputHash": "4119eacca565e108398a8768cfaa681c",
  "bytecode": "0x60806040526040518060400160405280600581526020017f4170706c650000000000000000000000000000000000000000000000000000008152506000908051906020019061004f929190610140565b506040518060400160405280600581526020017f4150504c450000000000000000000000000000000000000000000000000000008152506001908051906020019061009b929190610140565b506012600260006101000a81548160ff021916908360ff1602179055503480156100c457600080fd5b506001600560003373ffffffffffffffffffffffffffffffffffffffff1673ffffffffffffffffffffffffffffffffffffffff16815260200190815260200160002060006101000a81548160ff0219169083151502179055506000600660000160006101000a81548160ff021916908315150217905550610244565b82805461014c906101e3565b90600052602060002090601f01602090048101928261016e57600085556101b5565b82601f1061018757805160ff19168380011785556101b5565b828001600101855582156101b5579182015b828111156101b4578251825591602001919060010190610199565b5b5090506101c291906101c6565b5090565b5b808211156101df5760008160009055506001016101c7565b5090565b600060028204905060018216806101fb57607f821691505b6020821081141561020f5761020e610215565b5b50919050565b7f4e487b7100000000000000000000000000000000000000000000000000000000600052602260045260246000fd5b6105ef806102536000396000f3fe608060405234801561001057600080fd5b506004361061004c5760003560e01c80631b2ef1ca1461005157806393e1ea411461006d578063e99583a41461008b578063f46eccc4146100bb575b600080fd5b61006b6004803603810190610066919061033c565b6100eb565b005b610075610267565b60405161008291906103e0565b60405180910390f35b6100a560048036038101906100a0919061030f565b610280565b6040516100b2919061043b565b60405180910390f35b6100d560048036038101906100d091906102e2565b610298565b6040516100e291906103e0565b60405180910390f35b600660000160009054906101000a900460ff161561013e576040517f08c379a00000000000000000000000000000000000000000000000000000000081526004016101359061041b565b60405180910390fd5b60011515600560003373ffffffffffffffffffffffffffffffffffffffff1673ffffffffffffffffffffffffffffffffffffffff16815260200190815260200160002060009054906101000a900460ff161515146101d1576040517f08c379a00000000000000000000000000000000000000000000000000000000081526004016101c8906103fb565b60405180910390fd5b80600360008282546101e39190610467565b925050819055508060046000848152602001908152602001600020600082825461020d9190610467565b92505081905550813373ffffffffffffffffffffffffffffffffffffffff167f4c209b5fc8ad50758f13e2e1088ba56a560dff690a1c6fef26394f4c03821c4f8360405161025b919061043b565b60405180910390a35050565b60068060000160009054906101000a900460ff16905081565b60046020528060005260406000206000915090505481565b60056020528060005260406000206000915054906101000a900460ff1681565b6000813590506102c78161058b565b92915050565b6000813590506102dc816105a2565b92915050565b6000602082840312156102f8576102f7610534565b5b6000610306848285016102b8565b91505092915050565b60006020828403121561032557610324610534565b5b6000610333848285016102cd565b91505092915050565b6000806040838503121561035357610352610534565b5b6000610361858286016102cd565b9250506020610372858286016102cd565b9150509250929050565b610385816104cf565b82525050565b6000610398601283610456565b91506103a382610539565b602082019050919050565b60006103bb601283610456565b91506103c682610562565b602082019050919050565b6103da816104fb565b82525050565b60006020820190506103f5600083018461037c565b92915050565b600060208201905081810360008301526104148161038b565b9050919050565b60006020820190508181036000830152610434816103ae565b9050919050565b600060208201905061045060008301846103d1565b92915050565b600082825260208201905092915050565b6000610472826104fb565b915061047d836104fb565b9250827fffffffffffffffffffffffffffffffffffffffffffffffffffffffffffffffff038211156104b2576104b1610505565b5b828201905092915050565b60006104c8826104db565b9050919050565b60008115159050919050565b600073ffffffffffffffffffffffffffffffffffffffff82169050919050565b6000819050919050565b7f4e487b7100000000000000000000000000000000000000000000000000000000600052601160045260246000fd5b600080fd5b7f4d696e74204163636573732044656e6965640000000000000000000000000000600082015250565b7f436f6e7472616374206973207061757365640000000000000000000000000000600082015250565b610594816104bd565b811461059f57600080fd5b50565b6105ab816104fb565b81146105b657600080fd5b5056fea2646970667358221220041ae9a06f65bd936f9e3cae53712017729cc540681f29804b0f6824576a3afc64736f6c63430008070033",
  "devdoc": {
    "kind": "dev",
    "methods": {},
    "version": 1
  },
  "userdoc": {
    "kind": "user",
    "methods": {},
    "version": 1
  },
  "storageLayout": {
    "storage": [
      {
        "astId": 4,
        "contract": "contracts/TestMinter.sol:TestMinter",
        "label": "_name",
        "offset": 0,
        "slot": "0",
        "type": "t_string_storage"
      },
      {
        "astId": 7,
        "contract": "contracts/TestMinter.sol:TestMinter",
        "label": "_symbol",
        "offset": 0,
        "slot": "1",
        "type": "t_string_storage"
      },
      {
        "astId": 10,
        "contract": "contracts/TestMinter.sol:TestMinter",
        "label": "_decimals",
        "offset": 0,
        "slot": "2",
        "type": "t_uint8"
      },
      {
        "astId": 12,
        "contract": "contracts/TestMinter.sol:TestMinter",
        "label": "_totalSupply",
        "offset": 0,
        "slot": "3",
        "type": "t_uint256"
      },
      {
        "astId": 16,
        "contract": "contracts/TestMinter.sol:TestMinter",
        "label": "_balanceOf",
        "offset": 0,
        "slot": "4",
        "type": "t_mapping(t_uint256,t_uint256)"
      },
      {
        "astId": 20,
        "contract": "contracts/TestMinter.sol:TestMinter",
        "label": "minters",
        "offset": 0,
        "slot": "5",
        "type": "t_mapping(t_address,t_bool)"
      },
      {
        "astId": 26,
        "contract": "contracts/TestMinter.sol:TestMinter",
        "label": "attributes",
        "offset": 0,
        "slot": "6",
        "type": "t_struct(Attributes)23_storage"
      }
    ],
    "types": {
      "t_address": {
        "encoding": "inplace",
        "label": "address",
        "numberOfBytes": "20"
      },
      "t_bool": {
        "encoding": "inplace",
        "label": "bool",
        "numberOfBytes": "1"
      },
      "t_mapping(t_address,t_bool)": {
        "encoding": "mapping",
        "key": "t_address",
        "label": "mapping(address => bool)",
        "numberOfBytes": "32",
        "value": "t_bool"
      },
      "t_mapping(t_uint256,t_uint256)": {
        "encoding": "mapping",
        "key": "t_uint256",
        "label": "mapping(uint256 => uint256)",
        "numberOfBytes": "32",
        "value": "t_uint256"
      },
      "t_string_storage": {
        "encoding": "bytes",
        "label": "string",
        "numberOfBytes": "32"
      },
      "t_struct(Attributes)23_storage": {
        "encoding": "inplace",
        "label": "struct TestMinter.Attributes",
        "members": [
          {
            "astId": 22,
            "contract": "contracts/TestMinter.sol:TestMinter",
            "label": "paused",
            "offset": 0,
            "slot": "0",
            "type": "t_bool"
          }
        ],
        "numberOfBytes": "32"
      },
      "t_uint256": {
        "encoding": "inplace",
        "label": "uint256",
        "numberOfBytes": "32"
      },
      "t_uint8": {
        "encoding": "inplace",
        "label": "uint8",
        "numberOfBytes": "1"
      }
    }
  }
}