{
  "address": "0xf4B146FbA71F41E0592668ffbF264F1D186b2Ca8",
  "abi": [
    {
      "inputs": [
        {
          "internalType": "address",
          "name": "_carrot",
          "type": "address"
        },
        {
          "internalType": "address",
          "name": "_onion",
          "type": "address"
        },
        {
          "internalType": "address",
          "name": "_potato",
          "type": "address"
        },
        {
          "internalType": "address",
          "name": "_tomato",
          "type": "address"
        }
      ],
      "stateMutability": "nonpayable",
      "type": "constructor"
    },
    {
      "anonymous": false,
      "inputs": [
        {
          "indexed": true,
          "internalType": "uint256",
          "name": "_summoner",
          "type": "uint256"
        },
        {
          "indexed": false,
          "internalType": "address",
          "name": "_resource",
          "type": "address"
        },
        {
          "indexed": false,
          "internalType": "uint256",
          "name": "_amount",
          "type": "uint256"
        }
      ],
      "name": "FarmResource",
      "type": "event"
    },
    {
      "inputs": [
        {
          "internalType": "address",
          "name": "addr",
          "type": "address"
        }
      ],
      "name": "addPauser",
      "outputs": [],
      "stateMutability": "nonpayable",
      "type": "function"
    },
    {
      "inputs": [],
      "name": "attributes",
      "outputs": [
        {
          "internalType": "bool",
          "name": "paused",
          "type": "bool"
        },
        {
          "internalType": "address",
          "name": "owner",
          "type": "address"
        },
        {
          "internalType": "address",
          "name": "disaster",
          "type": "address"
        }
      ],
      "stateMutability": "view",
      "type": "function"
    },
    {
      "inputs": [],
      "name": "clearDisaster",
      "outputs": [],
      "stateMutability": "nonpayable",
      "type": "function"
    },
    {
      "inputs": [
        {
          "internalType": "uint256",
          "name": "summoner",
          "type": "uint256"
        },
        {
          "internalType": "uint256",
          "name": "id",
          "type": "uint256"
        }
      ],
      "name": "farm",
      "outputs": [],
      "stateMutability": "nonpayable",
      "type": "function"
    },
    {
      "inputs": [],
      "name": "getDisaster",
      "outputs": [
        {
          "internalType": "address",
          "name": "",
          "type": "address"
        }
      ],
      "stateMutability": "view",
      "type": "function"
    },
    {
      "inputs": [],
      "name": "getMultipliers",
      "outputs": [
        {
          "internalType": "uint256[4]",
          "name": "",
          "type": "uint256[4]"
        }
      ],
      "stateMutability": "view",
      "type": "function"
    },
    {
      "inputs": [],
      "name": "getOwner",
      "outputs": [
        {
          "internalType": "address",
          "name": "",
          "type": "address"
        }
      ],
      "stateMutability": "view",
      "type": "function"
    },
    {
      "inputs": [],
      "name": "isPaused",
      "outputs": [
        {
          "internalType": "bool",
          "name": "",
          "type": "bool"
        }
      ],
      "stateMutability": "view",
      "type": "function"
    },
    {
      "inputs": [],
      "name": "pause",
      "outputs": [],
      "stateMutability": "nonpayable",
      "type": "function"
    },
    {
      "inputs": [
        {
          "internalType": "address",
          "name": "",
          "type": "address"
        }
      ],
      "name": "pausers",
      "outputs": [
        {
          "internalType": "bool",
          "name": "",
          "type": "bool"
        }
      ],
      "stateMutability": "view",
      "type": "function"
    },
    {
      "inputs": [
        {
          "internalType": "address",
          "name": "addr",
          "type": "address"
        }
      ],
      "name": "removePauser",
      "outputs": [],
      "stateMutability": "nonpayable",
      "type": "function"
    },
    {
      "inputs": [
        {
          "internalType": "address",
          "name": "_addr",
          "type": "address"
        }
      ],
      "name": "setDisaster",
      "outputs": [],
      "stateMutability": "nonpayable",
      "type": "function"
    },
    {
      "inputs": [
        {
          "internalType": "uint8",
          "name": "_one",
          "type": "uint8"
        },
        {
          "internalType": "uint8",
          "name": "_two",
          "type": "uint8"
        },
        {
          "internalType": "uint8",
          "name": "_three",
          "type": "uint8"
        },
        {
          "internalType": "uint8",
          "name": "_four",
          "type": "uint8"
        }
      ],
      "name": "setMultipliers",
      "outputs": [],
      "stateMutability": "nonpayable",
      "type": "function"
    },
    {
      "inputs": [
        {
          "internalType": "address",
          "name": "_owner",
          "type": "address"
        }
      ],
      "name": "setOwner",
      "outputs": [],
      "stateMutability": "nonpayable",
      "type": "function"
    },
    {
      "inputs": [],
      "name": "unpause",
      "outputs": [],
      "stateMutability": "nonpayable",
      "type": "function"
    }
  ],
  "transactionHash": "0x8a11c9f6b597352e73d0f27f1b2140c1d69433a4d8ee05875988d2fd78f5d4ac",
  "args": [
    "0x21dF544947ba3E8b3c32561399E88B52Dc8b2823",
    "0x2E2Ed0Cfd3AD2f1d34481277b3204d807Ca2F8c2",
    "0xD8a5a9b31c3C0232E196d518E89Fd8bF83AcAd43",
    "0xDC11f7E700A4c898AE5CAddB1082cFfa76512aDD"
  ],
  "solcInputHash": "38a98dbc4788332e1401a01c9bf8045f",
  "bytecode": "0x60806040523480156200001157600080fd5b506040516200184b3803806200184b83398181016040528101906200003791906200031d565b8383838360405180608001604052808573ffffffffffffffffffffffffffffffffffffffff1673ffffffffffffffffffffffffffffffffffffffff1681526020018473ffffffffffffffffffffffffffffffffffffffff1673ffffffffffffffffffffffffffffffffffffffff1681526020018373ffffffffffffffffffffffffffffffffffffffff1673ffffffffffffffffffffffffffffffffffffffff1681526020018273ffffffffffffffffffffffffffffffffffffffff1673ffffffffffffffffffffffffffffffffffffffff168152506000600201906004620001219291906200021b565b5060008060010160006101000a81548173ffffffffffffffffffffffffffffffffffffffff021916908373ffffffffffffffffffffffffffffffffffffffff160217905550336000800160016101000a81548173ffffffffffffffffffffffffffffffffffffffff021916908373ffffffffffffffffffffffffffffffffffffffff16021790555060008060000160006101000a81548160ff0219169083151502179055506040518060800160405280600360ff168152602001600360ff168152602001600360ff168152602001600360ff1681525060006006019060046200020c9291906200029d565b505050505050505050620003e2565b82600481019282156200028a579160200282015b82811115620002895782518260006101000a81548173ffffffffffffffffffffffffffffffffffffffff021916908373ffffffffffffffffffffffffffffffffffffffff160217905550916020019190600101906200022f565b5b509050620002999190620002e7565b5090565b8260048101928215620002d4579160200282015b82811115620002d3578251829060ff16905591602001919060010190620002b1565b5b509050620002e39190620002e7565b5090565b5b8082111562000302576000816000905550600101620002e8565b5090565b6000815190506200031781620003c8565b92915050565b600080600080608085870312156200033a5762000339620003c3565b5b60006200034a8782880162000306565b94505060206200035d8782880162000306565b9350506040620003708782880162000306565b9250506060620003838782880162000306565b91505092959194509250565b60006200039c82620003a3565b9050919050565b600073ffffffffffffffffffffffffffffffffffffffff82169050919050565b600080fd5b620003d3816200038f565b8114620003df57600080fd5b50565b61145980620003f26000396000f3fe608060405234801561001057600080fd5b50600436106100f55760003560e01c806382dc1ec41161009757806398cd03ce1161006657806398cd03ce14610214578063a71038cb14610230578063b187bd261461024c578063ed10fbc61461026a576100f5565b806382dc1ec4146101b05780638456cb59146101cc578063893d20e8146101d657806393e1ea41146101f4576100f5565b80636240f0f4116100d35780636240f0f41461013c5780636b2c0f551461014657806379873f8a1461016257806380f51c1214610180576100f5565b806313af4035146100fa5780633f4ba83a146101165780634d34f85514610120575b600080fd5b610114600480360381019061010f9190610e6a565b610288565b005b61011e610316565b005b61013a60048036038101906101359190610e6a565b6103d1565b005b6101446104d5565b005b610160600480360381019061015b9190610e6a565b610633565b005b61016a6106d6565b60405161017791906110b9565b60405180910390f35b61019a60048036038101906101959190610e6a565b610724565b6040516101a791906110d4565b60405180910390f35b6101ca60048036038101906101c59190610e6a565b610744565b005b6101d46107e7565b005b6101de6108a2565b6040516101eb9190611075565b60405180910390f35b6101fc6108ce565b60405161020b939291906110ef565b60405180910390f35b61022e60048036038101906102299190610ed7565b610933565b005b61024a60048036038101906102459190610e97565b610986565b005b610254610b70565b60405161026191906110d4565b60405180910390f35b610272610b89565b60405161027f9190611075565b60405180910390f35b61029133610bb5565b6102d0576040517f08c379a00000000000000000000000000000000000000000000000000000000081526004016102c790611166565b60405180910390fd5b806000800160016101000a81548173ffffffffffffffffffffffffffffffffffffffff021916908373ffffffffffffffffffffffffffffffffffffffff16021790555050565b61031f33610bb5565b806103735750600a60003373ffffffffffffffffffffffffffffffffffffffff1673ffffffffffffffffffffffffffffffffffffffff16815260200190815260200160002060009054906101000a900460ff165b6103b2576040517f08c379a00000000000000000000000000000000000000000000000000000000081526004016103a990611166565b60405180910390fd5b60008060000160006101000a81548160ff021916908315150217905550565b6103da33610bb5565b610419576040517f08c379a000000000000000000000000000000000000000000000000000000000815260040161041090611166565b60405180910390fd5b6001600a60008373ffffffffffffffffffffffffffffffffffffffff1673ffffffffffffffffffffffffffffffffffffffff16815260200190815260200160002060006101000a81548160ff02191690831515021790555080600060010160006101000a81548173ffffffffffffffffffffffffffffffffffffffff021916908373ffffffffffffffffffffffffffffffffffffffff16021790555060016000800160006101000a81548160ff02191690831515021790555050565b6104de33610bb5565b8061053957503373ffffffffffffffffffffffffffffffffffffffff16600060010160009054906101000a900473ffffffffffffffffffffffffffffffffffffffff1673ffffffffffffffffffffffffffffffffffffffff16145b610578576040517f08c379a000000000000000000000000000000000000000000000000000000000815260040161056f90611126565b60405180910390fd5b6000600a60003373ffffffffffffffffffffffffffffffffffffffff1673ffffffffffffffffffffffffffffffffffffffff16815260200190815260200160002060006101000a81548160ff02191690831515021790555060008060010160006101000a81548173ffffffffffffffffffffffffffffffffffffffff021916908373ffffffffffffffffffffffffffffffffffffffff16021790555060008060000160006101000a81548160ff021916908315150217905550565b61063c33610bb5565b61067b576040517f08c379a000000000000000000000000000000000000000000000000000000000815260040161067290611166565b60405180910390fd5b6000600a60008373ffffffffffffffffffffffffffffffffffffffff1673ffffffffffffffffffffffffffffffffffffffff16815260200190815260200160002060006101000a81548160ff02191690831515021790555050565b6106de610da7565b600060060160048060200260405190810160405280929190826004801561071a576020028201915b815481526020019060010190808311610706575b5050505050905090565b600a6020528060005260406000206000915054906101000a900460ff1681565b61074d33610bb5565b61078c576040517f08c379a000000000000000000000000000000000000000000000000000000000815260040161078390611166565b60405180910390fd5b6001600a60008373ffffffffffffffffffffffffffffffffffffffff1673ffffffffffffffffffffffffffffffffffffffff16815260200190815260200160002060006101000a81548160ff02191690831515021790555050565b6107f033610bb5565b806108445750600a60003373ffffffffffffffffffffffffffffffffffffffff1673ffffffffffffffffffffffffffffffffffffffff16815260200190815260200160002060009054906101000a900460ff165b610883576040517f08c379a000000000000000000000000000000000000000000000000000000000815260040161087a90611166565b60405180910390fd5b60016000800160006101000a81548160ff021916908315150217905550565b60008060000160019054906101000a900473ffffffffffffffffffffffffffffffffffffffff16905090565b60008060000160009054906101000a900460ff16908060000160019054906101000a900473ffffffffffffffffffffffffffffffffffffffff16908060010160009054906101000a900473ffffffffffffffffffffffffffffffffffffffff16905083565b60405180608001604052808560ff1660ff1681526020018460ff1660ff1681526020018360ff1660ff1681526020018260ff1660ff16815250600060060190600461097f929190610dc9565b5050505050565b600481106109c9576040517f08c379a00000000000000000000000000000000000000000000000000000000081526004016109c090611146565b60405180910390fd5b6000811415610a3257610a2d82600060020183600481106109ed576109ec611306565b5b0160009054906101000a900473ffffffffffffffffffffffffffffffffffffffff1660006006018460048110610a2657610a25611306565b5b0154610c11565b610b6c565b6001811415610a9b57610a968260006002018360048110610a5657610a55611306565b5b0160009054906101000a900473ffffffffffffffffffffffffffffffffffffffff1660006006018460048110610a8f57610a8e611306565b5b0154610c11565b610b6b565b6002811415610b0457610aff8260006002018360048110610abf57610abe611306565b5b0160009054906101000a900473ffffffffffffffffffffffffffffffffffffffff1660006006018460048110610af857610af7611306565b5b0154610c11565b610b6a565b6003811415610b6957610b688260006002018360048110610b2857610b27611306565b5b0160009054906101000a900473ffffffffffffffffffffffffffffffffffffffff1660006006018460048110610b6157610b60611306565b5b0154610c11565b5b5b5b5b5050565b60008060000160009054906101000a900460ff16905090565b60008060010160009054906101000a900473ffffffffffffffffffffffffffffffffffffffff16905090565b60008173ffffffffffffffffffffffffffffffffffffffff166000800160019054906101000a900473ffffffffffffffffffffffffffffffffffffffff1673ffffffffffffffffffffffffffffffffffffffff16149050919050565b6000800160009054906101000a900460ff1615610c63576040517f08c379a0000000000000000000000000000000000000000000000000000000008152600401610c5a90611186565b60405180910390fd5b73ce761d788df608bd21bdd59d6f4b54b2e27f25bb73ffffffffffffffffffffffffffffffffffffffff1663b00b52f1846040518263ffffffff1660e01b8152600401610cb091906111a6565b600060405180830381600087803b158015610cca57600080fd5b505af1158015610cde573d6000803e3d6000fd5b505050506000670de0b6b3a764000082610cf89190611228565b90508273ffffffffffffffffffffffffffffffffffffffff16631b2ef1ca85836040518363ffffffff1660e01b8152600401610d359291906111c1565b600060405180830381600087803b158015610d4f57600080fd5b505af1158015610d63573d6000803e3d6000fd5b50505050837f80a9397ea92336d8c6fbaac2456f7ab26b0f234c63260e2587c29af8359ea7f28483604051610d99929190611090565b60405180910390a250505050565b6040518060800160405280600490602082028036833780820191505090505090565b8260048101928215610dfd579160200282015b82811115610dfc578251829060ff16905591602001919060010190610ddc565b5b509050610e0a9190610e0e565b5090565b5b80821115610e27576000816000905550600101610e0f565b5090565b600081359050610e3a816113de565b92915050565b600081359050610e4f816113f5565b92915050565b600081359050610e648161140c565b92915050565b600060208284031215610e8057610e7f611335565b5b6000610e8e84828501610e2b565b91505092915050565b60008060408385031215610eae57610ead611335565b5b6000610ebc85828601610e40565b9250506020610ecd85828601610e40565b9150509250929050565b60008060008060808587031215610ef157610ef0611335565b5b6000610eff87828801610e55565b9450506020610f1087828801610e55565b9350506040610f2187828801610e55565b9250506060610f3287828801610e55565b91505092959194509250565b6000610f4a8383611057565b60208301905092915050565b610f5f81611282565b82525050565b610f6e816111f4565b610f78818461120c565b9250610f83826111ea565b8060005b83811015610fb4578151610f9b8782610f3e565b9650610fa6836111ff565b925050600181019050610f87565b505050505050565b610fc581611294565b82525050565b6000610fd8601983611217565b9150610fe38261133a565b602082019050919050565b6000610ffb600a83611217565b915061100682611363565b602082019050919050565b600061101e600d83611217565b91506110298261138c565b602082019050919050565b6000611041601283611217565b915061104c826113b5565b602082019050919050565b611060816112c0565b82525050565b61106f816112c0565b82525050565b600060208201905061108a6000830184610f56565b92915050565b60006040820190506110a56000830185610f56565b6110b26020830184611066565b9392505050565b60006080820190506110ce6000830184610f65565b92915050565b60006020820190506110e96000830184610fbc565b92915050565b60006060820190506111046000830186610fbc565b6111116020830185610f56565b61111e6040830184610f56565b949350505050565b6000602082019050818103600083015261113f81610fcb565b9050919050565b6000602082019050818103600083015261115f81610fee565b9050919050565b6000602082019050818103600083015261117f81611011565b9050919050565b6000602082019050818103600083015261119f81611034565b9050919050565b60006020820190506111bb6000830184611066565b92915050565b60006040820190506111d66000830185611066565b6111e36020830184611066565b9392505050565b6000819050919050565b600060049050919050565b6000602082019050919050565b600081905092915050565b600082825260208201905092915050565b6000611233826112c0565b915061123e836112c0565b9250817fffffffffffffffffffffffffffffffffffffffffffffffffffffffffffffffff0483118215151615611277576112766112d7565b5b828202905092915050565b600061128d826112a0565b9050919050565b60008115159050919050565b600073ffffffffffffffffffffffffffffffffffffffff82169050919050565b6000819050919050565b600060ff82169050919050565b7f4e487b7100000000000000000000000000000000000000000000000000000000600052601160045260246000fd5b7f4e487b7100000000000000000000000000000000000000000000000000000000600052603260045260246000fd5b600080fd5b7f4d757374206265206f776e6572206f7220646973617374657200000000000000600082015250565b7f496e76616c696420496400000000000000000000000000000000000000000000600082015250565b7f4d757374206265206f776e657200000000000000000000000000000000000000600082015250565b7f4661726d206e6f7420617661696c61626c650000000000000000000000000000600082015250565b6113e781611282565b81146113f257600080fd5b50565b6113fe816112c0565b811461140957600080fd5b50565b611415816112ca565b811461142057600080fd5b5056fea2646970667358221220a5201386a2dcff37a830b81ddc19382d7ec58684f8f2a45a41f3ef805957fde764736f6c63430008070033",
  "devdoc": {
    "kind": "dev",
    "methods": {},
    "version": 1
  },
  "userdoc": {
    "kind": "user",
    "methods": {},
    "version": 1
  },
  "storageLayout": {
    "storage": [
      {
        "astId": 40,
        "contract": "contracts/farms/veggie/VeggieFarm.sol:VeggieFarm",
        "label": "attributes",
        "offset": 0,
        "slot": "0",
        "type": "t_struct(FarmAttributes)37_storage"
      },
      {
        "astId": 44,
        "contract": "contracts/farms/veggie/VeggieFarm.sol:VeggieFarm",
        "label": "pausers",
        "offset": 0,
        "slot": "10",
        "type": "t_mapping(t_address,t_bool)"
      }
    ],
    "types": {
      "t_address": {
        "encoding": "inplace",
        "label": "address",
        "numberOfBytes": "20"
      },
      "t_array(t_contract(IResource)15)4_storage": {
        "base": "t_contract(IResource)15",
        "encoding": "inplace",
        "label": "contract IResource[4]",
        "numberOfBytes": "128"
      },
      "t_array(t_uint256)4_storage": {
        "base": "t_uint256",
        "encoding": "inplace",
        "label": "uint256[4]",
        "numberOfBytes": "128"
      },
      "t_bool": {
        "encoding": "inplace",
        "label": "bool",
        "numberOfBytes": "1"
      },
      "t_contract(IResource)15": {
        "encoding": "inplace",
        "label": "contract IResource",
        "numberOfBytes": "20"
      },
      "t_mapping(t_address,t_bool)": {
        "encoding": "mapping",
        "key": "t_address",
        "label": "mapping(address => bool)",
        "numberOfBytes": "32",
        "value": "t_bool"
      },
      "t_struct(FarmAttributes)37_storage": {
        "encoding": "inplace",
        "label": "struct NewFarm.FarmAttributes",
        "members": [
          {
            "astId": 23,
            "contract": "contracts/farms/veggie/VeggieFarm.sol:VeggieFarm",
            "label": "paused",
            "offset": 0,
            "slot": "0",
            "type": "t_bool"
          },
          {
            "astId": 25,
            "contract": "contracts/farms/veggie/VeggieFarm.sol:VeggieFarm",
            "label": "owner",
            "offset": 1,
            "slot": "0",
            "type": "t_address"
          },
          {
            "astId": 27,
            "contract": "contracts/farms/veggie/VeggieFarm.sol:VeggieFarm",
            "label": "disaster",
            "offset": 0,
            "slot": "1",
            "type": "t_address"
          },
          {
            "astId": 32,
            "contract": "contracts/farms/veggie/VeggieFarm.sol:VeggieFarm",
            "label": "resources",
            "offset": 0,
            "slot": "2",
            "type": "t_array(t_contract(IResource)15)4_storage"
          },
          {
            "astId": 36,
            "contract": "contracts/farms/veggie/VeggieFarm.sol:VeggieFarm",
            "label": "multipliers",
            "offset": 0,
            "slot": "6",
            "type": "t_array(t_uint256)4_storage"
          }
        ],
        "numberOfBytes": "320"
      },
      "t_uint256": {
        "encoding": "inplace",
        "label": "uint256",
        "numberOfBytes": "32"
      }
    }
  }
}